{
  "_format": "hh-sol-artifact-1",
  "contractName": "GoodsExchange",
  "sourceName": "contracts/SellGoods.sol",
  "abi": [
    {
      "inputs": [
        {
          "internalType": "uint256",
          "name": "itemIndex",
          "type": "uint256"
        }
      ],
      "name": "approvePurchase",
      "outputs": [],
      "stateMutability": "nonpayable",
      "type": "function"
    },
    {
      "inputs": [
        {
          "internalType": "uint256",
          "name": "itemIndex",
          "type": "uint256"
        }
      ],
      "name": "disputePurchase",
      "outputs": [],
      "stateMutability": "nonpayable",
      "type": "function"
    },
    {
      "inputs": [
        {
          "internalType": "uint256",
          "name": "",
          "type": "uint256"
        }
      ],
      "name": "openItems",
      "outputs": [
        {
          "internalType": "address",
          "name": "owner",
          "type": "address"
        },
        {
          "internalType": "string",
          "name": "description",
          "type": "string"
        },
        {
          "internalType": "uint256",
          "name": "value",
          "type": "uint256"
        },
        {
          "internalType": "uint256",
          "name": "balance",
          "type": "uint256"
        },
        {
          "internalType": "bool",
          "name": "purchased",
          "type": "bool"
        },
        {
          "internalType": "bool",
          "name": "completed",
          "type": "bool"
        },
        {
          "internalType": "bool",
          "name": "disputed",
          "type": "bool"
        },
        {
          "internalType": "bool",
          "name": "approved",
          "type": "bool"
        },
        {
          "internalType": "address",
          "name": "buyer",
          "type": "address"
        }
      ],
      "stateMutability": "view",
      "type": "function"
    },
    {
      "inputs": [
        {
          "internalType": "uint256",
          "name": "itemIndex",
          "type": "uint256"
        }
      ],
      "name": "purchaseItem",
      "outputs": [],
      "stateMutability": "payable",
      "type": "function"
    },
    {
      "inputs": [
        {
          "internalType": "string",
          "name": "description",
          "type": "string"
        },
        {
          "internalType": "uint256",
          "name": "value",
          "type": "uint256"
        }
      ],
      "name": "sellItem",
      "outputs": [
        {
          "internalType": "bool",
          "name": "",
          "type": "bool"
        }
      ],
      "stateMutability": "nonpayable",
      "type": "function"
    },
    {
      "inputs": [
        {
          "internalType": "uint256",
          "name": "itemIndex",
          "type": "uint256"
        },
        {
          "internalType": "bool",
          "name": "purchaseReverted",
          "type": "bool"
        }
      ],
      "name": "settleDispute",
      "outputs": [],
      "stateMutability": "nonpayable",
      "type": "function"
    },
    {
      "inputs": [
        {
          "internalType": "uint256",
          "name": "itemIndex",
          "type": "uint256"
        }
      ],
      "name": "withdrawMoneyFromContract",
      "outputs": [],
      "stateMutability": "nonpayable",
      "type": "function"
    }
  ],
  "bytecode": "0x608060405234801561001057600080fd5b5061156f806100206000396000f3fe6080604052600436106100705760003560e01c8063923054351161004e5780639230543514610120578063b37b53f714610149578063d38ea5bf14610172578063fdff051d1461018e57610070565b806318c0184f1461007557806367356a06146100ba5780638bd099b8146100e3575b600080fd5b34801561008157600080fd5b5061009c60048036038101906100979190610d86565b6101b7565b6040516100b199989796959493929190610fa9565b60405180910390f35b3480156100c657600080fd5b506100e160048036038101906100dc9190610d86565b610311565b005b3480156100ef57600080fd5b5061010a60048036038101906101059190610d2a565b610372565b604051610117919061103d565b60405180910390f35b34801561012c57600080fd5b5061014760048036038101906101429190610db3565b61056a565b005b34801561015557600080fd5b50610170600480360381019061016b9190610d86565b6107c3565b005b61018c60048036038101906101879190610d86565b61089b565b005b34801561019a57600080fd5b506101b560048036038101906101b09190610d86565b610959565b005b600081815481106101c757600080fd5b90600052602060002090600502016000915090508060000160009054906101000a900473ffffffffffffffffffffffffffffffffffffffff16908060010180546102109061125f565b80601f016020809104026020016040519081016040528092919081815260200182805461023c9061125f565b80156102895780601f1061025e57610100808354040283529160200191610289565b820191906000526020600020905b81548152906001019060200180831161026c57829003601f168201915b5050505050908060020154908060030154908060040160009054906101000a900460ff16908060040160019054906101000a900460ff16908060040160029054906101000a900460ff16908060040160039054906101000a900460ff16908060040160049054906101000a900473ffffffffffffffffffffffffffffffffffffffff16905089565b6000808281548110610326576103256112f1565b5b906000526020600020906005020190508060040160009054906101000a900460ff1661035157600080fd5b60018160040160026101000a81548160ff0219169083151502179055505050565b6000806040518061012001604052803373ffffffffffffffffffffffffffffffffffffffff16815260200185815260200184815260200160008152602001600015158152602001600015158152602001600015158152602001600015158152602001600073ffffffffffffffffffffffffffffffffffffffff168152509050600081908060018154018082558091505060019003906000526020600020906005020160009091909190915060008201518160000160006101000a81548173ffffffffffffffffffffffffffffffffffffffff021916908373ffffffffffffffffffffffffffffffffffffffff1602179055506020820151816001019080519060200190610480929190610bed565b50604082015181600201556060820151816003015560808201518160040160006101000a81548160ff02191690831515021790555060a08201518160040160016101000a81548160ff02191690831515021790555060c08201518160040160026101000a81548160ff02191690831515021790555060e08201518160040160036101000a81548160ff0219169083151502179055506101008201518160040160046101000a81548173ffffffffffffffffffffffffffffffffffffffff021916908373ffffffffffffffffffffffffffffffffffffffff1602179055505050600191505092915050565b600080838154811061057f5761057e6112f1565b5b906000526020600020906005020190508060000160009054906101000a900473ffffffffffffffffffffffffffffffffffffffff1673ffffffffffffffffffffffffffffffffffffffff163373ffffffffffffffffffffffffffffffffffffffff161415610622576040517f08c379a000000000000000000000000000000000000000000000000000000000815260040161061990611078565b60405180910390fd5b8060040160049054906101000a900473ffffffffffffffffffffffffffffffffffffffff1673ffffffffffffffffffffffffffffffffffffffff163373ffffffffffffffffffffffffffffffffffffffff1614156106b5576040517f08c379a00000000000000000000000000000000000000000000000000000000081526004016106ac90611138565b60405180910390fd5b81156107a1576000816003015490506000826003018190555060008260040160049054906101000a900473ffffffffffffffffffffffffffffffffffffffff1673ffffffffffffffffffffffffffffffffffffffff168260405161071890610f94565b60006040518083038185875af1925050503d8060008114610755576040519150601f19603f3d011682016040523d82523d6000602084013e61075a565b606091505b505090508061079e576040517f08c379a0000000000000000000000000000000000000000000000000000000008152600401610795906110f8565b60405180910390fd5b50505b60008160040160026101000a81548160ff021916908315150217905550505050565b60008082815481106107d8576107d76112f1565b5b906000526020600020906005020190503373ffffffffffffffffffffffffffffffffffffffff168160040160049054906101000a900473ffffffffffffffffffffffffffffffffffffffff1673ffffffffffffffffffffffffffffffffffffffff161461087a576040517f08c379a000000000000000000000000000000000000000000000000000000000815260040161087190611098565b60405180910390fd5b60018160040160036101000a81548160ff0219169083151502179055505050565b60008082815481106108b0576108af6112f1565b5b906000526020600020906005020190508060040160009054906101000a900460ff16156108dc57600080fd5b60018160040160006101000a81548160ff0219169083151502179055508060020154341461090957600080fd5b348160030181905550338160040160046101000a81548173ffffffffffffffffffffffffffffffffffffffff021916908373ffffffffffffffffffffffffffffffffffffffff1602179055505050565b600080828154811061096e5761096d6112f1565b5b906000526020600020906005020190508060040160009054906101000a900460ff166109cf576040517f08c379a00000000000000000000000000000000000000000000000000000000081526004016109c6906110b8565b60405180910390fd5b8060040160039054906101000a900460ff16610a20576040517f08c379a0000000000000000000000000000000000000000000000000000000008152600401610a17906110d8565b60405180910390fd5b8060040160029054906101000a900460ff1615610a72576040517f08c379a0000000000000000000000000000000000000000000000000000000008152600401610a6990611118565b60405180910390fd5b8060000160009054906101000a900473ffffffffffffffffffffffffffffffffffffffff1673ffffffffffffffffffffffffffffffffffffffff163373ffffffffffffffffffffffffffffffffffffffff1614610b04576040517f08c379a0000000000000000000000000000000000000000000000000000000008152600401610afb90611058565b60405180910390fd5b6000816003015490506000826003018190555060008260000160009054906101000a900473ffffffffffffffffffffffffffffffffffffffff1673ffffffffffffffffffffffffffffffffffffffff1682604051610b6190610f94565b60006040518083038185875af1925050503d8060008114610b9e576040519150601f19603f3d011682016040523d82523d6000602084013e610ba3565b606091505b5050905080610be7576040517f08c379a0000000000000000000000000000000000000000000000000000000008152600401610bde906110f8565b60405180910390fd5b50505050565b828054610bf99061125f565b90600052602060002090601f016020900481019282610c1b5760008555610c62565b82601f10610c3457805160ff1916838001178555610c62565b82800160010185558215610c62579182015b82811115610c61578251825591602001919060010190610c46565b5b509050610c6f9190610c73565b5090565b5b80821115610c8c576000816000905550600101610c74565b5090565b6000610ca3610c9e8461117d565b611158565b905082815260208101848484011115610cbf57610cbe611354565b5b610cca84828561121d565b509392505050565b600081359050610ce18161150b565b92915050565b600082601f830112610cfc57610cfb61134f565b5b8135610d0c848260208601610c90565b91505092915050565b600081359050610d2481611522565b92915050565b60008060408385031215610d4157610d4061135e565b5b600083013567ffffffffffffffff811115610d5f57610d5e611359565b5b610d6b85828601610ce7565b9250506020610d7c85828601610d15565b9150509250929050565b600060208284031215610d9c57610d9b61135e565b5b6000610daa84828501610d15565b91505092915050565b60008060408385031215610dca57610dc961135e565b5b6000610dd885828601610d15565b9250506020610de985828601610cd2565b9150509250929050565b610dfc816111d5565b82525050565b610e0b816111e7565b82525050565b6000610e1c826111ae565b610e2681856111c4565b9350610e3681856020860161122c565b610e3f81611363565b840191505092915050565b6000610e57601f836111c4565b9150610e6282611374565b602082019050919050565b6000610e7a601e836111c4565b9150610e858261139d565b602082019050919050565b6000610e9d6018836111c4565b9150610ea8826113c6565b602082019050919050565b6000610ec0601d836111c4565b9150610ecb826113ef565b602082019050919050565b6000610ee36029836111c4565b9150610eee82611418565b604082019050919050565b6000610f066000836111b9565b9150610f1182611467565b600082019050919050565b6000610f296010836111c4565b9150610f348261146a565b602082019050919050565b6000610f4c603d836111c4565b9150610f5782611493565b604082019050919050565b6000610f6f601e836111c4565b9150610f7a826114e2565b602082019050919050565b610f8e81611213565b82525050565b6000610f9f82610ef9565b9150819050919050565b600061012082019050610fbf600083018c610df3565b8181036020830152610fd1818b610e11565b9050610fe0604083018a610f85565b610fed6060830189610f85565b610ffa6080830188610e02565b61100760a0830187610e02565b61101460c0830186610e02565b61102160e0830185610e02565b61102f610100830184610df3565b9a9950505050505050505050565b60006020820190506110526000830184610e02565b92915050565b6000602082019050818103600083015261107181610e4a565b9050919050565b6000602082019050818103600083015261109181610e6d565b9050919050565b600060208201905081810360008301526110b181610e90565b9050919050565b600060208201905081810360008301526110d181610eb3565b9050919050565b600060208201905081810360008301526110f181610ed6565b9050919050565b6000602082019050818103600083015261111181610f1c565b9050919050565b6000602082019050818103600083015261113181610f3f565b9050919050565b6000602082019050818103600083015261115181610f62565b9050919050565b6000611162611173565b905061116e8282611291565b919050565b6000604051905090565b600067ffffffffffffffff82111561119857611197611320565b5b6111a182611363565b9050602081019050919050565b600081519050919050565b600081905092915050565b600082825260208201905092915050565b60006111e0826111f3565b9050919050565b60008115159050919050565b600073ffffffffffffffffffffffffffffffffffffffff82169050919050565b6000819050919050565b82818337600083830152505050565b60005b8381101561124a57808201518184015260208101905061122f565b83811115611259576000848401525b50505050565b6000600282049050600182168061127757607f821691505b6020821081141561128b5761128a6112c2565b5b50919050565b61129a82611363565b810181811067ffffffffffffffff821117156112b9576112b8611320565b5b80604052505050565b7f4e487b7100000000000000000000000000000000000000000000000000000000600052602260045260246000fd5b7f4e487b7100000000000000000000000000000000000000000000000000000000600052603260045260246000fd5b7f4e487b7100000000000000000000000000000000000000000000000000000000600052604160045260246000fd5b600080fd5b600080fd5b600080fd5b600080fd5b6000601f19601f8301169050919050565b7f4f6e6c79206f776e6572732063616e2077697468647261772066756e64732e00600082015250565b7f4f776e6572732063616e6e6f7420736574746c652064697370757465732e0000600082015250565b7f4f6e6c79206275796572732063616e20617070726f76652e0000000000000000600082015250565b7f4e6f626f64792070757263686173656420746865206974656d20796574000000600082015250565b7f54686520627579657220646964206e6f7420617070726f76652074686520747260008201527f616e73616374696f6e0000000000000000000000000000000000000000000000602082015250565b50565b7f5472616e73666572206661696c65642e00000000000000000000000000000000600082015250565b7f546865207472616e73616374696f6e206973206265696e67206469737075746560008201527f642c20706c65617365207761697420666f72207265736f6c7574696f6e000000602082015250565b7f4275796572732063616e6e6f7420736574746c652064697370757465732e0000600082015250565b611514816111e7565b811461151f57600080fd5b50565b61152b81611213565b811461153657600080fd5b5056fea2646970667358221220c1c4ed192a3350756629cbf9c9aa766cba611fc2a99beca3b767d21a73aa240264736f6c63430008070033",
  "linkReferences": {},
  "deployedLinkReferences": {}
}