{
  "_format": "hh-sol-artifact-1",
  "contractName": "GoodsExchange",
  "sourceName": "contracts/SellGoods.sol",
  "abi": [
    {
      "inputs": [
        {
          "internalType": "uint256",
          "name": "itemIndex",
          "type": "uint256"
        }
      ],
      "name": "approvePurchase",
      "outputs": [],
      "stateMutability": "nonpayable",
      "type": "function"
    },
    {
      "inputs": [
        {
          "internalType": "bytes32",
          "name": "c__0x74c48283",
          "type": "bytes32"
        }
      ],
      "name": "c_0x74c48283",
      "outputs": [],
      "stateMutability": "pure",
      "type": "function"
    },
    {
      "inputs": [
        {
          "internalType": "uint256",
          "name": "itemIndex",
          "type": "uint256"
        }
      ],
      "name": "disputePurchase",
      "outputs": [],
      "stateMutability": "nonpayable",
      "type": "function"
    },
    {
      "inputs": [
        {
          "internalType": "uint256",
          "name": "",
          "type": "uint256"
        }
      ],
      "name": "openItems",
      "outputs": [
        {
          "internalType": "address",
          "name": "owner",
          "type": "address"
        },
        {
          "internalType": "string",
          "name": "description",
          "type": "string"
        },
        {
          "internalType": "uint256",
          "name": "value",
          "type": "uint256"
        },
        {
          "internalType": "uint256",
          "name": "balance",
          "type": "uint256"
        },
        {
          "internalType": "bool",
          "name": "purchased",
          "type": "bool"
        },
        {
          "internalType": "bool",
          "name": "completed",
          "type": "bool"
        },
        {
          "internalType": "bool",
          "name": "disputed",
          "type": "bool"
        },
        {
          "internalType": "bool",
          "name": "approved",
          "type": "bool"
        },
        {
          "internalType": "address",
          "name": "buyer",
          "type": "address"
        }
      ],
      "stateMutability": "view",
      "type": "function"
    },
    {
      "inputs": [
        {
          "internalType": "uint256",
          "name": "itemIndex",
          "type": "uint256"
        }
      ],
      "name": "purchaseItem",
      "outputs": [],
      "stateMutability": "payable",
      "type": "function"
    },
    {
      "inputs": [
        {
          "internalType": "string",
          "name": "description",
          "type": "string"
        },
        {
          "internalType": "uint256",
          "name": "value",
          "type": "uint256"
        }
      ],
      "name": "sellItem",
      "outputs": [
        {
          "internalType": "bool",
          "name": "",
          "type": "bool"
        }
      ],
      "stateMutability": "nonpayable",
      "type": "function"
    },
    {
      "inputs": [
        {
          "internalType": "uint256",
          "name": "itemIndex",
          "type": "uint256"
        },
        {
          "internalType": "bool",
          "name": "purchaseReverted",
          "type": "bool"
        }
      ],
      "name": "settleDispute",
      "outputs": [],
      "stateMutability": "nonpayable",
      "type": "function"
    },
    {
      "inputs": [
        {
          "internalType": "uint256",
          "name": "itemIndex",
          "type": "uint256"
        }
      ],
      "name": "withdrawMoneyFromContract",
      "outputs": [],
      "stateMutability": "nonpayable",
      "type": "function"
    }
  ],
  "bytecode": "0x608060405234801561001057600080fd5b506126e6806100206000396000f3fe60806040526004361061007b5760003560e01c8063923054351161004e5780639230543514610154578063b37b53f71461017d578063d38ea5bf146101a6578063fdff051d146101c25761007b565b806318c0184f146100805780631e48fd80146100c557806367356a06146100ee5780638bd099b814610117575b600080fd5b34801561008c57600080fd5b506100a760048036038101906100a29190611edc565b6101eb565b6040516100bc999897969594939291906120ff565b60405180910390f35b3480156100d157600080fd5b506100ec60048036038101906100e79190611e53565b610345565b005b3480156100fa57600080fd5b5061011560048036038101906101109190611edc565b610348565b005b34801561012357600080fd5b5061013e60048036038101906101399190611e80565b610535565b60405161014b9190612193565b60405180910390f35b34801561016057600080fd5b5061017b60048036038101906101769190611f09565b610862565b005b34801561018957600080fd5b506101a4600480360381019061019f9190611edc565b610f64565b005b6101c060048036038101906101bb9190611edc565b6111c8565b005b3480156101ce57600080fd5b506101e960048036038101906101e49190611edc565b611571565b005b600081815481106101fb57600080fd5b90600052602060002090600502016000915090508060000160009054906101000a900473ffffffffffffffffffffffffffffffffffffffff1690806001018054610244906123bf565b80601f0160208091040260200160405190810160405280929190818152602001828054610270906123bf565b80156102bd5780601f10610292576101008083540402835291602001916102bd565b820191906000526020600020905b8154815290600101906020018083116102a057829003601f168201915b5050505050908060020154908060030154908060040160009054906101000a900460ff16908060040160019054906101000a900460ff16908060040160029054906101000a900460ff16908060040160039054906101000a900460ff16908060040160049054906101000a900473ffffffffffffffffffffffffffffffffffffffff16905089565b50565b6103747f45f4ece4f16233ee1e8581c09d75add1cdd380c7df95b3d191beb9d59e248c8560001b610345565b6103a07f1aaedb86478a6dd384f714632c72b16753ce53c2ecd0dbc10029e2a9657a7cc760001b610345565b6103cc7f9a27709b54d1831cd6debd602f19a764aa51785d8c7c28c7d71e108f2a206fb660001b610345565b60008082815481106103e1576103e0612451565b5b9060005260206000209060050201905061041d7f475cbafdea1aa5a4c96b93c5991b20de2d4bab0c5918b2c5c18684bd291e4dec60001b610345565b6104497f73b1623f6b199abccc9ae6c17a6b510c77245be3670f997500cdbfec34d053de60001b610345565b6104757f912397c06a19ced18393742fe89a6245706591509e2c5ca19f0d561ab5e67c7560001b610345565b8060040160009054906101000a900460ff1661049057600080fd5b6104bc7fcecee8b55956ca4281bbacc9d00d9cc1174650c82814d0f4950165d1fbf2f58760001b610345565b6104e87fb5d091433337aba745aa03597998015d2a33178cbc6991b7257c2b6c8da09c1c60001b610345565b6105147fb7547c2bb4320143430c55ed4c4a890579da98a101f3c8b3cc2bfacbf66a4f3e60001b610345565b60018160040160026101000a81548160ff0219169083151502179055505050565b60006105637f9e61faed1510563037f94a9233116afcb75181e4ba861a2c08a687b8db754c2460001b610345565b61058f7fac8aab52e14494f90fb5aebab23af002b75b7692f5512f89d4903931753991a660001b610345565b6105bb7ffaa91791f1c49d6ce00415e88a8a0213d5f7d2ed52cb5b27921c6e58a19ebb4760001b610345565b60006040518061012001604052803373ffffffffffffffffffffffffffffffffffffffff16815260200185815260200184815260200160008152602001600015158152602001600015158152602001600015158152602001600015158152602001600073ffffffffffffffffffffffffffffffffffffffff1681525090506106657fb02bb8b1846583fe67291000dfb5056c144df7dbf1d985dbb3a1d3a5f3e9f3d560001b610345565b6106917f7ef2f241e59b25773296847e85983d7db55de877276b1b6bb77e3a1125f0873460001b610345565b600081908060018154018082558091505060019003906000526020600020906005020160009091909190915060008201518160000160006101000a81548173ffffffffffffffffffffffffffffffffffffffff021916908373ffffffffffffffffffffffffffffffffffffffff1602179055506020820151816001019080519060200190610720929190611d01565b50604082015181600201556060820151816003015560808201518160040160006101000a81548160ff02191690831515021790555060a08201518160040160016101000a81548160ff02191690831515021790555060c08201518160040160026101000a81548160ff02191690831515021790555060e08201518160040160036101000a81548160ff0219169083151502179055506101008201518160040160046101000a81548173ffffffffffffffffffffffffffffffffffffffff021916908373ffffffffffffffffffffffffffffffffffffffff160217905550505061082b7f1685df78e626f4d480e4edc0081d3c7e15c1735c917f9fa6200850d35138a27060001b610345565b6108577f946a1245899ff1203838f62599afffdd8ddf2ea88766b1a10c19bf4c817aab6d60001b610345565b600191505092915050565b61088e7f32f28f59c6b9c3737ceefccfa02651220be17f99cb6f7d254b48f7a581f4bd0760001b610345565b6108ba7ff0cb6a8c342b5efcd7bc09f70a5b69f9d0e0bfd763c132b448ad57e4757535fb60001b610345565b6108e67f8842a992307a0418790be7a681bfd525530c124bb20726a084ccb708c8cc28f260001b610345565b60008083815481106108fb576108fa612451565b5b906000526020600020906005020190506109377f09dcf540d490baacaef42678b7f084e8d23cc1bd9d3cfe64ac5be20380e4e0db60001b610345565b6109637fae6cdc33c5a872a39b6c701a3f15f204034aa5d8f9e6fcb043e07e7211bfcca860001b610345565b61098f7f2a8dbace158234f07a4aa069646ae9d3afebc155ae8533cef43d9f657cd0513260001b610345565b8060000160009054906101000a900473ffffffffffffffffffffffffffffffffffffffff1673ffffffffffffffffffffffffffffffffffffffff163373ffffffffffffffffffffffffffffffffffffffff161415610a22576040517f08c379a0000000000000000000000000000000000000000000000000000000008152600401610a19906121ce565b60405180910390fd5b610a4e7f572a222959348348e05aa17671cd810af2bb1295dcc94f5e77a763b330db41ce60001b610345565b610a7a7f6f12e013912b935bdb0bb92b972e356e5f7daae144d048d09186c43dfb867e9360001b610345565b610aa67f5ac1e2be656d313d56cd252c3e35b53395c784d2e1e0296b93e998035f5b5edd60001b610345565b610ad27ff590b9e627bfc4a40ef990705d50d3a6d06ecc2dd0f2e1f8a7cc67bcc469b3bd60001b610345565b8060040160049054906101000a900473ffffffffffffffffffffffffffffffffffffffff1673ffffffffffffffffffffffffffffffffffffffff163373ffffffffffffffffffffffffffffffffffffffff161415610b65576040517f08c379a0000000000000000000000000000000000000000000000000000000008152600401610b5c9061228e565b60405180910390fd5b610b917fc7801b1d1fd064921b2e2fc71549a7e7d34028e29738d99ad0b880a809ea68f960001b610345565b610bbd7fb170860d7bb06c12e7fbbddbf231bd34a6c790471f488587003d4a1f35f0428160001b610345565b610be97feb474fc5d866ee66b90cce1b11606cf9a95ea09c195d447af724a32076c91efe60001b610345565b8115610ebd57610c1b7f94698cc9bed7b415a0621b054f248363b8cc91d9a7821d329db98975e946832c60001b610345565b610c477f3f0bae53d6195d57164f94fa4cd0c9172af3fbe6c69af61c5b22501903f0f54f60001b610345565b610c737f1a1026a7c4691e2abb2266a41fd4df760edeb2acb296095ac9dae2e171ab7f4b60001b610345565b600081600301549050610ca87f5b2bab780943db43158f424c3410dc0e465cdec5f48f0037ee7400c358a60d4360001b610345565b610cd47f798304935989fb36cc4a83a8c9d22ff651f76e5fb5d7206615ad6267c7aa137860001b610345565b60008260030181905550610d0a7fddbec13f9c544f8c7d9acdd7fbe150764325797a3f6bb6be0745bf2a1b26077660001b610345565b610d367f288e6c6471e5ce6c4389322fbc7703e1837a31b8e36702c7263780d0de84b3e460001b610345565b60008260040160049054906101000a900473ffffffffffffffffffffffffffffffffffffffff1673ffffffffffffffffffffffffffffffffffffffff1682604051610d80906120ea565b60006040518083038185875af1925050503d8060008114610dbd576040519150601f19603f3d011682016040523d82523d6000602084013e610dc2565b606091505b50509050610df27f70f577c47a99b065d5765f69f4c6e59568ca7ade32b5657e17b9e94bc89949e060001b610345565b610e1e7f86b9398f88d3c77e34bdce141becd90310519666a70532a170f9b04162d7c2e460001b610345565b610e4a7f2ff1b2e9546aff33994b454025cb228d8fd5a1f859737513d4516ed883954f8460001b610345565b80610e8a576040517f08c379a0000000000000000000000000000000000000000000000000000000008152600401610e819061224e565b60405180910390fd5b610eb67f5cf8c47f861d8f70fa75c7ed0cee18f6b52136f80abef105fc154c458675a75c60001b610345565b5050610eea565b610ee97f7f902313b7594273b4319ebe3ae7683b76c455984f13711206f958e4fb6228ae60001b610345565b5b610f167faa4fc0fa95cd6ffcf700d3e226453a9ae73379c43f64f08cd03a4171a5fa97bf60001b610345565b610f427ffd16fee8f28b4dffe3b65ec3c3d4d284deacbdc9ffff9a16351e0ec269765c6460001b610345565b60008160040160026101000a81548160ff021916908315150217905550505050565b610f907feab182a68d57b01920f19fd4a1d82896cbcfaff0832ff16db88fe3c51a53cafe60001b610345565b610fbc7fe5a074a451433a287db7c63313965d189e3feea5fcf8bf18ceaa94bc316fb49060001b610345565b610fe87f3783b1bc3ddf644be6dc71cfb9cc1834289641d71c259fdf222409bfd6d862b760001b610345565b6000808281548110610ffd57610ffc612451565b5b906000526020600020906005020190506110397feb0d81ffe0d25c1d0e52f3e47f8aa9f8cd51e36b92dd7c63b585e7258ce9948960001b610345565b6110657f2905e336d213415543a6ea8e269a2339c4069cd22b8156e679ffdca9f692fc2860001b610345565b6110917fda1896118d1a95584400ad5148faf028e6f2e9e95704487e8ce97ee3c593490560001b610345565b3373ffffffffffffffffffffffffffffffffffffffff168160040160049054906101000a900473ffffffffffffffffffffffffffffffffffffffff1673ffffffffffffffffffffffffffffffffffffffff1614611123576040517f08c379a000000000000000000000000000000000000000000000000000000000815260040161111a906121ee565b60405180910390fd5b61114f7fff7cf4d6453bfd0864dffe7a6d1c9fa84b3729d0c650384f099254b391f08fae60001b610345565b61117b7f5114a44e34a89f94348edd4236ec2d77b74d9b64e2c35e162b457c24224735e560001b610345565b6111a77fe17533cabb69038ea92258473ed44c46af8f5a31dd1e22edb4123e676b972c5960001b610345565b60018160040160036101000a81548160ff0219169083151502179055505050565b6111f47f892e0a0a61b4a7cb884f496aa2cfe58e9baa805f7056798ccd3b50d8f9f47b4560001b610345565b6112207f29ec312e78e39c8b07da311293791bb0ad1b19fbba4de241d7747575b6bb81ba60001b610345565b61124c7f0ae1e74daa4a3a8bdf3c42c332b0a42ce8b61607e42468a6ad92afedff2eb21160001b610345565b600080828154811061126157611260612451565b5b9060005260206000209060050201905061129d7f19b993aa21125a9378dd04a547c69fc5b4715f50938d31f67dba767f452942ed60001b610345565b6112c97f4d2cd04ef3cb4d4877be228e9a243747bd783bf61bbcb4b5b5f592250525345260001b610345565b6112f57fba1b45697188a0aa586dab835db618482ae8d1f14389ba42574668eb7ad5d6d060001b610345565b8060040160009054906101000a900460ff161561131157600080fd5b61133d7f8c76c5aeaf0002824be03e096e3aa5616cffaf34bd82b2e8e2b381167132fefa60001b610345565b6113697fc4281a831cd1c86d3bb7df1a21b086640948aa6157a9ef205b2bfd0a42890b5860001b610345565b6113957f58449205f715bc18cdfb48c83c265de86ac3887bc29150097cd7f2b282e7c68160001b610345565b60018160040160006101000a81548160ff0219169083151502179055506113de7fb4cd791812c2084ecd81bed323a47a199f2f4a59479f4c73dd6f36bc703f7a6760001b610345565b61140a7ffe0924f21934d936ea103bfd4a778c1987826f56186d86d4b1280dd9b7d15a9960001b610345565b6114367f356ffc0ce51d4ee882523c46a2908a9b3c5303ba9b202fa761d764a6faba58f760001b610345565b8060020154341461144657600080fd5b6114717e53c04a8e92faaf6ae4d437e06d85b82aeabaf8d48020f27e9a681f356addcb60001b610345565b61149d7f6cfb36909d2c4a7b05a344e7d8cb4f1a13eb4899ce1b7df3e0fd46817aeb26e760001b610345565b6114c97fdcc6c321bf749fab4724432a42f541a5d35f4c3ab2abccd2c5aa1baca0aff1c660001b610345565b3481600301819055506114fe7f3fc499f264ac2517f1beb390ff30fe742412de1d77e03323038b838d6e57b1f260001b610345565b61152a7f0b748b8e55e26aa7ab9fd1fdfb52faeb15b3bb7c8e6bc632c6bef13ab5745b2460001b610345565b338160040160046101000a81548173ffffffffffffffffffffffffffffffffffffffff021916908373ffffffffffffffffffffffffffffffffffffffff1602179055505050565b61159d7f17286b5dcabd3c0eef884345f549a4e12869bea8d49940124ce5d13b812cd88160001b610345565b6115c97fa05ca9851c514e246b4b953d60dccf894ef185a0a8f75b52733f9acb2d12534660001b610345565b6115f57f32fd0560ec9dafc549bf010e3330dbb877dfe15d43379f74f56827828d6c567560001b610345565b600080828154811061160a57611609612451565b5b906000526020600020906005020190506116467fc7997b4672816d5aeb38e59967ab1661665d0e72d95f0fa647a593909691802060001b610345565b6116727f08278fd28c98d79f0e524c672e936885668fbfceb58064c2d38e4e51d221de6660001b610345565b61169e7f261ab695f431dde74948579d07a9b2bfccb4075672004cb027551e2c180046c160001b610345565b8060040160009054906101000a900460ff166116ef576040517f08c379a00000000000000000000000000000000000000000000000000000000081526004016116e69061220e565b60405180910390fd5b61171b7fb508ed196f0aecb63136702a618103dee78b08150ab1d580e789c1a9c4cf6a8660001b610345565b6117477fc92f6d62cc60bde47e4085c83da634d7422ab68e29c2dd2e0ed838c330aa847160001b610345565b6117737f2c943bd121ad183d34b21a66c566e1bb97e8ea161254e7da9a42bb3ef4d45fe360001b610345565b61179f7f3682cd329b318fd84469767947e8333ba655b69f18c505428a1e79bbe5ee555460001b610345565b8060040160039054906101000a900460ff166117f0576040517f08c379a00000000000000000000000000000000000000000000000000000000081526004016117e79061222e565b60405180910390fd5b61181c7f6d21a28333007db64af6a5b822e6e524f99caa2d959754f6ddac65e50864b71d60001b610345565b6118487fb11dd04afda0de54ca6db6cfe618cecc9284a256b9f576b8d9f98f1a8ec7f7ab60001b610345565b6118747fbfd8f4d529df64874057bcefeec02ea1ac496a7895812067adbb1c4d33497ae860001b610345565b6118a07f4393cfa4fdb1a84758aec21a96d341836113abd8a9fe3ec7d3e4b3008aa2928460001b610345565b8060040160029054906101000a900460ff16156118f2576040517f08c379a00000000000000000000000000000000000000000000000000000000081526004016118e99061226e565b60405180910390fd5b61191e7f0130eddf696ac80c67e356cc1f3405dd254d88ab89103c04e17c8128ae69651e60001b610345565b61194a7fadcf34cf6bfef697de741e79f46200b7750c2b1a98516c249c7c8200626ed3a360001b610345565b6119767f5d09c9739b0ef8025ddd6659a95e4befc9a30dffdf461303c8561b193353061c60001b610345565b6119a27f884442e9e5765f379429adc53e4cc857d811e649cc966d8603970feaa8f5b7dc60001b610345565b8060000160009054906101000a900473ffffffffffffffffffffffffffffffffffffffff1673ffffffffffffffffffffffffffffffffffffffff163373ffffffffffffffffffffffffffffffffffffffff1614611a34576040517f08c379a0000000000000000000000000000000000000000000000000000000008152600401611a2b906121ae565b60405180910390fd5b611a607f8fcb539fc247a8a95eb5c7b1296087797b6d049362da0a6f37c573d289612a8f60001b610345565b611a8c7fe3722576e8ef48e15d66dd6da1949f4939ece48657d73633325f30bd3ba901f160001b610345565b611ab87fa8a63a98c33ef6be45bc51bb2b7da0ee9d53257e5935efed1c7fc13cc1252ba060001b610345565b600081600301549050611aed7f9c69ff93241226e47020989ecd52cc36776fe184b0c01f002c3d0ade31c9195860001b610345565b611b197f74de0fe26716e389965a7340f8b15ea52035768955ebe42b398023dee99bbed760001b610345565b60008260030181905550611b4f7ff19e7491afbc20b5d771c32668f2740164aba8f0f137f851bdd91d358921a07a60001b610345565b611b7b7f572713fb95a165ff75268ccb980b707db6bc26c1b39e3f7d557ce786ec79f76d60001b610345565b60008260000160009054906101000a900473ffffffffffffffffffffffffffffffffffffffff1673ffffffffffffffffffffffffffffffffffffffff1682604051611bc5906120ea565b60006040518083038185875af1925050503d8060008114611c02576040519150601f19603f3d011682016040523d82523d6000602084013e611c07565b606091505b50509050611c377fbc9a16e783da76a87a86b6533215210e63d702c1533367985e01708f47d5553260001b610345565b611c637f672beb40ad2bcf1757c8002861daefbd9469623e5b0b298de1b1e5bd21670ea660001b610345565b611c8f7f938f90a3f2440fe02a3082dd9c7944ad3660b3941b31e3141c8656709c18208c60001b610345565b80611ccf576040517f08c379a0000000000000000000000000000000000000000000000000000000008152600401611cc69061224e565b60405180910390fd5b611cfb7fc94993df632f04d8bb6066123c0accc6b45284f64ac77d72049afe6e390e756e60001b610345565b50505050565b828054611d0d906123bf565b90600052602060002090601f016020900481019282611d2f5760008555611d76565b82601f10611d4857805160ff1916838001178555611d76565b82800160010185558215611d76579182015b82811115611d75578251825591602001919060010190611d5a565b5b509050611d839190611d87565b5090565b5b80821115611da0576000816000905550600101611d88565b5090565b6000611db7611db2846122d3565b6122ae565b905082815260208101848484011115611dd357611dd26124b4565b5b611dde84828561237d565b509392505050565b600081359050611df58161266b565b92915050565b600081359050611e0a81612682565b92915050565b600082601f830112611e2557611e246124af565b5b8135611e35848260208601611da4565b91505092915050565b600081359050611e4d81612699565b92915050565b600060208284031215611e6957611e686124be565b5b6000611e7784828501611dfb565b91505092915050565b60008060408385031215611e9757611e966124be565b5b600083013567ffffffffffffffff811115611eb557611eb46124b9565b5b611ec185828601611e10565b9250506020611ed285828601611e3e565b9150509250929050565b600060208284031215611ef257611ef16124be565b5b6000611f0084828501611e3e565b91505092915050565b60008060408385031215611f2057611f1f6124be565b5b6000611f2e85828601611e3e565b9250506020611f3f85828601611de6565b9150509250929050565b611f528161232b565b82525050565b611f618161233d565b82525050565b6000611f7282612304565b611f7c818561231a565b9350611f8c81856020860161238c565b611f95816124c3565b840191505092915050565b6000611fad601f8361231a565b9150611fb8826124d4565b602082019050919050565b6000611fd0601e8361231a565b9150611fdb826124fd565b602082019050919050565b6000611ff360188361231a565b9150611ffe82612526565b602082019050919050565b6000612016601d8361231a565b91506120218261254f565b602082019050919050565b600061203960298361231a565b915061204482612578565b604082019050919050565b600061205c60008361230f565b9150612067826125c7565b600082019050919050565b600061207f60108361231a565b915061208a826125ca565b602082019050919050565b60006120a2603d8361231a565b91506120ad826125f3565b604082019050919050565b60006120c5601e8361231a565b91506120d082612642565b602082019050919050565b6120e481612373565b82525050565b60006120f58261204f565b9150819050919050565b600061012082019050612115600083018c611f49565b8181036020830152612127818b611f67565b9050612136604083018a6120db565b61214360608301896120db565b6121506080830188611f58565b61215d60a0830187611f58565b61216a60c0830186611f58565b61217760e0830185611f58565b612185610100830184611f49565b9a9950505050505050505050565b60006020820190506121a86000830184611f58565b92915050565b600060208201905081810360008301526121c781611fa0565b9050919050565b600060208201905081810360008301526121e781611fc3565b9050919050565b6000602082019050818103600083015261220781611fe6565b9050919050565b6000602082019050818103600083015261222781612009565b9050919050565b600060208201905081810360008301526122478161202c565b9050919050565b6000602082019050818103600083015261226781612072565b9050919050565b6000602082019050818103600083015261228781612095565b9050919050565b600060208201905081810360008301526122a7816120b8565b9050919050565b60006122b86122c9565b90506122c482826123f1565b919050565b6000604051905090565b600067ffffffffffffffff8211156122ee576122ed612480565b5b6122f7826124c3565b9050602081019050919050565b600081519050919050565b600081905092915050565b600082825260208201905092915050565b600061233682612353565b9050919050565b60008115159050919050565b6000819050919050565b600073ffffffffffffffffffffffffffffffffffffffff82169050919050565b6000819050919050565b82818337600083830152505050565b60005b838110156123aa57808201518184015260208101905061238f565b838111156123b9576000848401525b50505050565b600060028204905060018216806123d757607f821691505b602082108114156123eb576123ea612422565b5b50919050565b6123fa826124c3565b810181811067ffffffffffffffff8211171561241957612418612480565b5b80604052505050565b7f4e487b7100000000000000000000000000000000000000000000000000000000600052602260045260246000fd5b7f4e487b7100000000000000000000000000000000000000000000000000000000600052603260045260246000fd5b7f4e487b7100000000000000000000000000000000000000000000000000000000600052604160045260246000fd5b600080fd5b600080fd5b600080fd5b600080fd5b6000601f19601f8301169050919050565b7f4f6e6c79206f776e6572732063616e2077697468647261772066756e64732e00600082015250565b7f4f776e6572732063616e6e6f7420736574746c652064697370757465732e0000600082015250565b7f4f6e6c79206275796572732063616e20617070726f76652e0000000000000000600082015250565b7f4e6f626f64792070757263686173656420746865206974656d20796574000000600082015250565b7f54686520627579657220646964206e6f7420617070726f76652074686520747260008201527f616e73616374696f6e0000000000000000000000000000000000000000000000602082015250565b50565b7f5472616e73666572206661696c65642e00000000000000000000000000000000600082015250565b7f546865207472616e73616374696f6e206973206265696e67206469737075746560008201527f642c20706c65617365207761697420666f72207265736f6c7574696f6e000000602082015250565b7f4275796572732063616e6e6f7420736574746c652064697370757465732e0000600082015250565b6126748161233d565b811461267f57600080fd5b50565b61268b81612349565b811461269657600080fd5b50565b6126a281612373565b81146126ad57600080fd5b5056fea2646970667358221220003fc222c43e029da830926ee58e18cf5148553b3509d4656bcb4b11a30048be64736f6c63430008070033",
  "linkReferences": {},
  "deployedLinkReferences": {}
}