{
  "contracts/SellGoodsErc20.sol": {
    "GoodsExchangeErc20": {
      "abi": [
        {
          "inputs": [
            {
              "internalType": "uint256",
              "name": "itemIndex",
              "type": "uint256"
            }
          ],
          "name": "approvePurchase",
          "outputs": [],
          "stateMutability": "nonpayable",
          "type": "function"
        },
        {
          "inputs": [
            {
              "internalType": "address",
              "name": "",
              "type": "address"
            }
          ],
          "name": "balances",
          "outputs": [
            {
              "internalType": "uint256",
              "name": "",
              "type": "uint256"
            }
          ],
          "stateMutability": "view",
          "type": "function"
        },
        {
          "inputs": [
            {
              "internalType": "bytes32",
              "name": "c__0xbef6b2c4",
              "type": "bytes32"
            }
          ],
          "name": "c_0xbef6b2c4",
          "outputs": [],
          "stateMutability": "pure",
          "type": "function"
        },
        {
          "inputs": [
            {
              "internalType": "uint256",
              "name": "itemIndex",
              "type": "uint256"
            }
          ],
          "name": "disputePurchase",
          "outputs": [],
          "stateMutability": "nonpayable",
          "type": "function"
        },
        {
          "inputs": [
            {
              "internalType": "address",
              "name": "_token",
              "type": "address"
            }
          ],
          "name": "getBalanceOf",
          "outputs": [
            {
              "internalType": "uint256",
              "name": "",
              "type": "uint256"
            }
          ],
          "stateMutability": "view",
          "type": "function"
        },
        {
          "inputs": [
            {
              "internalType": "address",
              "name": "_token",
              "type": "address"
            }
          ],
          "name": "getContractBalanceOf",
          "outputs": [
            {
              "internalType": "uint256",
              "name": "",
              "type": "uint256"
            }
          ],
          "stateMutability": "view",
          "type": "function"
        },
        {
          "inputs": [
            {
              "internalType": "uint256",
              "name": "",
              "type": "uint256"
            }
          ],
          "name": "openItems",
          "outputs": [
            {
              "internalType": "address",
              "name": "owner",
              "type": "address"
            },
            {
              "internalType": "string",
              "name": "description",
              "type": "string"
            },
            {
              "internalType": "uint256",
              "name": "value",
              "type": "uint256"
            },
            {
              "internalType": "uint256",
              "name": "balance",
              "type": "uint256"
            },
            {
              "internalType": "bool",
              "name": "purchased",
              "type": "bool"
            },
            {
              "internalType": "address",
              "name": "currency",
              "type": "address"
            },
            {
              "internalType": "bool",
              "name": "completed",
              "type": "bool"
            },
            {
              "internalType": "bool",
              "name": "disputed",
              "type": "bool"
            },
            {
              "internalType": "bool",
              "name": "approved",
              "type": "bool"
            },
            {
              "internalType": "address",
              "name": "buyer",
              "type": "address"
            }
          ],
          "stateMutability": "view",
          "type": "function"
        },
        {
          "inputs": [
            {
              "internalType": "uint256",
              "name": "amount",
              "type": "uint256"
            },
            {
              "internalType": "uint256",
              "name": "itemIndex",
              "type": "uint256"
            }
          ],
          "name": "purchaseItem",
          "outputs": [
            {
              "internalType": "bool",
              "name": "",
              "type": "bool"
            }
          ],
          "stateMutability": "nonpayable",
          "type": "function"
        },
        {
          "inputs": [
            {
              "internalType": "string",
              "name": "description",
              "type": "string"
            },
            {
              "internalType": "uint256",
              "name": "value",
              "type": "uint256"
            },
            {
              "internalType": "address",
              "name": "token",
              "type": "address"
            }
          ],
          "name": "sellItem",
          "outputs": [
            {
              "internalType": "bool",
              "name": "",
              "type": "bool"
            }
          ],
          "stateMutability": "nonpayable",
          "type": "function"
        },
        {
          "inputs": [
            {
              "internalType": "uint256",
              "name": "itemIndex",
              "type": "uint256"
            },
            {
              "internalType": "bool",
              "name": "purchaseReverted",
              "type": "bool"
            }
          ],
          "name": "settleDispute",
          "outputs": [],
          "stateMutability": "nonpayable",
          "type": "function"
        },
        {
          "inputs": [
            {
              "internalType": "uint256",
              "name": "itemIndex",
              "type": "uint256"
            }
          ],
          "name": "withdrawMoneyFromContract",
          "outputs": [],
          "stateMutability": "nonpayable",
          "type": "function"
        }
      ],
      "evm": {
        "bytecode": {
          "linkReferences": {},
          "object": "608060405234801561001057600080fd5b50612d12806100206000396000f3fe608060405234801561001057600080fd5b50600436106100a95760003560e01c80639230543511610071578063923054351461017f5780639b96eece1461019b578063ae8ef20a146101cb578063b37b53f7146101fb578063e067569814610217578063fdff051d14610247576100a9565b806318c0184f146100ae57806326a03d84146100e757806327e235e31461011757806357ca958c1461014757806367356a0614610163575b600080fd5b6100c860048036038101906100c3919061240c565b610263565b6040516100de9a99989796959493929190612693565b60405180910390f35b61010160048036038101906100fc9190612316565b6103e3565b60405161010e919061285a565b60405180910390f35b610131600480360381019061012c9190612316565b6104f9565b60405161013e919061285a565b60405180910390f35b610161600480360381019061015c9190612370565b610511565b005b61017d6004803603810190610178919061240c565b610514565b005b61019960048036038101906101949190612466565b610702565b005b6101b560048036038101906101b09190612316565b610d5a565b6040516101c2919061285a565b60405180910390f35b6101e560048036038101906101e0919061239d565b610e70565b6040516101f2919061275f565b60405180910390f35b6102156004803603810190610210919061240c565b611202565b005b610231600480360381019061022c91906124a6565b611467565b60405161023e919061275f565b60405180910390f35b610261600480360381019061025c919061240c565b611991565b005b6001818154811061027357600080fd5b90600052602060002090600602016000915090508060000160009054906101000a900473ffffffffffffffffffffffffffffffffffffffff16908060010180546102bc906129d1565b80601f01602080910402602001604051908101604052809291908181526020018280546102e8906129d1565b80156103355780601f1061030a57610100808354040283529160200191610335565b820191906000526020600020905b81548152906001019060200180831161031857829003601f168201915b5050505050908060020154908060030154908060040160009054906101000a900460ff16908060040160019054906101000a900473ffffffffffffffffffffffffffffffffffffffff16908060040160159054906101000a900460ff16908060040160169054906101000a900460ff16908060040160179054906101000a900460ff16908060050160009054906101000a900473ffffffffffffffffffffffffffffffffffffffff1690508a565b60006104117f4f56136af47d17604fa474591c34b819cd9cef3529522714838b3d328d28d1ae60001b610511565b61043d7fc6e372085f3b1601c930f55ce22a0ef9e7594f967fbdbc1a439d9af6db9abefd60001b610511565b6104697ffd4dd23ce34fe1d2f55afbdef7243eb0222b38a1f15061026bf2528c251dd1ea60001b610511565b8173ffffffffffffffffffffffffffffffffffffffff166370a08231306040518263ffffffff1660e01b81526004016104a29190612641565b60206040518083038186803b1580156104ba57600080fd5b505afa1580156104ce573d6000803e3d6000fd5b505050506040513d601f19601f820116820180604052508101906104f29190612439565b9050919050565b60006020528060005260406000206000915090505481565b50565b6105407fa390ab68df949c65a97d18ee2c35c237ab4b9919a5b07ec0ded156443b7ed19760001b610511565b61056c7f88e6919979b9928aec84b74cd739d499a0c15143256124812323d35a033385f960001b610511565b6105987f5ac4307e0a43e609cd5db0940c63cbfaff0d6c70e60d4bcef6cfe9b4943a52d560001b610511565b6000600182815481106105ae576105ad612a92565b5b906000526020600020906006020190506105ea7f873177596c2947f1a990eac5f8a0be58d22f2b88910bcf0b82f9b7f5fdf13a3f60001b610511565b6106167f1beff1562dfb74f8f0e1589f45075ed864d2c8729174f7ac2207029f4d17dfd960001b610511565b6106427f9d16f22e757ffd319964794cca4a919029d15aa33704222170ac5fc3e0bba40860001b610511565b8060040160009054906101000a900460ff1661065d57600080fd5b6106897ff8ab0420d082d7b3769c82a13f1152082683a64d5082feb3bf3121c27e71232e60001b610511565b6106b57f12e36912ab63e58776f853eb43962c447077a564174e352f8593686bd7deb90760001b610511565b6106e17f5a4bfb493452fc19e27442c54a4b0839d45fee046b573d446aae45aafc8707d260001b610511565b60018160040160166101000a81548160ff0219169083151502179055505050565b61072e7fb77171172505f86723ea61527e366bf6bfcb068ff1f21236ebf7826797ea260a60001b610511565b61075a7f0a032c73a9b0123c476a1581e597de8839bd26a45e093aa82c80b2d4c9e15f1160001b610511565b6107867ffc67aa4375fef7c2a6f6c99df87f211ac46368bd79aad0af73ec9a00c3d8375260001b610511565b60006001838154811061079c5761079b612a92565b5b906000526020600020906006020190506107d87f66eb2610e0862a478cde2065f3eeeeb43e2b007bac2c6cd629271d5e4185615e60001b610511565b6108047f3b1ff3bb6b80f4b7c1278b8c0c4411eb0ce8bc2352639ccb013fa4fdf85b19c860001b610511565b6108307fdd62af0fa0ec38f0f8bc51c3cbe1a14e4c435251718413f4717b6e4fd88e38d560001b610511565b8060000160009054906101000a900473ffffffffffffffffffffffffffffffffffffffff1673ffffffffffffffffffffffffffffffffffffffff163373ffffffffffffffffffffffffffffffffffffffff1614156108c3576040517f08c379a00000000000000000000000000000000000000000000000000000000081526004016108ba9061279a565b60405180910390fd5b6108ef7f75a7c475e3bf793a507005dfba0787b3ed8c7524bdaf32f59fd48f64e64a589360001b610511565b61091b7fd1e564e503be0d3784adf89d25ee125e70ccd82a33d574d4f30363b241bd7ab460001b610511565b6109477f93330b3d1f28fb93ccfb1fabb8fb8bddc2656f98cb2cd83b2588aada40fe5ccb60001b610511565b6109737f5bb2c998db5548e84762595281930182775d253bbc9d74b13d17160ec653436a60001b610511565b8060050160009054906101000a900473ffffffffffffffffffffffffffffffffffffffff1673ffffffffffffffffffffffffffffffffffffffff163373ffffffffffffffffffffffffffffffffffffffff161415610a06576040517f08c379a00000000000000000000000000000000000000000000000000000000081526004016109fd9061283a565b60405180910390fd5b610a327f49d766550e9234439f89a663e91d2278e24f9737e2742d65155149bb08d4984260001b610511565b610a5e7f44cdb4f38fd2414d69b1d5a32edbc1b6c52be4a8e7d59f92e9b9aad38f695d5c60001b610511565b610a8a7f5b74786a7552fb8ee18d90f3747ea246b8c04060f561fb5fc2195681dff4767f60001b610511565b8115610cb357610abc7fec09fae4661fdcc273bc4f653809f3d282fd833db15dd52691c886ba1756ab0b60001b610511565b610ae87f0eb8d005cc4424739e89f453a5817d6d843fb4a15563cfa457aaa6abb50793b960001b610511565b610b147f569fbaefa5b3088197c438d194f53cd6cb0b4f6eed6626f26ca6276cd53ac22060001b610511565b600081600301549050610b497f0ecb44c7b58f983c656c72eb892556ee4e2e7af0a9392743c44a63b17383b7bd60001b610511565b610b757f839c8e9b557e2aa75f94a13f01cc1b101c55b1f1b4c0ac75a2a4bac44206823c60001b610511565b60008260030181905550610bab7f264a5b937bcbbfba0804a9f5518cec9aa91f6e3527ac4f4d0b5de366a3ef260c60001b610511565b610bd77fcde2c7e2a085dd623273861c444e698ff9e2db7ec480e5680c2e11207be3d4a660001b610511565b8160040160019054906101000a900473ffffffffffffffffffffffffffffffffffffffff1673ffffffffffffffffffffffffffffffffffffffff1663a9059cbb8360050160009054906101000a900473ffffffffffffffffffffffffffffffffffffffff16836040518363ffffffff1660e01b8152600401610c5a929190612736565b602060405180830381600087803b158015610c7457600080fd5b505af1158015610c88573d6000803e3d6000fd5b505050506040513d601f19601f82011682018060405250810190610cac9190612343565b5050610ce0565b610cdf7ffb37ae5f0dc3cc0fdd5d4f04ea98f35d98827099d000cd68b9d4196356d44c0760001b610511565b5b610d0c7f11fb55838d806143c6fec0cb16fcab5692779826133a8befa0fa6f0e3855c43460001b610511565b610d387f3eb1a5482fdb6533343b68698915d69e9cba55fc9230f0e0a2a26ac2a201541960001b610511565b60008160040160166101000a81548160ff021916908315150217905550505050565b6000610d887f014d757851d5ccc1ddc3a89e090e75bdf2191662c2b67de5283085fdc19aac3f60001b610511565b610db47f5e6aa10c76e8b915117db46d661cf0293a90d0ecd292a96507f5fedaab7a0cbf60001b610511565b610de07fc9c02bc68fbfd7f6222926321034c67f027c20fb1ea5d1e501bb48e1ddf68e4360001b610511565b8173ffffffffffffffffffffffffffffffffffffffff166370a08231336040518263ffffffff1660e01b8152600401610e199190612641565b60206040518083038186803b158015610e3157600080fd5b505afa158015610e45573d6000803e3d6000fd5b505050506040513d601f19601f82011682018060405250810190610e699190612439565b9050919050565b6000610e9e7fc5c17474dd6559fc067fbb97d2717b0ce23374bd4f680f5e0c5bb4442a1baa1e60001b610511565b610eca7f3ddbc2da04541ff839f08e2a7797bb22cb7eb6d068b31f5831b9ff67d1b68f6a60001b610511565b610ef67f5b2d941b9425d47c85289c254edf2d52fcf6eeeab3d119ad938371d4cf4f2ed660001b610511565b60006040518061014001604052803373ffffffffffffffffffffffffffffffffffffffff168152602001868152602001858152602001600081526020016000151581526020018473ffffffffffffffffffffffffffffffffffffffff168152602001600015158152602001600015158152602001600015158152602001600073ffffffffffffffffffffffffffffffffffffffff168152509050610fbc7f213932f611b9f714715ffe7effba463d9d283c2e7568d4baa2febb9ce0efef0160001b610511565b610fe87fe54df0f03c256031031b57cc8db91275ddedd2fa50ebfa81d98384f770d9e4c460001b610511565b600181908060018154018082558091505060019003906000526020600020906006020160009091909190915060008201518160000160006101000a81548173ffffffffffffffffffffffffffffffffffffffff021916908373ffffffffffffffffffffffffffffffffffffffff1602179055506020820151816001019080519060200190611077929190612185565b50604082015181600201556060820151816003015560808201518160040160006101000a81548160ff02191690831515021790555060a08201518160040160016101000a81548173ffffffffffffffffffffffffffffffffffffffff021916908373ffffffffffffffffffffffffffffffffffffffff16021790555060c08201518160040160156101000a81548160ff02191690831515021790555060e08201518160040160166101000a81548160ff0219169083151502179055506101008201518160040160176101000a81548160ff0219169083151502179055506101208201518160050160006101000a81548173ffffffffffffffffffffffffffffffffffffffff021916908373ffffffffffffffffffffffffffffffffffffffff16021790555050506111ca7f7a4cff855a4e8da11a7ef23574d7418cde7fc621fcc5571051876c473240628260001b610511565b6111f67f2670466ad2274f1e083ce928e38f32f3d7b6ecd61dda87a97b862680d95cda0360001b610511565b60019150509392505050565b61122e7f6154e127b3eae23259c5890ffea0c27474ca1dfcf62936e8efed551f97f4e6eb60001b610511565b61125a7f715518f79482c0d06de69f56d03dd3660a5bf67f70a1da1663b777100745445660001b610511565b6112867fceac1e6715c89a04993479c14a8079a172fdfd7abd4743124bae6432ce765d2c60001b610511565b60006001828154811061129c5761129b612a92565b5b906000526020600020906006020190506112d87f8db8beb488b4199503619a6af8448c07744a034e20c447bcdc92f527da4e262d60001b610511565b6113047f32e184c4fe5a98c8c6104179ce7c08d8e7d5b864d22d44c1181158813e37313c60001b610511565b6113307f5eb9b8b27a4940b98c9837c8b6e880accd4047f5e8e21d5033406fbe2774af2460001b610511565b3373ffffffffffffffffffffffffffffffffffffffff168160050160009054906101000a900473ffffffffffffffffffffffffffffffffffffffff1673ffffffffffffffffffffffffffffffffffffffff16146113c2576040517f08c379a00000000000000000000000000000000000000000000000000000000081526004016113b9906127ba565b60405180910390fd5b6113ee7f7bba7c0b546fe8e1da91dd50f6c811a7b3eb506bd027086eec7658365892570360001b610511565b61141a7fc0b2d87fc91b7ab7e38e9d9ef5cf8c3abfc9174acbcd6c655c0546d6cb11e51060001b610511565b6114467f2283929235389a2b6a9950ee255f5572522deaaa50ec460122c2546cb8bbded160001b610511565b60018160040160176101000a81548160ff0219169083151502179055505050565b60006114957fc2a386ff54b375a7ee9c972a7fed8251f5bae31988977c1154053a062af13c4360001b610511565b6114c17fb9702f0b1cc565a9efe4f488e15d6624aa3517e8516c818235f66098883b8e6f60001b610511565b6114ed7f08b826299240e30cf63d2018c638437d5ad6fd62fb4103e6003109361a99d83360001b610511565b60006001838154811061150357611502612a92565b5b9060005260206000209060060201905061153f7feb1945cecc131fd98385d84fdfafab50a82d8a251808ec6795e991357ca3e90060001b610511565b61156b7f8030d6f3bbf459c4f6de8a876443298819087320ffaf715cf08b127531c2239e60001b610511565b6115977f09d3dc094cea68b09cb3943c507e0aa3bc836e5714cec21ba6c7353f92c6804e60001b610511565b8060040160009054906101000a900460ff16156115b357600080fd5b6115df7fac27daa4328d8a086c991f6da5061caef64f74676c19be96c8fd38537f3959a360001b610511565b61160b7f354b17104f3169636c693d575914291821d3ad11b8dc73f32f264816181f588c60001b610511565b6116377fd4ab2ce5dc37aed4e19423c6413169568bc7b0bf91312aa43c2384f843b3688b60001b610511565b60018160040160006101000a81548160ff0219169083151502179055506116807f5983e7dc452615f33f03d9c80a04a7c313b2f5c0bce5ef7daf16afb71dd0ddca60001b610511565b6116ac7fcafb10fcc4b943096abceca3e162cb3e0e81a94e0aa2eba6bbfaaa840eee92b960001b610511565b6116d87f719e0430a7434129ccbdcce074c6be9d512a6c3c084f35a054bc9ddd61c0700860001b610511565b806002015484146116e857600080fd5b6117147f928f3af1d2d49e1a9f04fb2ccaae2f5f7f0acbaaa9062beba6425a21de82dfe660001b610511565b6117407f44ffa3f073e2f0a4820385da12a92d40e181e264d88146543b1bc4fe610a072e60001b610511565b61176c7fc918602a03e330be121ddab759a456b6fc1fe45066df44b8daecee636f416ae960001b610511565b8381600301600082825461178091906128e7565b925050819055506117b37fee555c50e50bb1726b8758396f91862e40b4cf3d1ca14b41bc5b81cb9eae598a60001b610511565b6117df7f2c1cc4763d4d6728a126e84c8a3100487a77c87ac5ddf5ff9f086596bedb711860001b610511565b8060040160019054906101000a900473ffffffffffffffffffffffffffffffffffffffff1673ffffffffffffffffffffffffffffffffffffffff166323b872dd3330876040518463ffffffff1660e01b81526004016118409392919061265c565b602060405180830381600087803b15801561185a57600080fd5b505af115801561186e573d6000803e3d6000fd5b505050506040513d601f19601f820116820180604052508101906118929190612343565b506118bf7fa2cee40ca1197e1ed91efa10df0ff4c2d6562d75b8123c54207191141832efa360001b610511565b6118eb7f52b6ee9c142330238ed2b93d43c4a4f5beed22d950f632fe2fa5f350e20e8a0c60001b610511565b338160050160006101000a81548173ffffffffffffffffffffffffffffffffffffffff021916908373ffffffffffffffffffffffffffffffffffffffff16021790555061195a7ff3b560432e3e12b446fc964d814385f7ef445ad819f7fec6dfdee8155f633e6e60001b610511565b6119867f5442bea07c7a594137330816384d837cac64e7fe4253eeb9e5c549e51c2234c760001b610511565b600191505092915050565b6119bd7f48d459d0ebf8e97c8c9d8317a626bed6747939569f6883416aae8e24223e838f60001b610511565b6119e97f197c6a9f8ad6cb3a03622fb79f3243927a525becc177e54f1bc1f70d7d240f5d60001b610511565b611a157fb0dc7490c6da735de3c58ec62129adb29def29120c645588afad9aef49ff385f60001b610511565b600060018281548110611a2b57611a2a612a92565b5b90600052602060002090600602019050611a677f6ebf210503de4097daabaec9bbfa61abd5e8dc79b669c2425bbea00446c5a8e160001b610511565b611a937f2c4418161f45b0e5c7fa2923eea1c03fc42b2b32059b010157afbc49d3f4dea560001b610511565b611abf7f92d4efee5b439f6a72d4b1b26c921a2447a0566ca2a5076e1e2c24d49d14bf7160001b610511565b8060040160009054906101000a900460ff16611b10576040517f08c379a0000000000000000000000000000000000000000000000000000000008152600401611b07906127da565b60405180910390fd5b611b3c7f911962539017cf5d712f9da1e1d0e6b66a3da605c0438929b0978cfb6190906260001b610511565b611b687fd5b45ef8558007c9c0f7652e6a756dad025f6fe86adef6c7117af943d5363d3360001b610511565b611b947f49b4adc99a55f410ed10446b5ee986a07ed074e467d4ee73cf6c6e5616e065e960001b610511565b611bc07ffaf9233f2896f999b0965e2ab48d2887c72014895121315c6bf3dd07eb63dcbb60001b610511565b8060040160179054906101000a900460ff16611c11576040517f08c379a0000000000000000000000000000000000000000000000000000000008152600401611c08906127fa565b60405180910390fd5b611c3d7f551a32a844a25b46052d423074548af0eec3aabd5249f1fe442123f281ab6e5860001b610511565b611c697fb2517af62bb5202602e2756678b45a98a7551de2a96c79a432229024b43c9a3b60001b610511565b611c957f2ea33648dcfa0e550a9d125fa69fad796a8ac6b00d319d8dda90deabf68f3c5660001b610511565b611cc17ff84b7e38c7c479ac65d3b0154fc1e50ed0b58cf035c7a97c5b6259e7e5aa214660001b610511565b8060040160169054906101000a900460ff1615611d13576040517f08c379a0000000000000000000000000000000000000000000000000000000008152600401611d0a9061281a565b60405180910390fd5b611d3f7fae9426a095d25bbb45db00cf07339c91b6675c12c21d564424c8e20e427a523060001b610511565b611d6b7f03c22218222c56f719a019fb449e46595b8ebc67f7fe590d0db0ff3f91de986e60001b610511565b611d977f9fca54982efa1a6e66fcf61f4c2c57da0f7e6044700a6c7c8d94883a56aadd9a60001b610511565b611dc37f7bf0d5aa51dc9b62dc9faa01008c07a8b35430f654fdcc7dbf5222c52fdf436d60001b610511565b8060000160009054906101000a900473ffffffffffffffffffffffffffffffffffffffff1673ffffffffffffffffffffffffffffffffffffffff163373ffffffffffffffffffffffffffffffffffffffff1614611e55576040517f08c379a0000000000000000000000000000000000000000000000000000000008152600401611e4c9061277a565b60405180910390fd5b611e817fb74f3f8ef39df21ed1d1796d8af816745023e54c45d1941a05ad69c38c88923460001b610511565b611ead7f6d96b70b5bfaa49669e928afbb5cd3da390d223d512def8410b729e7dc2526d260001b610511565b611ed97f33cf7ce42871ca27daf0412073588a85fbd33d9d1c393a17d36aca9c8a174d8960001b610511565b600081600301549050611f0e7f7c8063bf9dd5f5de208338726c9518a1896b4c9c524f6a93155076fedefe1a9660001b610511565b611f3a7f813a7a77866068536a7713778af912e31de0c371ce51c4db7202dd04be86cff360001b610511565b60008260030181905550611f707fcfbd7946fb763a73fc9e2a29b594587497b44eccc0b7489cbce94e08472706e460001b610511565b611f9c7f04a89c1cfc8051f014544096da49c89ef173dfee54dae38f9217b3c3ab792f3d60001b610511565b8160040160019054906101000a900473ffffffffffffffffffffffffffffffffffffffff1673ffffffffffffffffffffffffffffffffffffffff1663095ea7b33084600301546040518363ffffffff1660e01b8152600401611fff929190612736565b602060405180830381600087803b15801561201957600080fd5b505af115801561202d573d6000803e3d6000fd5b505050506040513d601f19601f820116820180604052508101906120519190612343565b5061207e7f34c24423421719de6d6278a3592f33a06675b13c97899a666bf5a7d2a5fa402860001b610511565b6120aa7f85265fb4419dc441e59f485553d3fb3144352601387a13941d409c02e7d343ab60001b610511565b8160040160019054906101000a900473ffffffffffffffffffffffffffffffffffffffff1673ffffffffffffffffffffffffffffffffffffffff1663a9059cbb8360000160009054906101000a900473ffffffffffffffffffffffffffffffffffffffff16836040518363ffffffff1660e01b815260040161212d929190612736565b602060405180830381600087803b15801561214757600080fd5b505af115801561215b573d6000803e3d6000fd5b505050506040513d601f19601f8201168201806040525081019061217f9190612343565b50505050565b828054612191906129d1565b90600052602060002090601f0160209004810192826121b357600085556121fa565b82601f106121cc57805160ff19168380011785556121fa565b828001600101855582156121fa579182015b828111156121f95782518255916020019190600101906121de565b5b509050612207919061220b565b5090565b5b8082111561222457600081600090555060010161220c565b5090565b600061223b6122368461289a565b612875565b90508281526020810184848401111561225757612256612af5565b5b61226284828561298f565b509392505050565b60008135905061227981612c80565b92915050565b60008135905061228e81612c97565b92915050565b6000815190506122a381612c97565b92915050565b6000813590506122b881612cae565b92915050565b600082601f8301126122d3576122d2612af0565b5b81356122e3848260208601612228565b91505092915050565b6000813590506122fb81612cc5565b92915050565b60008151905061231081612cc5565b92915050565b60006020828403121561232c5761232b612aff565b5b600061233a8482850161226a565b91505092915050565b60006020828403121561235957612358612aff565b5b600061236784828501612294565b91505092915050565b60006020828403121561238657612385612aff565b5b6000612394848285016122a9565b91505092915050565b6000806000606084860312156123b6576123b5612aff565b5b600084013567ffffffffffffffff8111156123d4576123d3612afa565b5b6123e0868287016122be565b93505060206123f1868287016122ec565b92505060406124028682870161226a565b9150509250925092565b60006020828403121561242257612421612aff565b5b6000612430848285016122ec565b91505092915050565b60006020828403121561244f5761244e612aff565b5b600061245d84828501612301565b91505092915050565b6000806040838503121561247d5761247c612aff565b5b600061248b858286016122ec565b925050602061249c8582860161227f565b9150509250929050565b600080604083850312156124bd576124bc612aff565b5b60006124cb858286016122ec565b92505060206124dc858286016122ec565b9150509250929050565b6124ef8161293d565b82525050565b6124fe8161294f565b82525050565b600061250f826128cb565b61251981856128d6565b935061252981856020860161299e565b61253281612b04565b840191505092915050565b600061254a601f836128d6565b915061255582612b15565b602082019050919050565b600061256d601e836128d6565b915061257882612b3e565b602082019050919050565b60006125906018836128d6565b915061259b82612b67565b602082019050919050565b60006125b3601d836128d6565b91506125be82612b90565b602082019050919050565b60006125d66029836128d6565b91506125e182612bb9565b604082019050919050565b60006125f9603d836128d6565b915061260482612c08565b604082019050919050565b600061261c601e836128d6565b915061262782612c57565b602082019050919050565b61263b81612985565b82525050565b600060208201905061265660008301846124e6565b92915050565b600060608201905061267160008301866124e6565b61267e60208301856124e6565b61268b6040830184612632565b949350505050565b6000610140820190506126a9600083018d6124e6565b81810360208301526126bb818c612504565b90506126ca604083018b612632565b6126d7606083018a612632565b6126e460808301896124f5565b6126f160a08301886124e6565b6126fe60c08301876124f5565b61270b60e08301866124f5565b6127196101008301856124f5565b6127276101208301846124e6565b9b9a5050505050505050505050565b600060408201905061274b60008301856124e6565b6127586020830184612632565b9392505050565b600060208201905061277460008301846124f5565b92915050565b600060208201905081810360008301526127938161253d565b9050919050565b600060208201905081810360008301526127b381612560565b9050919050565b600060208201905081810360008301526127d381612583565b9050919050565b600060208201905081810360008301526127f3816125a6565b9050919050565b60006020820190508181036000830152612813816125c9565b9050919050565b60006020820190508181036000830152612833816125ec565b9050919050565b600060208201905081810360008301526128538161260f565b9050919050565b600060208201905061286f6000830184612632565b92915050565b600061287f612890565b905061288b8282612a03565b919050565b6000604051905090565b600067ffffffffffffffff8211156128b5576128b4612ac1565b5b6128be82612b04565b9050602081019050919050565b600081519050919050565b600082825260208201905092915050565b60006128f282612985565b91506128fd83612985565b9250827fffffffffffffffffffffffffffffffffffffffffffffffffffffffffffffffff0382111561293257612931612a34565b5b828201905092915050565b600061294882612965565b9050919050565b60008115159050919050565b6000819050919050565b600073ffffffffffffffffffffffffffffffffffffffff82169050919050565b6000819050919050565b82818337600083830152505050565b60005b838110156129bc5780820151818401526020810190506129a1565b838111156129cb576000848401525b50505050565b600060028204905060018216806129e957607f821691505b602082108114156129fd576129fc612a63565b5b50919050565b612a0c82612b04565b810181811067ffffffffffffffff82111715612a2b57612a2a612ac1565b5b80604052505050565b7f4e487b7100000000000000000000000000000000000000000000000000000000600052601160045260246000fd5b7f4e487b7100000000000000000000000000000000000000000000000000000000600052602260045260246000fd5b7f4e487b7100000000000000000000000000000000000000000000000000000000600052603260045260246000fd5b7f4e487b7100000000000000000000000000000000000000000000000000000000600052604160045260246000fd5b600080fd5b600080fd5b600080fd5b600080fd5b6000601f19601f8301169050919050565b7f4f6e6c79206f776e6572732063616e2077697468647261772066756e64732e00600082015250565b7f4f776e6572732063616e6e6f7420736574746c652064697370757465732e0000600082015250565b7f4f6e6c79206275796572732063616e20617070726f76652e0000000000000000600082015250565b7f4e6f626f64792070757263686173656420746865206974656d20796574000000600082015250565b7f54686520627579657220646964206e6f7420617070726f76652074686520747260008201527f616e73616374696f6e0000000000000000000000000000000000000000000000602082015250565b7f546865207472616e73616374696f6e206973206265696e67206469737075746560008201527f642c20706c65617365207761697420666f72207265736f6c7574696f6e000000602082015250565b7f4275796572732063616e6e6f7420736574746c652064697370757465732e0000600082015250565b612c898161293d565b8114612c9457600080fd5b50565b612ca08161294f565b8114612cab57600080fd5b50565b612cb78161295b565b8114612cc257600080fd5b50565b612cce81612985565b8114612cd957600080fd5b5056fea264697066735822122011716f199e48a9db7036dc62c1f840a23573985bbc697a43ca48032ef44decc464736f6c63430008070033",
          "opcodes": "PUSH1 0x80 PUSH1 0x40 MSTORE CALLVALUE DUP1 ISZERO PUSH2 0x10 JUMPI PUSH1 0x0 DUP1 REVERT JUMPDEST POP PUSH2 0x2D12 DUP1 PUSH2 0x20 PUSH1 0x0 CODECOPY PUSH1 0x0 RETURN INVALID PUSH1 0x80 PUSH1 0x40 MSTORE CALLVALUE DUP1 ISZERO PUSH2 0x10 JUMPI PUSH1 0x0 DUP1 REVERT JUMPDEST POP PUSH1 0x4 CALLDATASIZE LT PUSH2 0xA9 JUMPI PUSH1 0x0 CALLDATALOAD PUSH1 0xE0 SHR DUP1 PUSH4 0x92305435 GT PUSH2 0x71 JUMPI DUP1 PUSH4 0x92305435 EQ PUSH2 0x17F JUMPI DUP1 PUSH4 0x9B96EECE EQ PUSH2 0x19B JUMPI DUP1 PUSH4 0xAE8EF20A EQ PUSH2 0x1CB JUMPI DUP1 PUSH4 0xB37B53F7 EQ PUSH2 0x1FB JUMPI DUP1 PUSH4 0xE0675698 EQ PUSH2 0x217 JUMPI DUP1 PUSH4 0xFDFF051D EQ PUSH2 0x247 JUMPI PUSH2 0xA9 JUMP JUMPDEST DUP1 PUSH4 0x18C0184F EQ PUSH2 0xAE JUMPI DUP1 PUSH4 0x26A03D84 EQ PUSH2 0xE7 JUMPI DUP1 PUSH4 0x27E235E3 EQ PUSH2 0x117 JUMPI DUP1 PUSH4 0x57CA958C EQ PUSH2 0x147 JUMPI DUP1 PUSH4 0x67356A06 EQ PUSH2 0x163 JUMPI JUMPDEST PUSH1 0x0 DUP1 REVERT JUMPDEST PUSH2 0xC8 PUSH1 0x4 DUP1 CALLDATASIZE SUB DUP2 ADD SWAP1 PUSH2 0xC3 SWAP2 SWAP1 PUSH2 0x240C JUMP JUMPDEST PUSH2 0x263 JUMP JUMPDEST PUSH1 0x40 MLOAD PUSH2 0xDE SWAP11 SWAP10 SWAP9 SWAP8 SWAP7 SWAP6 SWAP5 SWAP4 SWAP3 SWAP2 SWAP1 PUSH2 0x2693 JUMP JUMPDEST PUSH1 0x40 MLOAD DUP1 SWAP2 SUB SWAP1 RETURN JUMPDEST PUSH2 0x101 PUSH1 0x4 DUP1 CALLDATASIZE SUB DUP2 ADD SWAP1 PUSH2 0xFC SWAP2 SWAP1 PUSH2 0x2316 JUMP JUMPDEST PUSH2 0x3E3 JUMP JUMPDEST PUSH1 0x40 MLOAD PUSH2 0x10E SWAP2 SWAP1 PUSH2 0x285A JUMP JUMPDEST PUSH1 0x40 MLOAD DUP1 SWAP2 SUB SWAP1 RETURN JUMPDEST PUSH2 0x131 PUSH1 0x4 DUP1 CALLDATASIZE SUB DUP2 ADD SWAP1 PUSH2 0x12C SWAP2 SWAP1 PUSH2 0x2316 JUMP JUMPDEST PUSH2 0x4F9 JUMP JUMPDEST PUSH1 0x40 MLOAD PUSH2 0x13E SWAP2 SWAP1 PUSH2 0x285A JUMP JUMPDEST PUSH1 0x40 MLOAD DUP1 SWAP2 SUB SWAP1 RETURN JUMPDEST PUSH2 0x161 PUSH1 0x4 DUP1 CALLDATASIZE SUB DUP2 ADD SWAP1 PUSH2 0x15C SWAP2 SWAP1 PUSH2 0x2370 JUMP JUMPDEST PUSH2 0x511 JUMP JUMPDEST STOP JUMPDEST PUSH2 0x17D PUSH1 0x4 DUP1 CALLDATASIZE SUB DUP2 ADD SWAP1 PUSH2 0x178 SWAP2 SWAP1 PUSH2 0x240C JUMP JUMPDEST PUSH2 0x514 JUMP JUMPDEST STOP JUMPDEST PUSH2 0x199 PUSH1 0x4 DUP1 CALLDATASIZE SUB DUP2 ADD SWAP1 PUSH2 0x194 SWAP2 SWAP1 PUSH2 0x2466 JUMP JUMPDEST PUSH2 0x702 JUMP JUMPDEST STOP JUMPDEST PUSH2 0x1B5 PUSH1 0x4 DUP1 CALLDATASIZE SUB DUP2 ADD SWAP1 PUSH2 0x1B0 SWAP2 SWAP1 PUSH2 0x2316 JUMP JUMPDEST PUSH2 0xD5A JUMP JUMPDEST PUSH1 0x40 MLOAD PUSH2 0x1C2 SWAP2 SWAP1 PUSH2 0x285A JUMP JUMPDEST PUSH1 0x40 MLOAD DUP1 SWAP2 SUB SWAP1 RETURN JUMPDEST PUSH2 0x1E5 PUSH1 0x4 DUP1 CALLDATASIZE SUB DUP2 ADD SWAP1 PUSH2 0x1E0 SWAP2 SWAP1 PUSH2 0x239D JUMP JUMPDEST PUSH2 0xE70 JUMP JUMPDEST PUSH1 0x40 MLOAD PUSH2 0x1F2 SWAP2 SWAP1 PUSH2 0x275F JUMP JUMPDEST PUSH1 0x40 MLOAD DUP1 SWAP2 SUB SWAP1 RETURN JUMPDEST PUSH2 0x215 PUSH1 0x4 DUP1 CALLDATASIZE SUB DUP2 ADD SWAP1 PUSH2 0x210 SWAP2 SWAP1 PUSH2 0x240C JUMP JUMPDEST PUSH2 0x1202 JUMP JUMPDEST STOP JUMPDEST PUSH2 0x231 PUSH1 0x4 DUP1 CALLDATASIZE SUB DUP2 ADD SWAP1 PUSH2 0x22C SWAP2 SWAP1 PUSH2 0x24A6 JUMP JUMPDEST PUSH2 0x1467 JUMP JUMPDEST PUSH1 0x40 MLOAD PUSH2 0x23E SWAP2 SWAP1 PUSH2 0x275F JUMP JUMPDEST PUSH1 0x40 MLOAD DUP1 SWAP2 SUB SWAP1 RETURN JUMPDEST PUSH2 0x261 PUSH1 0x4 DUP1 CALLDATASIZE SUB DUP2 ADD SWAP1 PUSH2 0x25C SWAP2 SWAP1 PUSH2 0x240C JUMP JUMPDEST PUSH2 0x1991 JUMP JUMPDEST STOP JUMPDEST PUSH1 0x1 DUP2 DUP2 SLOAD DUP2 LT PUSH2 0x273 JUMPI PUSH1 0x0 DUP1 REVERT JUMPDEST SWAP1 PUSH1 0x0 MSTORE PUSH1 0x20 PUSH1 0x0 KECCAK256 SWAP1 PUSH1 0x6 MUL ADD PUSH1 0x0 SWAP2 POP SWAP1 POP DUP1 PUSH1 0x0 ADD PUSH1 0x0 SWAP1 SLOAD SWAP1 PUSH2 0x100 EXP SWAP1 DIV PUSH20 0xFFFFFFFFFFFFFFFFFFFFFFFFFFFFFFFFFFFFFFFF AND SWAP1 DUP1 PUSH1 0x1 ADD DUP1 SLOAD PUSH2 0x2BC SWAP1 PUSH2 0x29D1 JUMP JUMPDEST DUP1 PUSH1 0x1F ADD PUSH1 0x20 DUP1 SWAP2 DIV MUL PUSH1 0x20 ADD PUSH1 0x40 MLOAD SWAP1 DUP2 ADD PUSH1 0x40 MSTORE DUP1 SWAP3 SWAP2 SWAP1 DUP2 DUP2 MSTORE PUSH1 0x20 ADD DUP3 DUP1 SLOAD PUSH2 0x2E8 SWAP1 PUSH2 0x29D1 JUMP JUMPDEST DUP1 ISZERO PUSH2 0x335 JUMPI DUP1 PUSH1 0x1F LT PUSH2 0x30A JUMPI PUSH2 0x100 DUP1 DUP4 SLOAD DIV MUL DUP4 MSTORE SWAP2 PUSH1 0x20 ADD SWAP2 PUSH2 0x335 JUMP JUMPDEST DUP3 ADD SWAP2 SWAP1 PUSH1 0x0 MSTORE PUSH1 0x20 PUSH1 0x0 KECCAK256 SWAP1 JUMPDEST DUP2 SLOAD DUP2 MSTORE SWAP1 PUSH1 0x1 ADD SWAP1 PUSH1 0x20 ADD DUP1 DUP4 GT PUSH2 0x318 JUMPI DUP3 SWAP1 SUB PUSH1 0x1F AND DUP3 ADD SWAP2 JUMPDEST POP POP POP POP POP SWAP1 DUP1 PUSH1 0x2 ADD SLOAD SWAP1 DUP1 PUSH1 0x3 ADD SLOAD SWAP1 DUP1 PUSH1 0x4 ADD PUSH1 0x0 SWAP1 SLOAD SWAP1 PUSH2 0x100 EXP SWAP1 DIV PUSH1 0xFF AND SWAP1 DUP1 PUSH1 0x4 ADD PUSH1 0x1 SWAP1 SLOAD SWAP1 PUSH2 0x100 EXP SWAP1 DIV PUSH20 0xFFFFFFFFFFFFFFFFFFFFFFFFFFFFFFFFFFFFFFFF AND SWAP1 DUP1 PUSH1 0x4 ADD PUSH1 0x15 SWAP1 SLOAD SWAP1 PUSH2 0x100 EXP SWAP1 DIV PUSH1 0xFF AND SWAP1 DUP1 PUSH1 0x4 ADD PUSH1 0x16 SWAP1 SLOAD SWAP1 PUSH2 0x100 EXP SWAP1 DIV PUSH1 0xFF AND SWAP1 DUP1 PUSH1 0x4 ADD PUSH1 0x17 SWAP1 SLOAD SWAP1 PUSH2 0x100 EXP SWAP1 DIV PUSH1 0xFF AND SWAP1 DUP1 PUSH1 0x5 ADD PUSH1 0x0 SWAP1 SLOAD SWAP1 PUSH2 0x100 EXP SWAP1 DIV PUSH20 0xFFFFFFFFFFFFFFFFFFFFFFFFFFFFFFFFFFFFFFFF AND SWAP1 POP DUP11 JUMP JUMPDEST PUSH1 0x0 PUSH2 0x411 PUSH32 0x4F56136AF47D17604FA474591C34B819CD9CEF3529522714838B3D328D28D1AE PUSH1 0x0 SHL PUSH2 0x511 JUMP JUMPDEST PUSH2 0x43D PUSH32 0xC6E372085F3B1601C930F55CE22A0EF9E7594F967FBDBC1A439D9AF6DB9ABEFD PUSH1 0x0 SHL PUSH2 0x511 JUMP JUMPDEST PUSH2 0x469 PUSH32 0xFD4DD23CE34FE1D2F55AFBDEF7243EB0222B38A1F15061026BF2528C251DD1EA PUSH1 0x0 SHL PUSH2 0x511 JUMP JUMPDEST DUP2 PUSH20 0xFFFFFFFFFFFFFFFFFFFFFFFFFFFFFFFFFFFFFFFF AND PUSH4 0x70A08231 ADDRESS PUSH1 0x40 MLOAD DUP3 PUSH4 0xFFFFFFFF AND PUSH1 0xE0 SHL DUP2 MSTORE PUSH1 0x4 ADD PUSH2 0x4A2 SWAP2 SWAP1 PUSH2 0x2641 JUMP JUMPDEST PUSH1 0x20 PUSH1 0x40 MLOAD DUP1 DUP4 SUB DUP2 DUP7 DUP1 EXTCODESIZE ISZERO DUP1 ISZERO PUSH2 0x4BA JUMPI PUSH1 0x0 DUP1 REVERT JUMPDEST POP GAS STATICCALL ISZERO DUP1 ISZERO PUSH2 0x4CE JUMPI RETURNDATASIZE PUSH1 0x0 DUP1 RETURNDATACOPY RETURNDATASIZE PUSH1 0x0 REVERT JUMPDEST POP POP POP POP PUSH1 0x40 MLOAD RETURNDATASIZE PUSH1 0x1F NOT PUSH1 0x1F DUP3 ADD AND DUP3 ADD DUP1 PUSH1 0x40 MSTORE POP DUP2 ADD SWAP1 PUSH2 0x4F2 SWAP2 SWAP1 PUSH2 0x2439 JUMP JUMPDEST SWAP1 POP SWAP2 SWAP1 POP JUMP JUMPDEST PUSH1 0x0 PUSH1 0x20 MSTORE DUP1 PUSH1 0x0 MSTORE PUSH1 0x40 PUSH1 0x0 KECCAK256 PUSH1 0x0 SWAP2 POP SWAP1 POP SLOAD DUP2 JUMP JUMPDEST POP JUMP JUMPDEST PUSH2 0x540 PUSH32 0xA390AB68DF949C65A97D18EE2C35C237AB4B9919A5B07EC0DED156443B7ED197 PUSH1 0x0 SHL PUSH2 0x511 JUMP JUMPDEST PUSH2 0x56C PUSH32 0x88E6919979B9928AEC84B74CD739D499A0C15143256124812323D35A033385F9 PUSH1 0x0 SHL PUSH2 0x511 JUMP JUMPDEST PUSH2 0x598 PUSH32 0x5AC4307E0A43E609CD5DB0940C63CBFAFF0D6C70E60D4BCEF6CFE9B4943A52D5 PUSH1 0x0 SHL PUSH2 0x511 JUMP JUMPDEST PUSH1 0x0 PUSH1 0x1 DUP3 DUP2 SLOAD DUP2 LT PUSH2 0x5AE JUMPI PUSH2 0x5AD PUSH2 0x2A92 JUMP JUMPDEST JUMPDEST SWAP1 PUSH1 0x0 MSTORE PUSH1 0x20 PUSH1 0x0 KECCAK256 SWAP1 PUSH1 0x6 MUL ADD SWAP1 POP PUSH2 0x5EA PUSH32 0x873177596C2947F1A990EAC5F8A0BE58D22F2B88910BCF0B82F9B7F5FDF13A3F PUSH1 0x0 SHL PUSH2 0x511 JUMP JUMPDEST PUSH2 0x616 PUSH32 0x1BEFF1562DFB74F8F0E1589F45075ED864D2C8729174F7AC2207029F4D17DFD9 PUSH1 0x0 SHL PUSH2 0x511 JUMP JUMPDEST PUSH2 0x642 PUSH32 0x9D16F22E757FFD319964794CCA4A919029D15AA33704222170AC5FC3E0BBA408 PUSH1 0x0 SHL PUSH2 0x511 JUMP JUMPDEST DUP1 PUSH1 0x4 ADD PUSH1 0x0 SWAP1 SLOAD SWAP1 PUSH2 0x100 EXP SWAP1 DIV PUSH1 0xFF AND PUSH2 0x65D JUMPI PUSH1 0x0 DUP1 REVERT JUMPDEST PUSH2 0x689 PUSH32 0xF8AB0420D082D7B3769C82A13F1152082683A64D5082FEB3BF3121C27E71232E PUSH1 0x0 SHL PUSH2 0x511 JUMP JUMPDEST PUSH2 0x6B5 PUSH32 0x12E36912AB63E58776F853EB43962C447077A564174E352F8593686BD7DEB907 PUSH1 0x0 SHL PUSH2 0x511 JUMP JUMPDEST PUSH2 0x6E1 PUSH32 0x5A4BFB493452FC19E27442C54A4B0839D45FEE046B573D446AAE45AAFC8707D2 PUSH1 0x0 SHL PUSH2 0x511 JUMP JUMPDEST PUSH1 0x1 DUP2 PUSH1 0x4 ADD PUSH1 0x16 PUSH2 0x100 EXP DUP2 SLOAD DUP2 PUSH1 0xFF MUL NOT AND SWAP1 DUP4 ISZERO ISZERO MUL OR SWAP1 SSTORE POP POP POP JUMP JUMPDEST PUSH2 0x72E PUSH32 0xB77171172505F86723EA61527E366BF6BFCB068FF1F21236EBF7826797EA260A PUSH1 0x0 SHL PUSH2 0x511 JUMP JUMPDEST PUSH2 0x75A PUSH32 0xA032C73A9B0123C476A1581E597DE8839BD26A45E093AA82C80B2D4C9E15F11 PUSH1 0x0 SHL PUSH2 0x511 JUMP JUMPDEST PUSH2 0x786 PUSH32 0xFC67AA4375FEF7C2A6F6C99DF87F211AC46368BD79AAD0AF73EC9A00C3D83752 PUSH1 0x0 SHL PUSH2 0x511 JUMP JUMPDEST PUSH1 0x0 PUSH1 0x1 DUP4 DUP2 SLOAD DUP2 LT PUSH2 0x79C JUMPI PUSH2 0x79B PUSH2 0x2A92 JUMP JUMPDEST JUMPDEST SWAP1 PUSH1 0x0 MSTORE PUSH1 0x20 PUSH1 0x0 KECCAK256 SWAP1 PUSH1 0x6 MUL ADD SWAP1 POP PUSH2 0x7D8 PUSH32 0x66EB2610E0862A478CDE2065F3EEEEB43E2B007BAC2C6CD629271D5E4185615E PUSH1 0x0 SHL PUSH2 0x511 JUMP JUMPDEST PUSH2 0x804 PUSH32 0x3B1FF3BB6B80F4B7C1278B8C0C4411EB0CE8BC2352639CCB013FA4FDF85B19C8 PUSH1 0x0 SHL PUSH2 0x511 JUMP JUMPDEST PUSH2 0x830 PUSH32 0xDD62AF0FA0EC38F0F8BC51C3CBE1A14E4C435251718413F4717B6E4FD88E38D5 PUSH1 0x0 SHL PUSH2 0x511 JUMP JUMPDEST DUP1 PUSH1 0x0 ADD PUSH1 0x0 SWAP1 SLOAD SWAP1 PUSH2 0x100 EXP SWAP1 DIV PUSH20 0xFFFFFFFFFFFFFFFFFFFFFFFFFFFFFFFFFFFFFFFF AND PUSH20 0xFFFFFFFFFFFFFFFFFFFFFFFFFFFFFFFFFFFFFFFF AND CALLER PUSH20 0xFFFFFFFFFFFFFFFFFFFFFFFFFFFFFFFFFFFFFFFF AND EQ ISZERO PUSH2 0x8C3 JUMPI PUSH1 0x40 MLOAD PUSH32 0x8C379A000000000000000000000000000000000000000000000000000000000 DUP2 MSTORE PUSH1 0x4 ADD PUSH2 0x8BA SWAP1 PUSH2 0x279A JUMP JUMPDEST PUSH1 0x40 MLOAD DUP1 SWAP2 SUB SWAP1 REVERT JUMPDEST PUSH2 0x8EF PUSH32 0x75A7C475E3BF793A507005DFBA0787B3ED8C7524BDAF32F59FD48F64E64A5893 PUSH1 0x0 SHL PUSH2 0x511 JUMP JUMPDEST PUSH2 0x91B PUSH32 0xD1E564E503BE0D3784ADF89D25EE125E70CCD82A33D574D4F30363B241BD7AB4 PUSH1 0x0 SHL PUSH2 0x511 JUMP JUMPDEST PUSH2 0x947 PUSH32 0x93330B3D1F28FB93CCFB1FABB8FB8BDDC2656F98CB2CD83B2588AADA40FE5CCB PUSH1 0x0 SHL PUSH2 0x511 JUMP JUMPDEST PUSH2 0x973 PUSH32 0x5BB2C998DB5548E84762595281930182775D253BBC9D74B13D17160EC653436A PUSH1 0x0 SHL PUSH2 0x511 JUMP JUMPDEST DUP1 PUSH1 0x5 ADD PUSH1 0x0 SWAP1 SLOAD SWAP1 PUSH2 0x100 EXP SWAP1 DIV PUSH20 0xFFFFFFFFFFFFFFFFFFFFFFFFFFFFFFFFFFFFFFFF AND PUSH20 0xFFFFFFFFFFFFFFFFFFFFFFFFFFFFFFFFFFFFFFFF AND CALLER PUSH20 0xFFFFFFFFFFFFFFFFFFFFFFFFFFFFFFFFFFFFFFFF AND EQ ISZERO PUSH2 0xA06 JUMPI PUSH1 0x40 MLOAD PUSH32 0x8C379A000000000000000000000000000000000000000000000000000000000 DUP2 MSTORE PUSH1 0x4 ADD PUSH2 0x9FD SWAP1 PUSH2 0x283A JUMP JUMPDEST PUSH1 0x40 MLOAD DUP1 SWAP2 SUB SWAP1 REVERT JUMPDEST PUSH2 0xA32 PUSH32 0x49D766550E9234439F89A663E91D2278E24F9737E2742D65155149BB08D49842 PUSH1 0x0 SHL PUSH2 0x511 JUMP JUMPDEST PUSH2 0xA5E PUSH32 0x44CDB4F38FD2414D69B1D5A32EDBC1B6C52BE4A8E7D59F92E9B9AAD38F695D5C PUSH1 0x0 SHL PUSH2 0x511 JUMP JUMPDEST PUSH2 0xA8A PUSH32 0x5B74786A7552FB8EE18D90F3747EA246B8C04060F561FB5FC2195681DFF4767F PUSH1 0x0 SHL PUSH2 0x511 JUMP JUMPDEST DUP2 ISZERO PUSH2 0xCB3 JUMPI PUSH2 0xABC PUSH32 0xEC09FAE4661FDCC273BC4F653809F3D282FD833DB15DD52691C886BA1756AB0B PUSH1 0x0 SHL PUSH2 0x511 JUMP JUMPDEST PUSH2 0xAE8 PUSH32 0xEB8D005CC4424739E89F453A5817D6D843FB4A15563CFA457AAA6ABB50793B9 PUSH1 0x0 SHL PUSH2 0x511 JUMP JUMPDEST PUSH2 0xB14 PUSH32 0x569FBAEFA5B3088197C438D194F53CD6CB0B4F6EED6626F26CA6276CD53AC220 PUSH1 0x0 SHL PUSH2 0x511 JUMP JUMPDEST PUSH1 0x0 DUP2 PUSH1 0x3 ADD SLOAD SWAP1 POP PUSH2 0xB49 PUSH32 0xECB44C7B58F983C656C72EB892556EE4E2E7AF0A9392743C44A63B17383B7BD PUSH1 0x0 SHL PUSH2 0x511 JUMP JUMPDEST PUSH2 0xB75 PUSH32 0x839C8E9B557E2AA75F94A13F01CC1B101C55B1F1B4C0AC75A2A4BAC44206823C PUSH1 0x0 SHL PUSH2 0x511 JUMP JUMPDEST PUSH1 0x0 DUP3 PUSH1 0x3 ADD DUP2 SWAP1 SSTORE POP PUSH2 0xBAB PUSH32 0x264A5B937BCBBFBA0804A9F5518CEC9AA91F6E3527AC4F4D0B5DE366A3EF260C PUSH1 0x0 SHL PUSH2 0x511 JUMP JUMPDEST PUSH2 0xBD7 PUSH32 0xCDE2C7E2A085DD623273861C444E698FF9E2DB7EC480E5680C2E11207BE3D4A6 PUSH1 0x0 SHL PUSH2 0x511 JUMP JUMPDEST DUP2 PUSH1 0x4 ADD PUSH1 0x1 SWAP1 SLOAD SWAP1 PUSH2 0x100 EXP SWAP1 DIV PUSH20 0xFFFFFFFFFFFFFFFFFFFFFFFFFFFFFFFFFFFFFFFF AND PUSH20 0xFFFFFFFFFFFFFFFFFFFFFFFFFFFFFFFFFFFFFFFF AND PUSH4 0xA9059CBB DUP4 PUSH1 0x5 ADD PUSH1 0x0 SWAP1 SLOAD SWAP1 PUSH2 0x100 EXP SWAP1 DIV PUSH20 0xFFFFFFFFFFFFFFFFFFFFFFFFFFFFFFFFFFFFFFFF AND DUP4 PUSH1 0x40 MLOAD DUP4 PUSH4 0xFFFFFFFF AND PUSH1 0xE0 SHL DUP2 MSTORE PUSH1 0x4 ADD PUSH2 0xC5A SWAP3 SWAP2 SWAP1 PUSH2 0x2736 JUMP JUMPDEST PUSH1 0x20 PUSH1 0x40 MLOAD DUP1 DUP4 SUB DUP2 PUSH1 0x0 DUP8 DUP1 EXTCODESIZE ISZERO DUP1 ISZERO PUSH2 0xC74 JUMPI PUSH1 0x0 DUP1 REVERT JUMPDEST POP GAS CALL ISZERO DUP1 ISZERO PUSH2 0xC88 JUMPI RETURNDATASIZE PUSH1 0x0 DUP1 RETURNDATACOPY RETURNDATASIZE PUSH1 0x0 REVERT JUMPDEST POP POP POP POP PUSH1 0x40 MLOAD RETURNDATASIZE PUSH1 0x1F NOT PUSH1 0x1F DUP3 ADD AND DUP3 ADD DUP1 PUSH1 0x40 MSTORE POP DUP2 ADD SWAP1 PUSH2 0xCAC SWAP2 SWAP1 PUSH2 0x2343 JUMP JUMPDEST POP POP PUSH2 0xCE0 JUMP JUMPDEST PUSH2 0xCDF PUSH32 0xFB37AE5F0DC3CC0FDD5D4F04EA98F35D98827099D000CD68B9D4196356D44C07 PUSH1 0x0 SHL PUSH2 0x511 JUMP JUMPDEST JUMPDEST PUSH2 0xD0C PUSH32 0x11FB55838D806143C6FEC0CB16FCAB5692779826133A8BEFA0FA6F0E3855C434 PUSH1 0x0 SHL PUSH2 0x511 JUMP JUMPDEST PUSH2 0xD38 PUSH32 0x3EB1A5482FDB6533343B68698915D69E9CBA55FC9230F0E0A2A26AC2A2015419 PUSH1 0x0 SHL PUSH2 0x511 JUMP JUMPDEST PUSH1 0x0 DUP2 PUSH1 0x4 ADD PUSH1 0x16 PUSH2 0x100 EXP DUP2 SLOAD DUP2 PUSH1 0xFF MUL NOT AND SWAP1 DUP4 ISZERO ISZERO MUL OR SWAP1 SSTORE POP POP POP POP JUMP JUMPDEST PUSH1 0x0 PUSH2 0xD88 PUSH32 0x14D757851D5CCC1DDC3A89E090E75BDF2191662C2B67DE5283085FDC19AAC3F PUSH1 0x0 SHL PUSH2 0x511 JUMP JUMPDEST PUSH2 0xDB4 PUSH32 0x5E6AA10C76E8B915117DB46D661CF0293A90D0ECD292A96507F5FEDAAB7A0CBF PUSH1 0x0 SHL PUSH2 0x511 JUMP JUMPDEST PUSH2 0xDE0 PUSH32 0xC9C02BC68FBFD7F6222926321034C67F027C20FB1EA5D1E501BB48E1DDF68E43 PUSH1 0x0 SHL PUSH2 0x511 JUMP JUMPDEST DUP2 PUSH20 0xFFFFFFFFFFFFFFFFFFFFFFFFFFFFFFFFFFFFFFFF AND PUSH4 0x70A08231 CALLER PUSH1 0x40 MLOAD DUP3 PUSH4 0xFFFFFFFF AND PUSH1 0xE0 SHL DUP2 MSTORE PUSH1 0x4 ADD PUSH2 0xE19 SWAP2 SWAP1 PUSH2 0x2641 JUMP JUMPDEST PUSH1 0x20 PUSH1 0x40 MLOAD DUP1 DUP4 SUB DUP2 DUP7 DUP1 EXTCODESIZE ISZERO DUP1 ISZERO PUSH2 0xE31 JUMPI PUSH1 0x0 DUP1 REVERT JUMPDEST POP GAS STATICCALL ISZERO DUP1 ISZERO PUSH2 0xE45 JUMPI RETURNDATASIZE PUSH1 0x0 DUP1 RETURNDATACOPY RETURNDATASIZE PUSH1 0x0 REVERT JUMPDEST POP POP POP POP PUSH1 0x40 MLOAD RETURNDATASIZE PUSH1 0x1F NOT PUSH1 0x1F DUP3 ADD AND DUP3 ADD DUP1 PUSH1 0x40 MSTORE POP DUP2 ADD SWAP1 PUSH2 0xE69 SWAP2 SWAP1 PUSH2 0x2439 JUMP JUMPDEST SWAP1 POP SWAP2 SWAP1 POP JUMP JUMPDEST PUSH1 0x0 PUSH2 0xE9E PUSH32 0xC5C17474DD6559FC067FBB97D2717B0CE23374BD4F680F5E0C5BB4442A1BAA1E PUSH1 0x0 SHL PUSH2 0x511 JUMP JUMPDEST PUSH2 0xECA PUSH32 0x3DDBC2DA04541FF839F08E2A7797BB22CB7EB6D068B31F5831B9FF67D1B68F6A PUSH1 0x0 SHL PUSH2 0x511 JUMP JUMPDEST PUSH2 0xEF6 PUSH32 0x5B2D941B9425D47C85289C254EDF2D52FCF6EEEAB3D119AD938371D4CF4F2ED6 PUSH1 0x0 SHL PUSH2 0x511 JUMP JUMPDEST PUSH1 0x0 PUSH1 0x40 MLOAD DUP1 PUSH2 0x140 ADD PUSH1 0x40 MSTORE DUP1 CALLER PUSH20 0xFFFFFFFFFFFFFFFFFFFFFFFFFFFFFFFFFFFFFFFF AND DUP2 MSTORE PUSH1 0x20 ADD DUP7 DUP2 MSTORE PUSH1 0x20 ADD DUP6 DUP2 MSTORE PUSH1 0x20 ADD PUSH1 0x0 DUP2 MSTORE PUSH1 0x20 ADD PUSH1 0x0 ISZERO ISZERO DUP2 MSTORE PUSH1 0x20 ADD DUP5 PUSH20 0xFFFFFFFFFFFFFFFFFFFFFFFFFFFFFFFFFFFFFFFF AND DUP2 MSTORE PUSH1 0x20 ADD PUSH1 0x0 ISZERO ISZERO DUP2 MSTORE PUSH1 0x20 ADD PUSH1 0x0 ISZERO ISZERO DUP2 MSTORE PUSH1 0x20 ADD PUSH1 0x0 ISZERO ISZERO DUP2 MSTORE PUSH1 0x20 ADD PUSH1 0x0 PUSH20 0xFFFFFFFFFFFFFFFFFFFFFFFFFFFFFFFFFFFFFFFF AND DUP2 MSTORE POP SWAP1 POP PUSH2 0xFBC PUSH32 0x213932F611B9F714715FFE7EFFBA463D9D283C2E7568D4BAA2FEBB9CE0EFEF01 PUSH1 0x0 SHL PUSH2 0x511 JUMP JUMPDEST PUSH2 0xFE8 PUSH32 0xE54DF0F03C256031031B57CC8DB91275DDEDD2FA50EBFA81D98384F770D9E4C4 PUSH1 0x0 SHL PUSH2 0x511 JUMP JUMPDEST PUSH1 0x1 DUP2 SWAP1 DUP1 PUSH1 0x1 DUP2 SLOAD ADD DUP1 DUP3 SSTORE DUP1 SWAP2 POP POP PUSH1 0x1 SWAP1 SUB SWAP1 PUSH1 0x0 MSTORE PUSH1 0x20 PUSH1 0x0 KECCAK256 SWAP1 PUSH1 0x6 MUL ADD PUSH1 0x0 SWAP1 SWAP2 SWAP1 SWAP2 SWAP1 SWAP2 POP PUSH1 0x0 DUP3 ADD MLOAD DUP2 PUSH1 0x0 ADD PUSH1 0x0 PUSH2 0x100 EXP DUP2 SLOAD DUP2 PUSH20 0xFFFFFFFFFFFFFFFFFFFFFFFFFFFFFFFFFFFFFFFF MUL NOT AND SWAP1 DUP4 PUSH20 0xFFFFFFFFFFFFFFFFFFFFFFFFFFFFFFFFFFFFFFFF AND MUL OR SWAP1 SSTORE POP PUSH1 0x20 DUP3 ADD MLOAD DUP2 PUSH1 0x1 ADD SWAP1 DUP1 MLOAD SWAP1 PUSH1 0x20 ADD SWAP1 PUSH2 0x1077 SWAP3 SWAP2 SWAP1 PUSH2 0x2185 JUMP JUMPDEST POP PUSH1 0x40 DUP3 ADD MLOAD DUP2 PUSH1 0x2 ADD SSTORE PUSH1 0x60 DUP3 ADD MLOAD DUP2 PUSH1 0x3 ADD SSTORE PUSH1 0x80 DUP3 ADD MLOAD DUP2 PUSH1 0x4 ADD PUSH1 0x0 PUSH2 0x100 EXP DUP2 SLOAD DUP2 PUSH1 0xFF MUL NOT AND SWAP1 DUP4 ISZERO ISZERO MUL OR SWAP1 SSTORE POP PUSH1 0xA0 DUP3 ADD MLOAD DUP2 PUSH1 0x4 ADD PUSH1 0x1 PUSH2 0x100 EXP DUP2 SLOAD DUP2 PUSH20 0xFFFFFFFFFFFFFFFFFFFFFFFFFFFFFFFFFFFFFFFF MUL NOT AND SWAP1 DUP4 PUSH20 0xFFFFFFFFFFFFFFFFFFFFFFFFFFFFFFFFFFFFFFFF AND MUL OR SWAP1 SSTORE POP PUSH1 0xC0 DUP3 ADD MLOAD DUP2 PUSH1 0x4 ADD PUSH1 0x15 PUSH2 0x100 EXP DUP2 SLOAD DUP2 PUSH1 0xFF MUL NOT AND SWAP1 DUP4 ISZERO ISZERO MUL OR SWAP1 SSTORE POP PUSH1 0xE0 DUP3 ADD MLOAD DUP2 PUSH1 0x4 ADD PUSH1 0x16 PUSH2 0x100 EXP DUP2 SLOAD DUP2 PUSH1 0xFF MUL NOT AND SWAP1 DUP4 ISZERO ISZERO MUL OR SWAP1 SSTORE POP PUSH2 0x100 DUP3 ADD MLOAD DUP2 PUSH1 0x4 ADD PUSH1 0x17 PUSH2 0x100 EXP DUP2 SLOAD DUP2 PUSH1 0xFF MUL NOT AND SWAP1 DUP4 ISZERO ISZERO MUL OR SWAP1 SSTORE POP PUSH2 0x120 DUP3 ADD MLOAD DUP2 PUSH1 0x5 ADD PUSH1 0x0 PUSH2 0x100 EXP DUP2 SLOAD DUP2 PUSH20 0xFFFFFFFFFFFFFFFFFFFFFFFFFFFFFFFFFFFFFFFF MUL NOT AND SWAP1 DUP4 PUSH20 0xFFFFFFFFFFFFFFFFFFFFFFFFFFFFFFFFFFFFFFFF AND MUL OR SWAP1 SSTORE POP POP POP PUSH2 0x11CA PUSH32 0x7A4CFF855A4E8DA11A7EF23574D7418CDE7FC621FCC5571051876C4732406282 PUSH1 0x0 SHL PUSH2 0x511 JUMP JUMPDEST PUSH2 0x11F6 PUSH32 0x2670466AD2274F1E083CE928E38F32F3D7B6ECD61DDA87A97B862680D95CDA03 PUSH1 0x0 SHL PUSH2 0x511 JUMP JUMPDEST PUSH1 0x1 SWAP2 POP POP SWAP4 SWAP3 POP POP POP JUMP JUMPDEST PUSH2 0x122E PUSH32 0x6154E127B3EAE23259C5890FFEA0C27474CA1DFCF62936E8EFED551F97F4E6EB PUSH1 0x0 SHL PUSH2 0x511 JUMP JUMPDEST PUSH2 0x125A PUSH32 0x715518F79482C0D06DE69F56D03DD3660A5BF67F70A1DA1663B7771007454456 PUSH1 0x0 SHL PUSH2 0x511 JUMP JUMPDEST PUSH2 0x1286 PUSH32 0xCEAC1E6715C89A04993479C14A8079A172FDFD7ABD4743124BAE6432CE765D2C PUSH1 0x0 SHL PUSH2 0x511 JUMP JUMPDEST PUSH1 0x0 PUSH1 0x1 DUP3 DUP2 SLOAD DUP2 LT PUSH2 0x129C JUMPI PUSH2 0x129B PUSH2 0x2A92 JUMP JUMPDEST JUMPDEST SWAP1 PUSH1 0x0 MSTORE PUSH1 0x20 PUSH1 0x0 KECCAK256 SWAP1 PUSH1 0x6 MUL ADD SWAP1 POP PUSH2 0x12D8 PUSH32 0x8DB8BEB488B4199503619A6AF8448C07744A034E20C447BCDC92F527DA4E262D PUSH1 0x0 SHL PUSH2 0x511 JUMP JUMPDEST PUSH2 0x1304 PUSH32 0x32E184C4FE5A98C8C6104179CE7C08D8E7D5B864D22D44C1181158813E37313C PUSH1 0x0 SHL PUSH2 0x511 JUMP JUMPDEST PUSH2 0x1330 PUSH32 0x5EB9B8B27A4940B98C9837C8B6E880ACCD4047F5E8E21D5033406FBE2774AF24 PUSH1 0x0 SHL PUSH2 0x511 JUMP JUMPDEST CALLER PUSH20 0xFFFFFFFFFFFFFFFFFFFFFFFFFFFFFFFFFFFFFFFF AND DUP2 PUSH1 0x5 ADD PUSH1 0x0 SWAP1 SLOAD SWAP1 PUSH2 0x100 EXP SWAP1 DIV PUSH20 0xFFFFFFFFFFFFFFFFFFFFFFFFFFFFFFFFFFFFFFFF AND PUSH20 0xFFFFFFFFFFFFFFFFFFFFFFFFFFFFFFFFFFFFFFFF AND EQ PUSH2 0x13C2 JUMPI PUSH1 0x40 MLOAD PUSH32 0x8C379A000000000000000000000000000000000000000000000000000000000 DUP2 MSTORE PUSH1 0x4 ADD PUSH2 0x13B9 SWAP1 PUSH2 0x27BA JUMP JUMPDEST PUSH1 0x40 MLOAD DUP1 SWAP2 SUB SWAP1 REVERT JUMPDEST PUSH2 0x13EE PUSH32 0x7BBA7C0B546FE8E1DA91DD50F6C811A7B3EB506BD027086EEC76583658925703 PUSH1 0x0 SHL PUSH2 0x511 JUMP JUMPDEST PUSH2 0x141A PUSH32 0xC0B2D87FC91B7AB7E38E9D9EF5CF8C3ABFC9174ACBCD6C655C0546D6CB11E510 PUSH1 0x0 SHL PUSH2 0x511 JUMP JUMPDEST PUSH2 0x1446 PUSH32 0x2283929235389A2B6A9950EE255F5572522DEAAA50EC460122C2546CB8BBDED1 PUSH1 0x0 SHL PUSH2 0x511 JUMP JUMPDEST PUSH1 0x1 DUP2 PUSH1 0x4 ADD PUSH1 0x17 PUSH2 0x100 EXP DUP2 SLOAD DUP2 PUSH1 0xFF MUL NOT AND SWAP1 DUP4 ISZERO ISZERO MUL OR SWAP1 SSTORE POP POP POP JUMP JUMPDEST PUSH1 0x0 PUSH2 0x1495 PUSH32 0xC2A386FF54B375A7EE9C972A7FED8251F5BAE31988977C1154053A062AF13C43 PUSH1 0x0 SHL PUSH2 0x511 JUMP JUMPDEST PUSH2 0x14C1 PUSH32 0xB9702F0B1CC565A9EFE4F488E15D6624AA3517E8516C818235F66098883B8E6F PUSH1 0x0 SHL PUSH2 0x511 JUMP JUMPDEST PUSH2 0x14ED PUSH32 0x8B826299240E30CF63D2018C638437D5AD6FD62FB4103E6003109361A99D833 PUSH1 0x0 SHL PUSH2 0x511 JUMP JUMPDEST PUSH1 0x0 PUSH1 0x1 DUP4 DUP2 SLOAD DUP2 LT PUSH2 0x1503 JUMPI PUSH2 0x1502 PUSH2 0x2A92 JUMP JUMPDEST JUMPDEST SWAP1 PUSH1 0x0 MSTORE PUSH1 0x20 PUSH1 0x0 KECCAK256 SWAP1 PUSH1 0x6 MUL ADD SWAP1 POP PUSH2 0x153F PUSH32 0xEB1945CECC131FD98385D84FDFAFAB50A82D8A251808EC6795E991357CA3E900 PUSH1 0x0 SHL PUSH2 0x511 JUMP JUMPDEST PUSH2 0x156B PUSH32 0x8030D6F3BBF459C4F6DE8A876443298819087320FFAF715CF08B127531C2239E PUSH1 0x0 SHL PUSH2 0x511 JUMP JUMPDEST PUSH2 0x1597 PUSH32 0x9D3DC094CEA68B09CB3943C507E0AA3BC836E5714CEC21BA6C7353F92C6804E PUSH1 0x0 SHL PUSH2 0x511 JUMP JUMPDEST DUP1 PUSH1 0x4 ADD PUSH1 0x0 SWAP1 SLOAD SWAP1 PUSH2 0x100 EXP SWAP1 DIV PUSH1 0xFF AND ISZERO PUSH2 0x15B3 JUMPI PUSH1 0x0 DUP1 REVERT JUMPDEST PUSH2 0x15DF PUSH32 0xAC27DAA4328D8A086C991F6DA5061CAEF64F74676C19BE96C8FD38537F3959A3 PUSH1 0x0 SHL PUSH2 0x511 JUMP JUMPDEST PUSH2 0x160B PUSH32 0x354B17104F3169636C693D575914291821D3AD11B8DC73F32F264816181F588C PUSH1 0x0 SHL PUSH2 0x511 JUMP JUMPDEST PUSH2 0x1637 PUSH32 0xD4AB2CE5DC37AED4E19423C6413169568BC7B0BF91312AA43C2384F843B3688B PUSH1 0x0 SHL PUSH2 0x511 JUMP JUMPDEST PUSH1 0x1 DUP2 PUSH1 0x4 ADD PUSH1 0x0 PUSH2 0x100 EXP DUP2 SLOAD DUP2 PUSH1 0xFF MUL NOT AND SWAP1 DUP4 ISZERO ISZERO MUL OR SWAP1 SSTORE POP PUSH2 0x1680 PUSH32 0x5983E7DC452615F33F03D9C80A04A7C313B2F5C0BCE5EF7DAF16AFB71DD0DDCA PUSH1 0x0 SHL PUSH2 0x511 JUMP JUMPDEST PUSH2 0x16AC PUSH32 0xCAFB10FCC4B943096ABCECA3E162CB3E0E81A94E0AA2EBA6BBFAAA840EEE92B9 PUSH1 0x0 SHL PUSH2 0x511 JUMP JUMPDEST PUSH2 0x16D8 PUSH32 0x719E0430A7434129CCBDCCE074C6BE9D512A6C3C084F35A054BC9DDD61C07008 PUSH1 0x0 SHL PUSH2 0x511 JUMP JUMPDEST DUP1 PUSH1 0x2 ADD SLOAD DUP5 EQ PUSH2 0x16E8 JUMPI PUSH1 0x0 DUP1 REVERT JUMPDEST PUSH2 0x1714 PUSH32 0x928F3AF1D2D49E1A9F04FB2CCAAE2F5F7F0ACBAAA9062BEBA6425A21DE82DFE6 PUSH1 0x0 SHL PUSH2 0x511 JUMP JUMPDEST PUSH2 0x1740 PUSH32 0x44FFA3F073E2F0A4820385DA12A92D40E181E264D88146543B1BC4FE610A072E PUSH1 0x0 SHL PUSH2 0x511 JUMP JUMPDEST PUSH2 0x176C PUSH32 0xC918602A03E330BE121DDAB759A456B6FC1FE45066DF44B8DAECEE636F416AE9 PUSH1 0x0 SHL PUSH2 0x511 JUMP JUMPDEST DUP4 DUP2 PUSH1 0x3 ADD PUSH1 0x0 DUP3 DUP3 SLOAD PUSH2 0x1780 SWAP2 SWAP1 PUSH2 0x28E7 JUMP JUMPDEST SWAP3 POP POP DUP2 SWAP1 SSTORE POP PUSH2 0x17B3 PUSH32 0xEE555C50E50BB1726B8758396F91862E40B4CF3D1CA14B41BC5B81CB9EAE598A PUSH1 0x0 SHL PUSH2 0x511 JUMP JUMPDEST PUSH2 0x17DF PUSH32 0x2C1CC4763D4D6728A126E84C8A3100487A77C87AC5DDF5FF9F086596BEDB7118 PUSH1 0x0 SHL PUSH2 0x511 JUMP JUMPDEST DUP1 PUSH1 0x4 ADD PUSH1 0x1 SWAP1 SLOAD SWAP1 PUSH2 0x100 EXP SWAP1 DIV PUSH20 0xFFFFFFFFFFFFFFFFFFFFFFFFFFFFFFFFFFFFFFFF AND PUSH20 0xFFFFFFFFFFFFFFFFFFFFFFFFFFFFFFFFFFFFFFFF AND PUSH4 0x23B872DD CALLER ADDRESS DUP8 PUSH1 0x40 MLOAD DUP5 PUSH4 0xFFFFFFFF AND PUSH1 0xE0 SHL DUP2 MSTORE PUSH1 0x4 ADD PUSH2 0x1840 SWAP4 SWAP3 SWAP2 SWAP1 PUSH2 0x265C JUMP JUMPDEST PUSH1 0x20 PUSH1 0x40 MLOAD DUP1 DUP4 SUB DUP2 PUSH1 0x0 DUP8 DUP1 EXTCODESIZE ISZERO DUP1 ISZERO PUSH2 0x185A JUMPI PUSH1 0x0 DUP1 REVERT JUMPDEST POP GAS CALL ISZERO DUP1 ISZERO PUSH2 0x186E JUMPI RETURNDATASIZE PUSH1 0x0 DUP1 RETURNDATACOPY RETURNDATASIZE PUSH1 0x0 REVERT JUMPDEST POP POP POP POP PUSH1 0x40 MLOAD RETURNDATASIZE PUSH1 0x1F NOT PUSH1 0x1F DUP3 ADD AND DUP3 ADD DUP1 PUSH1 0x40 MSTORE POP DUP2 ADD SWAP1 PUSH2 0x1892 SWAP2 SWAP1 PUSH2 0x2343 JUMP JUMPDEST POP PUSH2 0x18BF PUSH32 0xA2CEE40CA1197E1ED91EFA10DF0FF4C2D6562D75B8123C54207191141832EFA3 PUSH1 0x0 SHL PUSH2 0x511 JUMP JUMPDEST PUSH2 0x18EB PUSH32 0x52B6EE9C142330238ED2B93D43C4A4F5BEED22D950F632FE2FA5F350E20E8A0C PUSH1 0x0 SHL PUSH2 0x511 JUMP JUMPDEST CALLER DUP2 PUSH1 0x5 ADD PUSH1 0x0 PUSH2 0x100 EXP DUP2 SLOAD DUP2 PUSH20 0xFFFFFFFFFFFFFFFFFFFFFFFFFFFFFFFFFFFFFFFF MUL NOT AND SWAP1 DUP4 PUSH20 0xFFFFFFFFFFFFFFFFFFFFFFFFFFFFFFFFFFFFFFFF AND MUL OR SWAP1 SSTORE POP PUSH2 0x195A PUSH32 0xF3B560432E3E12B446FC964D814385F7EF445AD819F7FEC6DFDEE8155F633E6E PUSH1 0x0 SHL PUSH2 0x511 JUMP JUMPDEST PUSH2 0x1986 PUSH32 0x5442BEA07C7A594137330816384D837CAC64E7FE4253EEB9E5C549E51C2234C7 PUSH1 0x0 SHL PUSH2 0x511 JUMP JUMPDEST PUSH1 0x1 SWAP2 POP POP SWAP3 SWAP2 POP POP JUMP JUMPDEST PUSH2 0x19BD PUSH32 0x48D459D0EBF8E97C8C9D8317A626BED6747939569F6883416AAE8E24223E838F PUSH1 0x0 SHL PUSH2 0x511 JUMP JUMPDEST PUSH2 0x19E9 PUSH32 0x197C6A9F8AD6CB3A03622FB79F3243927A525BECC177E54F1BC1F70D7D240F5D PUSH1 0x0 SHL PUSH2 0x511 JUMP JUMPDEST PUSH2 0x1A15 PUSH32 0xB0DC7490C6DA735DE3C58EC62129ADB29DEF29120C645588AFAD9AEF49FF385F PUSH1 0x0 SHL PUSH2 0x511 JUMP JUMPDEST PUSH1 0x0 PUSH1 0x1 DUP3 DUP2 SLOAD DUP2 LT PUSH2 0x1A2B JUMPI PUSH2 0x1A2A PUSH2 0x2A92 JUMP JUMPDEST JUMPDEST SWAP1 PUSH1 0x0 MSTORE PUSH1 0x20 PUSH1 0x0 KECCAK256 SWAP1 PUSH1 0x6 MUL ADD SWAP1 POP PUSH2 0x1A67 PUSH32 0x6EBF210503DE4097DAABAEC9BBFA61ABD5E8DC79B669C2425BBEA00446C5A8E1 PUSH1 0x0 SHL PUSH2 0x511 JUMP JUMPDEST PUSH2 0x1A93 PUSH32 0x2C4418161F45B0E5C7FA2923EEA1C03FC42B2B32059B010157AFBC49D3F4DEA5 PUSH1 0x0 SHL PUSH2 0x511 JUMP JUMPDEST PUSH2 0x1ABF PUSH32 0x92D4EFEE5B439F6A72D4B1B26C921A2447A0566CA2A5076E1E2C24D49D14BF71 PUSH1 0x0 SHL PUSH2 0x511 JUMP JUMPDEST DUP1 PUSH1 0x4 ADD PUSH1 0x0 SWAP1 SLOAD SWAP1 PUSH2 0x100 EXP SWAP1 DIV PUSH1 0xFF AND PUSH2 0x1B10 JUMPI PUSH1 0x40 MLOAD PUSH32 0x8C379A000000000000000000000000000000000000000000000000000000000 DUP2 MSTORE PUSH1 0x4 ADD PUSH2 0x1B07 SWAP1 PUSH2 0x27DA JUMP JUMPDEST PUSH1 0x40 MLOAD DUP1 SWAP2 SUB SWAP1 REVERT JUMPDEST PUSH2 0x1B3C PUSH32 0x911962539017CF5D712F9DA1E1D0E6B66A3DA605C0438929B0978CFB61909062 PUSH1 0x0 SHL PUSH2 0x511 JUMP JUMPDEST PUSH2 0x1B68 PUSH32 0xD5B45EF8558007C9C0F7652E6A756DAD025F6FE86ADEF6C7117AF943D5363D33 PUSH1 0x0 SHL PUSH2 0x511 JUMP JUMPDEST PUSH2 0x1B94 PUSH32 0x49B4ADC99A55F410ED10446B5EE986A07ED074E467D4EE73CF6C6E5616E065E9 PUSH1 0x0 SHL PUSH2 0x511 JUMP JUMPDEST PUSH2 0x1BC0 PUSH32 0xFAF9233F2896F999B0965E2AB48D2887C72014895121315C6BF3DD07EB63DCBB PUSH1 0x0 SHL PUSH2 0x511 JUMP JUMPDEST DUP1 PUSH1 0x4 ADD PUSH1 0x17 SWAP1 SLOAD SWAP1 PUSH2 0x100 EXP SWAP1 DIV PUSH1 0xFF AND PUSH2 0x1C11 JUMPI PUSH1 0x40 MLOAD PUSH32 0x8C379A000000000000000000000000000000000000000000000000000000000 DUP2 MSTORE PUSH1 0x4 ADD PUSH2 0x1C08 SWAP1 PUSH2 0x27FA JUMP JUMPDEST PUSH1 0x40 MLOAD DUP1 SWAP2 SUB SWAP1 REVERT JUMPDEST PUSH2 0x1C3D PUSH32 0x551A32A844A25B46052D423074548AF0EEC3AABD5249F1FE442123F281AB6E58 PUSH1 0x0 SHL PUSH2 0x511 JUMP JUMPDEST PUSH2 0x1C69 PUSH32 0xB2517AF62BB5202602E2756678B45A98A7551DE2A96C79A432229024B43C9A3B PUSH1 0x0 SHL PUSH2 0x511 JUMP JUMPDEST PUSH2 0x1C95 PUSH32 0x2EA33648DCFA0E550A9D125FA69FAD796A8AC6B00D319D8DDA90DEABF68F3C56 PUSH1 0x0 SHL PUSH2 0x511 JUMP JUMPDEST PUSH2 0x1CC1 PUSH32 0xF84B7E38C7C479AC65D3B0154FC1E50ED0B58CF035C7A97C5B6259E7E5AA2146 PUSH1 0x0 SHL PUSH2 0x511 JUMP JUMPDEST DUP1 PUSH1 0x4 ADD PUSH1 0x16 SWAP1 SLOAD SWAP1 PUSH2 0x100 EXP SWAP1 DIV PUSH1 0xFF AND ISZERO PUSH2 0x1D13 JUMPI PUSH1 0x40 MLOAD PUSH32 0x8C379A000000000000000000000000000000000000000000000000000000000 DUP2 MSTORE PUSH1 0x4 ADD PUSH2 0x1D0A SWAP1 PUSH2 0x281A JUMP JUMPDEST PUSH1 0x40 MLOAD DUP1 SWAP2 SUB SWAP1 REVERT JUMPDEST PUSH2 0x1D3F PUSH32 0xAE9426A095D25BBB45DB00CF07339C91B6675C12C21D564424C8E20E427A5230 PUSH1 0x0 SHL PUSH2 0x511 JUMP JUMPDEST PUSH2 0x1D6B PUSH32 0x3C22218222C56F719A019FB449E46595B8EBC67F7FE590D0DB0FF3F91DE986E PUSH1 0x0 SHL PUSH2 0x511 JUMP JUMPDEST PUSH2 0x1D97 PUSH32 0x9FCA54982EFA1A6E66FCF61F4C2C57DA0F7E6044700A6C7C8D94883A56AADD9A PUSH1 0x0 SHL PUSH2 0x511 JUMP JUMPDEST PUSH2 0x1DC3 PUSH32 0x7BF0D5AA51DC9B62DC9FAA01008C07A8B35430F654FDCC7DBF5222C52FDF436D PUSH1 0x0 SHL PUSH2 0x511 JUMP JUMPDEST DUP1 PUSH1 0x0 ADD PUSH1 0x0 SWAP1 SLOAD SWAP1 PUSH2 0x100 EXP SWAP1 DIV PUSH20 0xFFFFFFFFFFFFFFFFFFFFFFFFFFFFFFFFFFFFFFFF AND PUSH20 0xFFFFFFFFFFFFFFFFFFFFFFFFFFFFFFFFFFFFFFFF AND CALLER PUSH20 0xFFFFFFFFFFFFFFFFFFFFFFFFFFFFFFFFFFFFFFFF AND EQ PUSH2 0x1E55 JUMPI PUSH1 0x40 MLOAD PUSH32 0x8C379A000000000000000000000000000000000000000000000000000000000 DUP2 MSTORE PUSH1 0x4 ADD PUSH2 0x1E4C SWAP1 PUSH2 0x277A JUMP JUMPDEST PUSH1 0x40 MLOAD DUP1 SWAP2 SUB SWAP1 REVERT JUMPDEST PUSH2 0x1E81 PUSH32 0xB74F3F8EF39DF21ED1D1796D8AF816745023E54C45D1941A05AD69C38C889234 PUSH1 0x0 SHL PUSH2 0x511 JUMP JUMPDEST PUSH2 0x1EAD PUSH32 0x6D96B70B5BFAA49669E928AFBB5CD3DA390D223D512DEF8410B729E7DC2526D2 PUSH1 0x0 SHL PUSH2 0x511 JUMP JUMPDEST PUSH2 0x1ED9 PUSH32 0x33CF7CE42871CA27DAF0412073588A85FBD33D9D1C393A17D36ACA9C8A174D89 PUSH1 0x0 SHL PUSH2 0x511 JUMP JUMPDEST PUSH1 0x0 DUP2 PUSH1 0x3 ADD SLOAD SWAP1 POP PUSH2 0x1F0E PUSH32 0x7C8063BF9DD5F5DE208338726C9518A1896B4C9C524F6A93155076FEDEFE1A96 PUSH1 0x0 SHL PUSH2 0x511 JUMP JUMPDEST PUSH2 0x1F3A PUSH32 0x813A7A77866068536A7713778AF912E31DE0C371CE51C4DB7202DD04BE86CFF3 PUSH1 0x0 SHL PUSH2 0x511 JUMP JUMPDEST PUSH1 0x0 DUP3 PUSH1 0x3 ADD DUP2 SWAP1 SSTORE POP PUSH2 0x1F70 PUSH32 0xCFBD7946FB763A73FC9E2A29B594587497B44ECCC0B7489CBCE94E08472706E4 PUSH1 0x0 SHL PUSH2 0x511 JUMP JUMPDEST PUSH2 0x1F9C PUSH32 0x4A89C1CFC8051F014544096DA49C89EF173DFEE54DAE38F9217B3C3AB792F3D PUSH1 0x0 SHL PUSH2 0x511 JUMP JUMPDEST DUP2 PUSH1 0x4 ADD PUSH1 0x1 SWAP1 SLOAD SWAP1 PUSH2 0x100 EXP SWAP1 DIV PUSH20 0xFFFFFFFFFFFFFFFFFFFFFFFFFFFFFFFFFFFFFFFF AND PUSH20 0xFFFFFFFFFFFFFFFFFFFFFFFFFFFFFFFFFFFFFFFF AND PUSH4 0x95EA7B3 ADDRESS DUP5 PUSH1 0x3 ADD SLOAD PUSH1 0x40 MLOAD DUP4 PUSH4 0xFFFFFFFF AND PUSH1 0xE0 SHL DUP2 MSTORE PUSH1 0x4 ADD PUSH2 0x1FFF SWAP3 SWAP2 SWAP1 PUSH2 0x2736 JUMP JUMPDEST PUSH1 0x20 PUSH1 0x40 MLOAD DUP1 DUP4 SUB DUP2 PUSH1 0x0 DUP8 DUP1 EXTCODESIZE ISZERO DUP1 ISZERO PUSH2 0x2019 JUMPI PUSH1 0x0 DUP1 REVERT JUMPDEST POP GAS CALL ISZERO DUP1 ISZERO PUSH2 0x202D JUMPI RETURNDATASIZE PUSH1 0x0 DUP1 RETURNDATACOPY RETURNDATASIZE PUSH1 0x0 REVERT JUMPDEST POP POP POP POP PUSH1 0x40 MLOAD RETURNDATASIZE PUSH1 0x1F NOT PUSH1 0x1F DUP3 ADD AND DUP3 ADD DUP1 PUSH1 0x40 MSTORE POP DUP2 ADD SWAP1 PUSH2 0x2051 SWAP2 SWAP1 PUSH2 0x2343 JUMP JUMPDEST POP PUSH2 0x207E PUSH32 0x34C24423421719DE6D6278A3592F33A06675B13C97899A666BF5A7D2A5FA4028 PUSH1 0x0 SHL PUSH2 0x511 JUMP JUMPDEST PUSH2 0x20AA PUSH32 0x85265FB4419DC441E59F485553D3FB3144352601387A13941D409C02E7D343AB PUSH1 0x0 SHL PUSH2 0x511 JUMP JUMPDEST DUP2 PUSH1 0x4 ADD PUSH1 0x1 SWAP1 SLOAD SWAP1 PUSH2 0x100 EXP SWAP1 DIV PUSH20 0xFFFFFFFFFFFFFFFFFFFFFFFFFFFFFFFFFFFFFFFF AND PUSH20 0xFFFFFFFFFFFFFFFFFFFFFFFFFFFFFFFFFFFFFFFF AND PUSH4 0xA9059CBB DUP4 PUSH1 0x0 ADD PUSH1 0x0 SWAP1 SLOAD SWAP1 PUSH2 0x100 EXP SWAP1 DIV PUSH20 0xFFFFFFFFFFFFFFFFFFFFFFFFFFFFFFFFFFFFFFFF AND DUP4 PUSH1 0x40 MLOAD DUP4 PUSH4 0xFFFFFFFF AND PUSH1 0xE0 SHL DUP2 MSTORE PUSH1 0x4 ADD PUSH2 0x212D SWAP3 SWAP2 SWAP1 PUSH2 0x2736 JUMP JUMPDEST PUSH1 0x20 PUSH1 0x40 MLOAD DUP1 DUP4 SUB DUP2 PUSH1 0x0 DUP8 DUP1 EXTCODESIZE ISZERO DUP1 ISZERO PUSH2 0x2147 JUMPI PUSH1 0x0 DUP1 REVERT JUMPDEST POP GAS CALL ISZERO DUP1 ISZERO PUSH2 0x215B JUMPI RETURNDATASIZE PUSH1 0x0 DUP1 RETURNDATACOPY RETURNDATASIZE PUSH1 0x0 REVERT JUMPDEST POP POP POP POP PUSH1 0x40 MLOAD RETURNDATASIZE PUSH1 0x1F NOT PUSH1 0x1F DUP3 ADD AND DUP3 ADD DUP1 PUSH1 0x40 MSTORE POP DUP2 ADD SWAP1 PUSH2 0x217F SWAP2 SWAP1 PUSH2 0x2343 JUMP JUMPDEST POP POP POP POP JUMP JUMPDEST DUP3 DUP1 SLOAD PUSH2 0x2191 SWAP1 PUSH2 0x29D1 JUMP JUMPDEST SWAP1 PUSH1 0x0 MSTORE PUSH1 0x20 PUSH1 0x0 KECCAK256 SWAP1 PUSH1 0x1F ADD PUSH1 0x20 SWAP1 DIV DUP2 ADD SWAP3 DUP3 PUSH2 0x21B3 JUMPI PUSH1 0x0 DUP6 SSTORE PUSH2 0x21FA JUMP JUMPDEST DUP3 PUSH1 0x1F LT PUSH2 0x21CC JUMPI DUP1 MLOAD PUSH1 0xFF NOT AND DUP4 DUP1 ADD OR DUP6 SSTORE PUSH2 0x21FA JUMP JUMPDEST DUP3 DUP1 ADD PUSH1 0x1 ADD DUP6 SSTORE DUP3 ISZERO PUSH2 0x21FA JUMPI SWAP2 DUP3 ADD JUMPDEST DUP3 DUP2 GT ISZERO PUSH2 0x21F9 JUMPI DUP3 MLOAD DUP3 SSTORE SWAP2 PUSH1 0x20 ADD SWAP2 SWAP1 PUSH1 0x1 ADD SWAP1 PUSH2 0x21DE JUMP JUMPDEST JUMPDEST POP SWAP1 POP PUSH2 0x2207 SWAP2 SWAP1 PUSH2 0x220B JUMP JUMPDEST POP SWAP1 JUMP JUMPDEST JUMPDEST DUP1 DUP3 GT ISZERO PUSH2 0x2224 JUMPI PUSH1 0x0 DUP2 PUSH1 0x0 SWAP1 SSTORE POP PUSH1 0x1 ADD PUSH2 0x220C JUMP JUMPDEST POP SWAP1 JUMP JUMPDEST PUSH1 0x0 PUSH2 0x223B PUSH2 0x2236 DUP5 PUSH2 0x289A JUMP JUMPDEST PUSH2 0x2875 JUMP JUMPDEST SWAP1 POP DUP3 DUP2 MSTORE PUSH1 0x20 DUP2 ADD DUP5 DUP5 DUP5 ADD GT ISZERO PUSH2 0x2257 JUMPI PUSH2 0x2256 PUSH2 0x2AF5 JUMP JUMPDEST JUMPDEST PUSH2 0x2262 DUP5 DUP3 DUP6 PUSH2 0x298F JUMP JUMPDEST POP SWAP4 SWAP3 POP POP POP JUMP JUMPDEST PUSH1 0x0 DUP2 CALLDATALOAD SWAP1 POP PUSH2 0x2279 DUP2 PUSH2 0x2C80 JUMP JUMPDEST SWAP3 SWAP2 POP POP JUMP JUMPDEST PUSH1 0x0 DUP2 CALLDATALOAD SWAP1 POP PUSH2 0x228E DUP2 PUSH2 0x2C97 JUMP JUMPDEST SWAP3 SWAP2 POP POP JUMP JUMPDEST PUSH1 0x0 DUP2 MLOAD SWAP1 POP PUSH2 0x22A3 DUP2 PUSH2 0x2C97 JUMP JUMPDEST SWAP3 SWAP2 POP POP JUMP JUMPDEST PUSH1 0x0 DUP2 CALLDATALOAD SWAP1 POP PUSH2 0x22B8 DUP2 PUSH2 0x2CAE JUMP JUMPDEST SWAP3 SWAP2 POP POP JUMP JUMPDEST PUSH1 0x0 DUP3 PUSH1 0x1F DUP4 ADD SLT PUSH2 0x22D3 JUMPI PUSH2 0x22D2 PUSH2 0x2AF0 JUMP JUMPDEST JUMPDEST DUP2 CALLDATALOAD PUSH2 0x22E3 DUP5 DUP3 PUSH1 0x20 DUP7 ADD PUSH2 0x2228 JUMP JUMPDEST SWAP2 POP POP SWAP3 SWAP2 POP POP JUMP JUMPDEST PUSH1 0x0 DUP2 CALLDATALOAD SWAP1 POP PUSH2 0x22FB DUP2 PUSH2 0x2CC5 JUMP JUMPDEST SWAP3 SWAP2 POP POP JUMP JUMPDEST PUSH1 0x0 DUP2 MLOAD SWAP1 POP PUSH2 0x2310 DUP2 PUSH2 0x2CC5 JUMP JUMPDEST SWAP3 SWAP2 POP POP JUMP JUMPDEST PUSH1 0x0 PUSH1 0x20 DUP3 DUP5 SUB SLT ISZERO PUSH2 0x232C JUMPI PUSH2 0x232B PUSH2 0x2AFF JUMP JUMPDEST JUMPDEST PUSH1 0x0 PUSH2 0x233A DUP5 DUP3 DUP6 ADD PUSH2 0x226A JUMP JUMPDEST SWAP2 POP POP SWAP3 SWAP2 POP POP JUMP JUMPDEST PUSH1 0x0 PUSH1 0x20 DUP3 DUP5 SUB SLT ISZERO PUSH2 0x2359 JUMPI PUSH2 0x2358 PUSH2 0x2AFF JUMP JUMPDEST JUMPDEST PUSH1 0x0 PUSH2 0x2367 DUP5 DUP3 DUP6 ADD PUSH2 0x2294 JUMP JUMPDEST SWAP2 POP POP SWAP3 SWAP2 POP POP JUMP JUMPDEST PUSH1 0x0 PUSH1 0x20 DUP3 DUP5 SUB SLT ISZERO PUSH2 0x2386 JUMPI PUSH2 0x2385 PUSH2 0x2AFF JUMP JUMPDEST JUMPDEST PUSH1 0x0 PUSH2 0x2394 DUP5 DUP3 DUP6 ADD PUSH2 0x22A9 JUMP JUMPDEST SWAP2 POP POP SWAP3 SWAP2 POP POP JUMP JUMPDEST PUSH1 0x0 DUP1 PUSH1 0x0 PUSH1 0x60 DUP5 DUP7 SUB SLT ISZERO PUSH2 0x23B6 JUMPI PUSH2 0x23B5 PUSH2 0x2AFF JUMP JUMPDEST JUMPDEST PUSH1 0x0 DUP5 ADD CALLDATALOAD PUSH8 0xFFFFFFFFFFFFFFFF DUP2 GT ISZERO PUSH2 0x23D4 JUMPI PUSH2 0x23D3 PUSH2 0x2AFA JUMP JUMPDEST JUMPDEST PUSH2 0x23E0 DUP7 DUP3 DUP8 ADD PUSH2 0x22BE JUMP JUMPDEST SWAP4 POP POP PUSH1 0x20 PUSH2 0x23F1 DUP7 DUP3 DUP8 ADD PUSH2 0x22EC JUMP JUMPDEST SWAP3 POP POP PUSH1 0x40 PUSH2 0x2402 DUP7 DUP3 DUP8 ADD PUSH2 0x226A JUMP JUMPDEST SWAP2 POP POP SWAP3 POP SWAP3 POP SWAP3 JUMP JUMPDEST PUSH1 0x0 PUSH1 0x20 DUP3 DUP5 SUB SLT ISZERO PUSH2 0x2422 JUMPI PUSH2 0x2421 PUSH2 0x2AFF JUMP JUMPDEST JUMPDEST PUSH1 0x0 PUSH2 0x2430 DUP5 DUP3 DUP6 ADD PUSH2 0x22EC JUMP JUMPDEST SWAP2 POP POP SWAP3 SWAP2 POP POP JUMP JUMPDEST PUSH1 0x0 PUSH1 0x20 DUP3 DUP5 SUB SLT ISZERO PUSH2 0x244F JUMPI PUSH2 0x244E PUSH2 0x2AFF JUMP JUMPDEST JUMPDEST PUSH1 0x0 PUSH2 0x245D DUP5 DUP3 DUP6 ADD PUSH2 0x2301 JUMP JUMPDEST SWAP2 POP POP SWAP3 SWAP2 POP POP JUMP JUMPDEST PUSH1 0x0 DUP1 PUSH1 0x40 DUP4 DUP6 SUB SLT ISZERO PUSH2 0x247D JUMPI PUSH2 0x247C PUSH2 0x2AFF JUMP JUMPDEST JUMPDEST PUSH1 0x0 PUSH2 0x248B DUP6 DUP3 DUP7 ADD PUSH2 0x22EC JUMP JUMPDEST SWAP3 POP POP PUSH1 0x20 PUSH2 0x249C DUP6 DUP3 DUP7 ADD PUSH2 0x227F JUMP JUMPDEST SWAP2 POP POP SWAP3 POP SWAP3 SWAP1 POP JUMP JUMPDEST PUSH1 0x0 DUP1 PUSH1 0x40 DUP4 DUP6 SUB SLT ISZERO PUSH2 0x24BD JUMPI PUSH2 0x24BC PUSH2 0x2AFF JUMP JUMPDEST JUMPDEST PUSH1 0x0 PUSH2 0x24CB DUP6 DUP3 DUP7 ADD PUSH2 0x22EC JUMP JUMPDEST SWAP3 POP POP PUSH1 0x20 PUSH2 0x24DC DUP6 DUP3 DUP7 ADD PUSH2 0x22EC JUMP JUMPDEST SWAP2 POP POP SWAP3 POP SWAP3 SWAP1 POP JUMP JUMPDEST PUSH2 0x24EF DUP2 PUSH2 0x293D JUMP JUMPDEST DUP3 MSTORE POP POP JUMP JUMPDEST PUSH2 0x24FE DUP2 PUSH2 0x294F JUMP JUMPDEST DUP3 MSTORE POP POP JUMP JUMPDEST PUSH1 0x0 PUSH2 0x250F DUP3 PUSH2 0x28CB JUMP JUMPDEST PUSH2 0x2519 DUP2 DUP6 PUSH2 0x28D6 JUMP JUMPDEST SWAP4 POP PUSH2 0x2529 DUP2 DUP6 PUSH1 0x20 DUP7 ADD PUSH2 0x299E JUMP JUMPDEST PUSH2 0x2532 DUP2 PUSH2 0x2B04 JUMP JUMPDEST DUP5 ADD SWAP2 POP POP SWAP3 SWAP2 POP POP JUMP JUMPDEST PUSH1 0x0 PUSH2 0x254A PUSH1 0x1F DUP4 PUSH2 0x28D6 JUMP JUMPDEST SWAP2 POP PUSH2 0x2555 DUP3 PUSH2 0x2B15 JUMP JUMPDEST PUSH1 0x20 DUP3 ADD SWAP1 POP SWAP2 SWAP1 POP JUMP JUMPDEST PUSH1 0x0 PUSH2 0x256D PUSH1 0x1E DUP4 PUSH2 0x28D6 JUMP JUMPDEST SWAP2 POP PUSH2 0x2578 DUP3 PUSH2 0x2B3E JUMP JUMPDEST PUSH1 0x20 DUP3 ADD SWAP1 POP SWAP2 SWAP1 POP JUMP JUMPDEST PUSH1 0x0 PUSH2 0x2590 PUSH1 0x18 DUP4 PUSH2 0x28D6 JUMP JUMPDEST SWAP2 POP PUSH2 0x259B DUP3 PUSH2 0x2B67 JUMP JUMPDEST PUSH1 0x20 DUP3 ADD SWAP1 POP SWAP2 SWAP1 POP JUMP JUMPDEST PUSH1 0x0 PUSH2 0x25B3 PUSH1 0x1D DUP4 PUSH2 0x28D6 JUMP JUMPDEST SWAP2 POP PUSH2 0x25BE DUP3 PUSH2 0x2B90 JUMP JUMPDEST PUSH1 0x20 DUP3 ADD SWAP1 POP SWAP2 SWAP1 POP JUMP JUMPDEST PUSH1 0x0 PUSH2 0x25D6 PUSH1 0x29 DUP4 PUSH2 0x28D6 JUMP JUMPDEST SWAP2 POP PUSH2 0x25E1 DUP3 PUSH2 0x2BB9 JUMP JUMPDEST PUSH1 0x40 DUP3 ADD SWAP1 POP SWAP2 SWAP1 POP JUMP JUMPDEST PUSH1 0x0 PUSH2 0x25F9 PUSH1 0x3D DUP4 PUSH2 0x28D6 JUMP JUMPDEST SWAP2 POP PUSH2 0x2604 DUP3 PUSH2 0x2C08 JUMP JUMPDEST PUSH1 0x40 DUP3 ADD SWAP1 POP SWAP2 SWAP1 POP JUMP JUMPDEST PUSH1 0x0 PUSH2 0x261C PUSH1 0x1E DUP4 PUSH2 0x28D6 JUMP JUMPDEST SWAP2 POP PUSH2 0x2627 DUP3 PUSH2 0x2C57 JUMP JUMPDEST PUSH1 0x20 DUP3 ADD SWAP1 POP SWAP2 SWAP1 POP JUMP JUMPDEST PUSH2 0x263B DUP2 PUSH2 0x2985 JUMP JUMPDEST DUP3 MSTORE POP POP JUMP JUMPDEST PUSH1 0x0 PUSH1 0x20 DUP3 ADD SWAP1 POP PUSH2 0x2656 PUSH1 0x0 DUP4 ADD DUP5 PUSH2 0x24E6 JUMP JUMPDEST SWAP3 SWAP2 POP POP JUMP JUMPDEST PUSH1 0x0 PUSH1 0x60 DUP3 ADD SWAP1 POP PUSH2 0x2671 PUSH1 0x0 DUP4 ADD DUP7 PUSH2 0x24E6 JUMP JUMPDEST PUSH2 0x267E PUSH1 0x20 DUP4 ADD DUP6 PUSH2 0x24E6 JUMP JUMPDEST PUSH2 0x268B PUSH1 0x40 DUP4 ADD DUP5 PUSH2 0x2632 JUMP JUMPDEST SWAP5 SWAP4 POP POP POP POP JUMP JUMPDEST PUSH1 0x0 PUSH2 0x140 DUP3 ADD SWAP1 POP PUSH2 0x26A9 PUSH1 0x0 DUP4 ADD DUP14 PUSH2 0x24E6 JUMP JUMPDEST DUP2 DUP2 SUB PUSH1 0x20 DUP4 ADD MSTORE PUSH2 0x26BB DUP2 DUP13 PUSH2 0x2504 JUMP JUMPDEST SWAP1 POP PUSH2 0x26CA PUSH1 0x40 DUP4 ADD DUP12 PUSH2 0x2632 JUMP JUMPDEST PUSH2 0x26D7 PUSH1 0x60 DUP4 ADD DUP11 PUSH2 0x2632 JUMP JUMPDEST PUSH2 0x26E4 PUSH1 0x80 DUP4 ADD DUP10 PUSH2 0x24F5 JUMP JUMPDEST PUSH2 0x26F1 PUSH1 0xA0 DUP4 ADD DUP9 PUSH2 0x24E6 JUMP JUMPDEST PUSH2 0x26FE PUSH1 0xC0 DUP4 ADD DUP8 PUSH2 0x24F5 JUMP JUMPDEST PUSH2 0x270B PUSH1 0xE0 DUP4 ADD DUP7 PUSH2 0x24F5 JUMP JUMPDEST PUSH2 0x2719 PUSH2 0x100 DUP4 ADD DUP6 PUSH2 0x24F5 JUMP JUMPDEST PUSH2 0x2727 PUSH2 0x120 DUP4 ADD DUP5 PUSH2 0x24E6 JUMP JUMPDEST SWAP12 SWAP11 POP POP POP POP POP POP POP POP POP POP POP JUMP JUMPDEST PUSH1 0x0 PUSH1 0x40 DUP3 ADD SWAP1 POP PUSH2 0x274B PUSH1 0x0 DUP4 ADD DUP6 PUSH2 0x24E6 JUMP JUMPDEST PUSH2 0x2758 PUSH1 0x20 DUP4 ADD DUP5 PUSH2 0x2632 JUMP JUMPDEST SWAP4 SWAP3 POP POP POP JUMP JUMPDEST PUSH1 0x0 PUSH1 0x20 DUP3 ADD SWAP1 POP PUSH2 0x2774 PUSH1 0x0 DUP4 ADD DUP5 PUSH2 0x24F5 JUMP JUMPDEST SWAP3 SWAP2 POP POP JUMP JUMPDEST PUSH1 0x0 PUSH1 0x20 DUP3 ADD SWAP1 POP DUP2 DUP2 SUB PUSH1 0x0 DUP4 ADD MSTORE PUSH2 0x2793 DUP2 PUSH2 0x253D JUMP JUMPDEST SWAP1 POP SWAP2 SWAP1 POP JUMP JUMPDEST PUSH1 0x0 PUSH1 0x20 DUP3 ADD SWAP1 POP DUP2 DUP2 SUB PUSH1 0x0 DUP4 ADD MSTORE PUSH2 0x27B3 DUP2 PUSH2 0x2560 JUMP JUMPDEST SWAP1 POP SWAP2 SWAP1 POP JUMP JUMPDEST PUSH1 0x0 PUSH1 0x20 DUP3 ADD SWAP1 POP DUP2 DUP2 SUB PUSH1 0x0 DUP4 ADD MSTORE PUSH2 0x27D3 DUP2 PUSH2 0x2583 JUMP JUMPDEST SWAP1 POP SWAP2 SWAP1 POP JUMP JUMPDEST PUSH1 0x0 PUSH1 0x20 DUP3 ADD SWAP1 POP DUP2 DUP2 SUB PUSH1 0x0 DUP4 ADD MSTORE PUSH2 0x27F3 DUP2 PUSH2 0x25A6 JUMP JUMPDEST SWAP1 POP SWAP2 SWAP1 POP JUMP JUMPDEST PUSH1 0x0 PUSH1 0x20 DUP3 ADD SWAP1 POP DUP2 DUP2 SUB PUSH1 0x0 DUP4 ADD MSTORE PUSH2 0x2813 DUP2 PUSH2 0x25C9 JUMP JUMPDEST SWAP1 POP SWAP2 SWAP1 POP JUMP JUMPDEST PUSH1 0x0 PUSH1 0x20 DUP3 ADD SWAP1 POP DUP2 DUP2 SUB PUSH1 0x0 DUP4 ADD MSTORE PUSH2 0x2833 DUP2 PUSH2 0x25EC JUMP JUMPDEST SWAP1 POP SWAP2 SWAP1 POP JUMP JUMPDEST PUSH1 0x0 PUSH1 0x20 DUP3 ADD SWAP1 POP DUP2 DUP2 SUB PUSH1 0x0 DUP4 ADD MSTORE PUSH2 0x2853 DUP2 PUSH2 0x260F JUMP JUMPDEST SWAP1 POP SWAP2 SWAP1 POP JUMP JUMPDEST PUSH1 0x0 PUSH1 0x20 DUP3 ADD SWAP1 POP PUSH2 0x286F PUSH1 0x0 DUP4 ADD DUP5 PUSH2 0x2632 JUMP JUMPDEST SWAP3 SWAP2 POP POP JUMP JUMPDEST PUSH1 0x0 PUSH2 0x287F PUSH2 0x2890 JUMP JUMPDEST SWAP1 POP PUSH2 0x288B DUP3 DUP3 PUSH2 0x2A03 JUMP JUMPDEST SWAP2 SWAP1 POP JUMP JUMPDEST PUSH1 0x0 PUSH1 0x40 MLOAD SWAP1 POP SWAP1 JUMP JUMPDEST PUSH1 0x0 PUSH8 0xFFFFFFFFFFFFFFFF DUP3 GT ISZERO PUSH2 0x28B5 JUMPI PUSH2 0x28B4 PUSH2 0x2AC1 JUMP JUMPDEST JUMPDEST PUSH2 0x28BE DUP3 PUSH2 0x2B04 JUMP JUMPDEST SWAP1 POP PUSH1 0x20 DUP2 ADD SWAP1 POP SWAP2 SWAP1 POP JUMP JUMPDEST PUSH1 0x0 DUP2 MLOAD SWAP1 POP SWAP2 SWAP1 POP JUMP JUMPDEST PUSH1 0x0 DUP3 DUP3 MSTORE PUSH1 0x20 DUP3 ADD SWAP1 POP SWAP3 SWAP2 POP POP JUMP JUMPDEST PUSH1 0x0 PUSH2 0x28F2 DUP3 PUSH2 0x2985 JUMP JUMPDEST SWAP2 POP PUSH2 0x28FD DUP4 PUSH2 0x2985 JUMP JUMPDEST SWAP3 POP DUP3 PUSH32 0xFFFFFFFFFFFFFFFFFFFFFFFFFFFFFFFFFFFFFFFFFFFFFFFFFFFFFFFFFFFFFFFF SUB DUP3 GT ISZERO PUSH2 0x2932 JUMPI PUSH2 0x2931 PUSH2 0x2A34 JUMP JUMPDEST JUMPDEST DUP3 DUP3 ADD SWAP1 POP SWAP3 SWAP2 POP POP JUMP JUMPDEST PUSH1 0x0 PUSH2 0x2948 DUP3 PUSH2 0x2965 JUMP JUMPDEST SWAP1 POP SWAP2 SWAP1 POP JUMP JUMPDEST PUSH1 0x0 DUP2 ISZERO ISZERO SWAP1 POP SWAP2 SWAP1 POP JUMP JUMPDEST PUSH1 0x0 DUP2 SWAP1 POP SWAP2 SWAP1 POP JUMP JUMPDEST PUSH1 0x0 PUSH20 0xFFFFFFFFFFFFFFFFFFFFFFFFFFFFFFFFFFFFFFFF DUP3 AND SWAP1 POP SWAP2 SWAP1 POP JUMP JUMPDEST PUSH1 0x0 DUP2 SWAP1 POP SWAP2 SWAP1 POP JUMP JUMPDEST DUP3 DUP2 DUP4 CALLDATACOPY PUSH1 0x0 DUP4 DUP4 ADD MSTORE POP POP POP JUMP JUMPDEST PUSH1 0x0 JUMPDEST DUP4 DUP2 LT ISZERO PUSH2 0x29BC JUMPI DUP1 DUP3 ADD MLOAD DUP2 DUP5 ADD MSTORE PUSH1 0x20 DUP2 ADD SWAP1 POP PUSH2 0x29A1 JUMP JUMPDEST DUP4 DUP2 GT ISZERO PUSH2 0x29CB JUMPI PUSH1 0x0 DUP5 DUP5 ADD MSTORE JUMPDEST POP POP POP POP JUMP JUMPDEST PUSH1 0x0 PUSH1 0x2 DUP3 DIV SWAP1 POP PUSH1 0x1 DUP3 AND DUP1 PUSH2 0x29E9 JUMPI PUSH1 0x7F DUP3 AND SWAP2 POP JUMPDEST PUSH1 0x20 DUP3 LT DUP2 EQ ISZERO PUSH2 0x29FD JUMPI PUSH2 0x29FC PUSH2 0x2A63 JUMP JUMPDEST JUMPDEST POP SWAP2 SWAP1 POP JUMP JUMPDEST PUSH2 0x2A0C DUP3 PUSH2 0x2B04 JUMP JUMPDEST DUP2 ADD DUP2 DUP2 LT PUSH8 0xFFFFFFFFFFFFFFFF DUP3 GT OR ISZERO PUSH2 0x2A2B JUMPI PUSH2 0x2A2A PUSH2 0x2AC1 JUMP JUMPDEST JUMPDEST DUP1 PUSH1 0x40 MSTORE POP POP POP JUMP JUMPDEST PUSH32 0x4E487B7100000000000000000000000000000000000000000000000000000000 PUSH1 0x0 MSTORE PUSH1 0x11 PUSH1 0x4 MSTORE PUSH1 0x24 PUSH1 0x0 REVERT JUMPDEST PUSH32 0x4E487B7100000000000000000000000000000000000000000000000000000000 PUSH1 0x0 MSTORE PUSH1 0x22 PUSH1 0x4 MSTORE PUSH1 0x24 PUSH1 0x0 REVERT JUMPDEST PUSH32 0x4E487B7100000000000000000000000000000000000000000000000000000000 PUSH1 0x0 MSTORE PUSH1 0x32 PUSH1 0x4 MSTORE PUSH1 0x24 PUSH1 0x0 REVERT JUMPDEST PUSH32 0x4E487B7100000000000000000000000000000000000000000000000000000000 PUSH1 0x0 MSTORE PUSH1 0x41 PUSH1 0x4 MSTORE PUSH1 0x24 PUSH1 0x0 REVERT JUMPDEST PUSH1 0x0 DUP1 REVERT JUMPDEST PUSH1 0x0 DUP1 REVERT JUMPDEST PUSH1 0x0 DUP1 REVERT JUMPDEST PUSH1 0x0 DUP1 REVERT JUMPDEST PUSH1 0x0 PUSH1 0x1F NOT PUSH1 0x1F DUP4 ADD AND SWAP1 POP SWAP2 SWAP1 POP JUMP JUMPDEST PUSH32 0x4F6E6C79206F776E6572732063616E2077697468647261772066756E64732E00 PUSH1 0x0 DUP3 ADD MSTORE POP JUMP JUMPDEST PUSH32 0x4F776E6572732063616E6E6F7420736574746C652064697370757465732E0000 PUSH1 0x0 DUP3 ADD MSTORE POP JUMP JUMPDEST PUSH32 0x4F6E6C79206275796572732063616E20617070726F76652E0000000000000000 PUSH1 0x0 DUP3 ADD MSTORE POP JUMP JUMPDEST PUSH32 0x4E6F626F64792070757263686173656420746865206974656D20796574000000 PUSH1 0x0 DUP3 ADD MSTORE POP JUMP JUMPDEST PUSH32 0x54686520627579657220646964206E6F7420617070726F766520746865207472 PUSH1 0x0 DUP3 ADD MSTORE PUSH32 0x616E73616374696F6E0000000000000000000000000000000000000000000000 PUSH1 0x20 DUP3 ADD MSTORE POP JUMP JUMPDEST PUSH32 0x546865207472616E73616374696F6E206973206265696E672064697370757465 PUSH1 0x0 DUP3 ADD MSTORE PUSH32 0x642C20706C65617365207761697420666F72207265736F6C7574696F6E000000 PUSH1 0x20 DUP3 ADD MSTORE POP JUMP JUMPDEST PUSH32 0x4275796572732063616E6E6F7420736574746C652064697370757465732E0000 PUSH1 0x0 DUP3 ADD MSTORE POP JUMP JUMPDEST PUSH2 0x2C89 DUP2 PUSH2 0x293D JUMP JUMPDEST DUP2 EQ PUSH2 0x2C94 JUMPI PUSH1 0x0 DUP1 REVERT JUMPDEST POP JUMP JUMPDEST PUSH2 0x2CA0 DUP2 PUSH2 0x294F JUMP JUMPDEST DUP2 EQ PUSH2 0x2CAB JUMPI PUSH1 0x0 DUP1 REVERT JUMPDEST POP JUMP JUMPDEST PUSH2 0x2CB7 DUP2 PUSH2 0x295B JUMP JUMPDEST DUP2 EQ PUSH2 0x2CC2 JUMPI PUSH1 0x0 DUP1 REVERT JUMPDEST POP JUMP JUMPDEST PUSH2 0x2CCE DUP2 PUSH2 0x2985 JUMP JUMPDEST DUP2 EQ PUSH2 0x2CD9 JUMPI PUSH1 0x0 DUP1 REVERT JUMPDEST POP JUMP INVALID LOG2 PUSH5 0x6970667358 0x22 SLT KECCAK256 GT PUSH18 0x6F199E48A9DB7036DC62C1F840A23573985B 0xBC PUSH10 0x7A43CA48032EF44DECC4 PUSH5 0x736F6C6343 STOP ADDMOD SMOD STOP CALLER "
        },
        "methodIdentifiers": {
          "approvePurchase(uint256)": "b37b53f7",
          "balances(address)": "27e235e3",
          "c_0xbef6b2c4(bytes32)": "57ca958c",
          "disputePurchase(uint256)": "67356a06",
          "getBalanceOf(address)": "9b96eece",
          "getContractBalanceOf(address)": "26a03d84",
          "openItems(uint256)": "18c0184f",
          "purchaseItem(uint256,uint256)": "e0675698",
          "sellItem(string,uint256,address)": "ae8ef20a",
          "settleDispute(uint256,bool)": "92305435",
          "withdrawMoneyFromContract(uint256)": "fdff051d"
        }
      }
    }
  }
}