{
  "contracts/SellGoods.sol": {
    "GoodsExchange": {
      "abi": [
        {
          "inputs": [
            {
              "internalType": "uint256",
              "name": "itemIndex",
              "type": "uint256"
            }
          ],
          "name": "approvePurchase",
          "outputs": [],
          "stateMutability": "nonpayable",
          "type": "function"
        },
        {
          "inputs": [
            {
              "internalType": "bytes32",
              "name": "c__0x74c48283",
              "type": "bytes32"
            }
          ],
          "name": "c_0x74c48283",
          "outputs": [],
          "stateMutability": "pure",
          "type": "function"
        },
        {
          "inputs": [
            {
              "internalType": "uint256",
              "name": "itemIndex",
              "type": "uint256"
            }
          ],
          "name": "disputePurchase",
          "outputs": [],
          "stateMutability": "nonpayable",
          "type": "function"
        },
        {
          "inputs": [
            {
              "internalType": "uint256",
              "name": "",
              "type": "uint256"
            }
          ],
          "name": "openItems",
          "outputs": [
            {
              "internalType": "address",
              "name": "owner",
              "type": "address"
            },
            {
              "internalType": "string",
              "name": "description",
              "type": "string"
            },
            {
              "internalType": "uint256",
              "name": "value",
              "type": "uint256"
            },
            {
              "internalType": "uint256",
              "name": "balance",
              "type": "uint256"
            },
            {
              "internalType": "bool",
              "name": "purchased",
              "type": "bool"
            },
            {
              "internalType": "bool",
              "name": "completed",
              "type": "bool"
            },
            {
              "internalType": "bool",
              "name": "disputed",
              "type": "bool"
            },
            {
              "internalType": "bool",
              "name": "approved",
              "type": "bool"
            },
            {
              "internalType": "address",
              "name": "buyer",
              "type": "address"
            }
          ],
          "stateMutability": "view",
          "type": "function"
        },
        {
          "inputs": [
            {
              "internalType": "uint256",
              "name": "itemIndex",
              "type": "uint256"
            }
          ],
          "name": "purchaseItem",
          "outputs": [],
          "stateMutability": "payable",
          "type": "function"
        },
        {
          "inputs": [
            {
              "internalType": "string",
              "name": "description",
              "type": "string"
            },
            {
              "internalType": "uint256",
              "name": "value",
              "type": "uint256"
            }
          ],
          "name": "sellItem",
          "outputs": [
            {
              "internalType": "bool",
              "name": "",
              "type": "bool"
            }
          ],
          "stateMutability": "nonpayable",
          "type": "function"
        },
        {
          "inputs": [
            {
              "internalType": "uint256",
              "name": "itemIndex",
              "type": "uint256"
            },
            {
              "internalType": "bool",
              "name": "purchaseReverted",
              "type": "bool"
            }
          ],
          "name": "settleDispute",
          "outputs": [],
          "stateMutability": "nonpayable",
          "type": "function"
        },
        {
          "inputs": [
            {
              "internalType": "uint256",
              "name": "itemIndex",
              "type": "uint256"
            }
          ],
          "name": "withdrawMoneyFromContract",
          "outputs": [],
          "stateMutability": "nonpayable",
          "type": "function"
        }
      ],
      "evm": {
        "bytecode": {
          "linkReferences": {},
          "object": "608060405234801561001057600080fd5b506126e6806100206000396000f3fe60806040526004361061007b5760003560e01c8063923054351161004e5780639230543514610154578063b37b53f71461017d578063d38ea5bf146101a6578063fdff051d146101c25761007b565b806318c0184f146100805780631e48fd80146100c557806367356a06146100ee5780638bd099b814610117575b600080fd5b34801561008c57600080fd5b506100a760048036038101906100a29190611edc565b6101eb565b6040516100bc999897969594939291906120ff565b60405180910390f35b3480156100d157600080fd5b506100ec60048036038101906100e79190611e53565b610345565b005b3480156100fa57600080fd5b5061011560048036038101906101109190611edc565b610348565b005b34801561012357600080fd5b5061013e60048036038101906101399190611e80565b610535565b60405161014b9190612193565b60405180910390f35b34801561016057600080fd5b5061017b60048036038101906101769190611f09565b610862565b005b34801561018957600080fd5b506101a4600480360381019061019f9190611edc565b610f64565b005b6101c060048036038101906101bb9190611edc565b6111c8565b005b3480156101ce57600080fd5b506101e960048036038101906101e49190611edc565b611571565b005b600081815481106101fb57600080fd5b90600052602060002090600502016000915090508060000160009054906101000a900473ffffffffffffffffffffffffffffffffffffffff1690806001018054610244906123bf565b80601f0160208091040260200160405190810160405280929190818152602001828054610270906123bf565b80156102bd5780601f10610292576101008083540402835291602001916102bd565b820191906000526020600020905b8154815290600101906020018083116102a057829003601f168201915b5050505050908060020154908060030154908060040160009054906101000a900460ff16908060040160019054906101000a900460ff16908060040160029054906101000a900460ff16908060040160039054906101000a900460ff16908060040160049054906101000a900473ffffffffffffffffffffffffffffffffffffffff16905089565b50565b6103747f45f4ece4f16233ee1e8581c09d75add1cdd380c7df95b3d191beb9d59e248c8560001b610345565b6103a07f1aaedb86478a6dd384f714632c72b16753ce53c2ecd0dbc10029e2a9657a7cc760001b610345565b6103cc7f9a27709b54d1831cd6debd602f19a764aa51785d8c7c28c7d71e108f2a206fb660001b610345565b60008082815481106103e1576103e0612451565b5b9060005260206000209060050201905061041d7f475cbafdea1aa5a4c96b93c5991b20de2d4bab0c5918b2c5c18684bd291e4dec60001b610345565b6104497f73b1623f6b199abccc9ae6c17a6b510c77245be3670f997500cdbfec34d053de60001b610345565b6104757f912397c06a19ced18393742fe89a6245706591509e2c5ca19f0d561ab5e67c7560001b610345565b8060040160009054906101000a900460ff1661049057600080fd5b6104bc7fcecee8b55956ca4281bbacc9d00d9cc1174650c82814d0f4950165d1fbf2f58760001b610345565b6104e87fb5d091433337aba745aa03597998015d2a33178cbc6991b7257c2b6c8da09c1c60001b610345565b6105147fb7547c2bb4320143430c55ed4c4a890579da98a101f3c8b3cc2bfacbf66a4f3e60001b610345565b60018160040160026101000a81548160ff0219169083151502179055505050565b60006105637f9e61faed1510563037f94a9233116afcb75181e4ba861a2c08a687b8db754c2460001b610345565b61058f7fac8aab52e14494f90fb5aebab23af002b75b7692f5512f89d4903931753991a660001b610345565b6105bb7ffaa91791f1c49d6ce00415e88a8a0213d5f7d2ed52cb5b27921c6e58a19ebb4760001b610345565b60006040518061012001604052803373ffffffffffffffffffffffffffffffffffffffff16815260200185815260200184815260200160008152602001600015158152602001600015158152602001600015158152602001600015158152602001600073ffffffffffffffffffffffffffffffffffffffff1681525090506106657fb02bb8b1846583fe67291000dfb5056c144df7dbf1d985dbb3a1d3a5f3e9f3d560001b610345565b6106917f7ef2f241e59b25773296847e85983d7db55de877276b1b6bb77e3a1125f0873460001b610345565b600081908060018154018082558091505060019003906000526020600020906005020160009091909190915060008201518160000160006101000a81548173ffffffffffffffffffffffffffffffffffffffff021916908373ffffffffffffffffffffffffffffffffffffffff1602179055506020820151816001019080519060200190610720929190611d01565b50604082015181600201556060820151816003015560808201518160040160006101000a81548160ff02191690831515021790555060a08201518160040160016101000a81548160ff02191690831515021790555060c08201518160040160026101000a81548160ff02191690831515021790555060e08201518160040160036101000a81548160ff0219169083151502179055506101008201518160040160046101000a81548173ffffffffffffffffffffffffffffffffffffffff021916908373ffffffffffffffffffffffffffffffffffffffff160217905550505061082b7f1685df78e626f4d480e4edc0081d3c7e15c1735c917f9fa6200850d35138a27060001b610345565b6108577f946a1245899ff1203838f62599afffdd8ddf2ea88766b1a10c19bf4c817aab6d60001b610345565b600191505092915050565b61088e7f32f28f59c6b9c3737ceefccfa02651220be17f99cb6f7d254b48f7a581f4bd0760001b610345565b6108ba7ff0cb6a8c342b5efcd7bc09f70a5b69f9d0e0bfd763c132b448ad57e4757535fb60001b610345565b6108e67f8842a992307a0418790be7a681bfd525530c124bb20726a084ccb708c8cc28f260001b610345565b60008083815481106108fb576108fa612451565b5b906000526020600020906005020190506109377f09dcf540d490baacaef42678b7f084e8d23cc1bd9d3cfe64ac5be20380e4e0db60001b610345565b6109637fae6cdc33c5a872a39b6c701a3f15f204034aa5d8f9e6fcb043e07e7211bfcca860001b610345565b61098f7f2a8dbace158234f07a4aa069646ae9d3afebc155ae8533cef43d9f657cd0513260001b610345565b8060000160009054906101000a900473ffffffffffffffffffffffffffffffffffffffff1673ffffffffffffffffffffffffffffffffffffffff163373ffffffffffffffffffffffffffffffffffffffff161415610a22576040517f08c379a0000000000000000000000000000000000000000000000000000000008152600401610a19906121ce565b60405180910390fd5b610a4e7f572a222959348348e05aa17671cd810af2bb1295dcc94f5e77a763b330db41ce60001b610345565b610a7a7f6f12e013912b935bdb0bb92b972e356e5f7daae144d048d09186c43dfb867e9360001b610345565b610aa67f5ac1e2be656d313d56cd252c3e35b53395c784d2e1e0296b93e998035f5b5edd60001b610345565b610ad27ff590b9e627bfc4a40ef990705d50d3a6d06ecc2dd0f2e1f8a7cc67bcc469b3bd60001b610345565b8060040160049054906101000a900473ffffffffffffffffffffffffffffffffffffffff1673ffffffffffffffffffffffffffffffffffffffff163373ffffffffffffffffffffffffffffffffffffffff161415610b65576040517f08c379a0000000000000000000000000000000000000000000000000000000008152600401610b5c9061228e565b60405180910390fd5b610b917fc7801b1d1fd064921b2e2fc71549a7e7d34028e29738d99ad0b880a809ea68f960001b610345565b610bbd7fb170860d7bb06c12e7fbbddbf231bd34a6c790471f488587003d4a1f35f0428160001b610345565b610be97feb474fc5d866ee66b90cce1b11606cf9a95ea09c195d447af724a32076c91efe60001b610345565b8115610ebd57610c1b7f94698cc9bed7b415a0621b054f248363b8cc91d9a7821d329db98975e946832c60001b610345565b610c477f3f0bae53d6195d57164f94fa4cd0c9172af3fbe6c69af61c5b22501903f0f54f60001b610345565b610c737f1a1026a7c4691e2abb2266a41fd4df760edeb2acb296095ac9dae2e171ab7f4b60001b610345565b600081600301549050610ca87f5b2bab780943db43158f424c3410dc0e465cdec5f48f0037ee7400c358a60d4360001b610345565b610cd47f798304935989fb36cc4a83a8c9d22ff651f76e5fb5d7206615ad6267c7aa137860001b610345565b60008260030181905550610d0a7fddbec13f9c544f8c7d9acdd7fbe150764325797a3f6bb6be0745bf2a1b26077660001b610345565b610d367f288e6c6471e5ce6c4389322fbc7703e1837a31b8e36702c7263780d0de84b3e460001b610345565b60008260040160049054906101000a900473ffffffffffffffffffffffffffffffffffffffff1673ffffffffffffffffffffffffffffffffffffffff1682604051610d80906120ea565b60006040518083038185875af1925050503d8060008114610dbd576040519150601f19603f3d011682016040523d82523d6000602084013e610dc2565b606091505b50509050610df27f70f577c47a99b065d5765f69f4c6e59568ca7ade32b5657e17b9e94bc89949e060001b610345565b610e1e7f86b9398f88d3c77e34bdce141becd90310519666a70532a170f9b04162d7c2e460001b610345565b610e4a7f2ff1b2e9546aff33994b454025cb228d8fd5a1f859737513d4516ed883954f8460001b610345565b80610e8a576040517f08c379a0000000000000000000000000000000000000000000000000000000008152600401610e819061224e565b60405180910390fd5b610eb67f5cf8c47f861d8f70fa75c7ed0cee18f6b52136f80abef105fc154c458675a75c60001b610345565b5050610eea565b610ee97f7f902313b7594273b4319ebe3ae7683b76c455984f13711206f958e4fb6228ae60001b610345565b5b610f167faa4fc0fa95cd6ffcf700d3e226453a9ae73379c43f64f08cd03a4171a5fa97bf60001b610345565b610f427ffd16fee8f28b4dffe3b65ec3c3d4d284deacbdc9ffff9a16351e0ec269765c6460001b610345565b60008160040160026101000a81548160ff021916908315150217905550505050565b610f907feab182a68d57b01920f19fd4a1d82896cbcfaff0832ff16db88fe3c51a53cafe60001b610345565b610fbc7fe5a074a451433a287db7c63313965d189e3feea5fcf8bf18ceaa94bc316fb49060001b610345565b610fe87f3783b1bc3ddf644be6dc71cfb9cc1834289641d71c259fdf222409bfd6d862b760001b610345565b6000808281548110610ffd57610ffc612451565b5b906000526020600020906005020190506110397feb0d81ffe0d25c1d0e52f3e47f8aa9f8cd51e36b92dd7c63b585e7258ce9948960001b610345565b6110657f2905e336d213415543a6ea8e269a2339c4069cd22b8156e679ffdca9f692fc2860001b610345565b6110917fda1896118d1a95584400ad5148faf028e6f2e9e95704487e8ce97ee3c593490560001b610345565b3373ffffffffffffffffffffffffffffffffffffffff168160040160049054906101000a900473ffffffffffffffffffffffffffffffffffffffff1673ffffffffffffffffffffffffffffffffffffffff1614611123576040517f08c379a000000000000000000000000000000000000000000000000000000000815260040161111a906121ee565b60405180910390fd5b61114f7fff7cf4d6453bfd0864dffe7a6d1c9fa84b3729d0c650384f099254b391f08fae60001b610345565b61117b7f5114a44e34a89f94348edd4236ec2d77b74d9b64e2c35e162b457c24224735e560001b610345565b6111a77fe17533cabb69038ea92258473ed44c46af8f5a31dd1e22edb4123e676b972c5960001b610345565b60018160040160036101000a81548160ff0219169083151502179055505050565b6111f47f892e0a0a61b4a7cb884f496aa2cfe58e9baa805f7056798ccd3b50d8f9f47b4560001b610345565b6112207f29ec312e78e39c8b07da311293791bb0ad1b19fbba4de241d7747575b6bb81ba60001b610345565b61124c7f0ae1e74daa4a3a8bdf3c42c332b0a42ce8b61607e42468a6ad92afedff2eb21160001b610345565b600080828154811061126157611260612451565b5b9060005260206000209060050201905061129d7f19b993aa21125a9378dd04a547c69fc5b4715f50938d31f67dba767f452942ed60001b610345565b6112c97f4d2cd04ef3cb4d4877be228e9a243747bd783bf61bbcb4b5b5f592250525345260001b610345565b6112f57fba1b45697188a0aa586dab835db618482ae8d1f14389ba42574668eb7ad5d6d060001b610345565b8060040160009054906101000a900460ff161561131157600080fd5b61133d7f8c76c5aeaf0002824be03e096e3aa5616cffaf34bd82b2e8e2b381167132fefa60001b610345565b6113697fc4281a831cd1c86d3bb7df1a21b086640948aa6157a9ef205b2bfd0a42890b5860001b610345565b6113957f58449205f715bc18cdfb48c83c265de86ac3887bc29150097cd7f2b282e7c68160001b610345565b60018160040160006101000a81548160ff0219169083151502179055506113de7fb4cd791812c2084ecd81bed323a47a199f2f4a59479f4c73dd6f36bc703f7a6760001b610345565b61140a7ffe0924f21934d936ea103bfd4a778c1987826f56186d86d4b1280dd9b7d15a9960001b610345565b6114367f356ffc0ce51d4ee882523c46a2908a9b3c5303ba9b202fa761d764a6faba58f760001b610345565b8060020154341461144657600080fd5b6114717e53c04a8e92faaf6ae4d437e06d85b82aeabaf8d48020f27e9a681f356addcb60001b610345565b61149d7f6cfb36909d2c4a7b05a344e7d8cb4f1a13eb4899ce1b7df3e0fd46817aeb26e760001b610345565b6114c97fdcc6c321bf749fab4724432a42f541a5d35f4c3ab2abccd2c5aa1baca0aff1c660001b610345565b3481600301819055506114fe7f3fc499f264ac2517f1beb390ff30fe742412de1d77e03323038b838d6e57b1f260001b610345565b61152a7f0b748b8e55e26aa7ab9fd1fdfb52faeb15b3bb7c8e6bc632c6bef13ab5745b2460001b610345565b338160040160046101000a81548173ffffffffffffffffffffffffffffffffffffffff021916908373ffffffffffffffffffffffffffffffffffffffff1602179055505050565b61159d7f17286b5dcabd3c0eef884345f549a4e12869bea8d49940124ce5d13b812cd88160001b610345565b6115c97fa05ca9851c514e246b4b953d60dccf894ef185a0a8f75b52733f9acb2d12534660001b610345565b6115f57f32fd0560ec9dafc549bf010e3330dbb877dfe15d43379f74f56827828d6c567560001b610345565b600080828154811061160a57611609612451565b5b906000526020600020906005020190506116467fc7997b4672816d5aeb38e59967ab1661665d0e72d95f0fa647a593909691802060001b610345565b6116727f08278fd28c98d79f0e524c672e936885668fbfceb58064c2d38e4e51d221de6660001b610345565b61169e7f261ab695f431dde74948579d07a9b2bfccb4075672004cb027551e2c180046c160001b610345565b8060040160009054906101000a900460ff166116ef576040517f08c379a00000000000000000000000000000000000000000000000000000000081526004016116e69061220e565b60405180910390fd5b61171b7fb508ed196f0aecb63136702a618103dee78b08150ab1d580e789c1a9c4cf6a8660001b610345565b6117477fc92f6d62cc60bde47e4085c83da634d7422ab68e29c2dd2e0ed838c330aa847160001b610345565b6117737f2c943bd121ad183d34b21a66c566e1bb97e8ea161254e7da9a42bb3ef4d45fe360001b610345565b61179f7f3682cd329b318fd84469767947e8333ba655b69f18c505428a1e79bbe5ee555460001b610345565b8060040160039054906101000a900460ff166117f0576040517f08c379a00000000000000000000000000000000000000000000000000000000081526004016117e79061222e565b60405180910390fd5b61181c7f6d21a28333007db64af6a5b822e6e524f99caa2d959754f6ddac65e50864b71d60001b610345565b6118487fb11dd04afda0de54ca6db6cfe618cecc9284a256b9f576b8d9f98f1a8ec7f7ab60001b610345565b6118747fbfd8f4d529df64874057bcefeec02ea1ac496a7895812067adbb1c4d33497ae860001b610345565b6118a07f4393cfa4fdb1a84758aec21a96d341836113abd8a9fe3ec7d3e4b3008aa2928460001b610345565b8060040160029054906101000a900460ff16156118f2576040517f08c379a00000000000000000000000000000000000000000000000000000000081526004016118e99061226e565b60405180910390fd5b61191e7f0130eddf696ac80c67e356cc1f3405dd254d88ab89103c04e17c8128ae69651e60001b610345565b61194a7fadcf34cf6bfef697de741e79f46200b7750c2b1a98516c249c7c8200626ed3a360001b610345565b6119767f5d09c9739b0ef8025ddd6659a95e4befc9a30dffdf461303c8561b193353061c60001b610345565b6119a27f884442e9e5765f379429adc53e4cc857d811e649cc966d8603970feaa8f5b7dc60001b610345565b8060000160009054906101000a900473ffffffffffffffffffffffffffffffffffffffff1673ffffffffffffffffffffffffffffffffffffffff163373ffffffffffffffffffffffffffffffffffffffff1614611a34576040517f08c379a0000000000000000000000000000000000000000000000000000000008152600401611a2b906121ae565b60405180910390fd5b611a607f8fcb539fc247a8a95eb5c7b1296087797b6d049362da0a6f37c573d289612a8f60001b610345565b611a8c7fe3722576e8ef48e15d66dd6da1949f4939ece48657d73633325f30bd3ba901f160001b610345565b611ab87fa8a63a98c33ef6be45bc51bb2b7da0ee9d53257e5935efed1c7fc13cc1252ba060001b610345565b600081600301549050611aed7f9c69ff93241226e47020989ecd52cc36776fe184b0c01f002c3d0ade31c9195860001b610345565b611b197f74de0fe26716e389965a7340f8b15ea52035768955ebe42b398023dee99bbed760001b610345565b60008260030181905550611b4f7ff19e7491afbc20b5d771c32668f2740164aba8f0f137f851bdd91d358921a07a60001b610345565b611b7b7f572713fb95a165ff75268ccb980b707db6bc26c1b39e3f7d557ce786ec79f76d60001b610345565b60008260000160009054906101000a900473ffffffffffffffffffffffffffffffffffffffff1673ffffffffffffffffffffffffffffffffffffffff1682604051611bc5906120ea565b60006040518083038185875af1925050503d8060008114611c02576040519150601f19603f3d011682016040523d82523d6000602084013e611c07565b606091505b50509050611c377fbc9a16e783da76a87a86b6533215210e63d702c1533367985e01708f47d5553260001b610345565b611c637f672beb40ad2bcf1757c8002861daefbd9469623e5b0b298de1b1e5bd21670ea660001b610345565b611c8f7f938f90a3f2440fe02a3082dd9c7944ad3660b3941b31e3141c8656709c18208c60001b610345565b80611ccf576040517f08c379a0000000000000000000000000000000000000000000000000000000008152600401611cc69061224e565b60405180910390fd5b611cfb7fc94993df632f04d8bb6066123c0accc6b45284f64ac77d72049afe6e390e756e60001b610345565b50505050565b828054611d0d906123bf565b90600052602060002090601f016020900481019282611d2f5760008555611d76565b82601f10611d4857805160ff1916838001178555611d76565b82800160010185558215611d76579182015b82811115611d75578251825591602001919060010190611d5a565b5b509050611d839190611d87565b5090565b5b80821115611da0576000816000905550600101611d88565b5090565b6000611db7611db2846122d3565b6122ae565b905082815260208101848484011115611dd357611dd26124b4565b5b611dde84828561237d565b509392505050565b600081359050611df58161266b565b92915050565b600081359050611e0a81612682565b92915050565b600082601f830112611e2557611e246124af565b5b8135611e35848260208601611da4565b91505092915050565b600081359050611e4d81612699565b92915050565b600060208284031215611e6957611e686124be565b5b6000611e7784828501611dfb565b91505092915050565b60008060408385031215611e9757611e966124be565b5b600083013567ffffffffffffffff811115611eb557611eb46124b9565b5b611ec185828601611e10565b9250506020611ed285828601611e3e565b9150509250929050565b600060208284031215611ef257611ef16124be565b5b6000611f0084828501611e3e565b91505092915050565b60008060408385031215611f2057611f1f6124be565b5b6000611f2e85828601611e3e565b9250506020611f3f85828601611de6565b9150509250929050565b611f528161232b565b82525050565b611f618161233d565b82525050565b6000611f7282612304565b611f7c818561231a565b9350611f8c81856020860161238c565b611f95816124c3565b840191505092915050565b6000611fad601f8361231a565b9150611fb8826124d4565b602082019050919050565b6000611fd0601e8361231a565b9150611fdb826124fd565b602082019050919050565b6000611ff360188361231a565b9150611ffe82612526565b602082019050919050565b6000612016601d8361231a565b91506120218261254f565b602082019050919050565b600061203960298361231a565b915061204482612578565b604082019050919050565b600061205c60008361230f565b9150612067826125c7565b600082019050919050565b600061207f60108361231a565b915061208a826125ca565b602082019050919050565b60006120a2603d8361231a565b91506120ad826125f3565b604082019050919050565b60006120c5601e8361231a565b91506120d082612642565b602082019050919050565b6120e481612373565b82525050565b60006120f58261204f565b9150819050919050565b600061012082019050612115600083018c611f49565b8181036020830152612127818b611f67565b9050612136604083018a6120db565b61214360608301896120db565b6121506080830188611f58565b61215d60a0830187611f58565b61216a60c0830186611f58565b61217760e0830185611f58565b612185610100830184611f49565b9a9950505050505050505050565b60006020820190506121a86000830184611f58565b92915050565b600060208201905081810360008301526121c781611fa0565b9050919050565b600060208201905081810360008301526121e781611fc3565b9050919050565b6000602082019050818103600083015261220781611fe6565b9050919050565b6000602082019050818103600083015261222781612009565b9050919050565b600060208201905081810360008301526122478161202c565b9050919050565b6000602082019050818103600083015261226781612072565b9050919050565b6000602082019050818103600083015261228781612095565b9050919050565b600060208201905081810360008301526122a7816120b8565b9050919050565b60006122b86122c9565b90506122c482826123f1565b919050565b6000604051905090565b600067ffffffffffffffff8211156122ee576122ed612480565b5b6122f7826124c3565b9050602081019050919050565b600081519050919050565b600081905092915050565b600082825260208201905092915050565b600061233682612353565b9050919050565b60008115159050919050565b6000819050919050565b600073ffffffffffffffffffffffffffffffffffffffff82169050919050565b6000819050919050565b82818337600083830152505050565b60005b838110156123aa57808201518184015260208101905061238f565b838111156123b9576000848401525b50505050565b600060028204905060018216806123d757607f821691505b602082108114156123eb576123ea612422565b5b50919050565b6123fa826124c3565b810181811067ffffffffffffffff8211171561241957612418612480565b5b80604052505050565b7f4e487b7100000000000000000000000000000000000000000000000000000000600052602260045260246000fd5b7f4e487b7100000000000000000000000000000000000000000000000000000000600052603260045260246000fd5b7f4e487b7100000000000000000000000000000000000000000000000000000000600052604160045260246000fd5b600080fd5b600080fd5b600080fd5b600080fd5b6000601f19601f8301169050919050565b7f4f6e6c79206f776e6572732063616e2077697468647261772066756e64732e00600082015250565b7f4f776e6572732063616e6e6f7420736574746c652064697370757465732e0000600082015250565b7f4f6e6c79206275796572732063616e20617070726f76652e0000000000000000600082015250565b7f4e6f626f64792070757263686173656420746865206974656d20796574000000600082015250565b7f54686520627579657220646964206e6f7420617070726f76652074686520747260008201527f616e73616374696f6e0000000000000000000000000000000000000000000000602082015250565b50565b7f5472616e73666572206661696c65642e00000000000000000000000000000000600082015250565b7f546865207472616e73616374696f6e206973206265696e67206469737075746560008201527f642c20706c65617365207761697420666f72207265736f6c7574696f6e000000602082015250565b7f4275796572732063616e6e6f7420736574746c652064697370757465732e0000600082015250565b6126748161233d565b811461267f57600080fd5b50565b61268b81612349565b811461269657600080fd5b50565b6126a281612373565b81146126ad57600080fd5b5056fea2646970667358221220003fc222c43e029da830926ee58e18cf5148553b3509d4656bcb4b11a30048be64736f6c63430008070033",
          "opcodes": "PUSH1 0x80 PUSH1 0x40 MSTORE CALLVALUE DUP1 ISZERO PUSH2 0x10 JUMPI PUSH1 0x0 DUP1 REVERT JUMPDEST POP PUSH2 0x26E6 DUP1 PUSH2 0x20 PUSH1 0x0 CODECOPY PUSH1 0x0 RETURN INVALID PUSH1 0x80 PUSH1 0x40 MSTORE PUSH1 0x4 CALLDATASIZE LT PUSH2 0x7B JUMPI PUSH1 0x0 CALLDATALOAD PUSH1 0xE0 SHR DUP1 PUSH4 0x92305435 GT PUSH2 0x4E JUMPI DUP1 PUSH4 0x92305435 EQ PUSH2 0x154 JUMPI DUP1 PUSH4 0xB37B53F7 EQ PUSH2 0x17D JUMPI DUP1 PUSH4 0xD38EA5BF EQ PUSH2 0x1A6 JUMPI DUP1 PUSH4 0xFDFF051D EQ PUSH2 0x1C2 JUMPI PUSH2 0x7B JUMP JUMPDEST DUP1 PUSH4 0x18C0184F EQ PUSH2 0x80 JUMPI DUP1 PUSH4 0x1E48FD80 EQ PUSH2 0xC5 JUMPI DUP1 PUSH4 0x67356A06 EQ PUSH2 0xEE JUMPI DUP1 PUSH4 0x8BD099B8 EQ PUSH2 0x117 JUMPI JUMPDEST PUSH1 0x0 DUP1 REVERT JUMPDEST CALLVALUE DUP1 ISZERO PUSH2 0x8C JUMPI PUSH1 0x0 DUP1 REVERT JUMPDEST POP PUSH2 0xA7 PUSH1 0x4 DUP1 CALLDATASIZE SUB DUP2 ADD SWAP1 PUSH2 0xA2 SWAP2 SWAP1 PUSH2 0x1EDC JUMP JUMPDEST PUSH2 0x1EB JUMP JUMPDEST PUSH1 0x40 MLOAD PUSH2 0xBC SWAP10 SWAP9 SWAP8 SWAP7 SWAP6 SWAP5 SWAP4 SWAP3 SWAP2 SWAP1 PUSH2 0x20FF JUMP JUMPDEST PUSH1 0x40 MLOAD DUP1 SWAP2 SUB SWAP1 RETURN JUMPDEST CALLVALUE DUP1 ISZERO PUSH2 0xD1 JUMPI PUSH1 0x0 DUP1 REVERT JUMPDEST POP PUSH2 0xEC PUSH1 0x4 DUP1 CALLDATASIZE SUB DUP2 ADD SWAP1 PUSH2 0xE7 SWAP2 SWAP1 PUSH2 0x1E53 JUMP JUMPDEST PUSH2 0x345 JUMP JUMPDEST STOP JUMPDEST CALLVALUE DUP1 ISZERO PUSH2 0xFA JUMPI PUSH1 0x0 DUP1 REVERT JUMPDEST POP PUSH2 0x115 PUSH1 0x4 DUP1 CALLDATASIZE SUB DUP2 ADD SWAP1 PUSH2 0x110 SWAP2 SWAP1 PUSH2 0x1EDC JUMP JUMPDEST PUSH2 0x348 JUMP JUMPDEST STOP JUMPDEST CALLVALUE DUP1 ISZERO PUSH2 0x123 JUMPI PUSH1 0x0 DUP1 REVERT JUMPDEST POP PUSH2 0x13E PUSH1 0x4 DUP1 CALLDATASIZE SUB DUP2 ADD SWAP1 PUSH2 0x139 SWAP2 SWAP1 PUSH2 0x1E80 JUMP JUMPDEST PUSH2 0x535 JUMP JUMPDEST PUSH1 0x40 MLOAD PUSH2 0x14B SWAP2 SWAP1 PUSH2 0x2193 JUMP JUMPDEST PUSH1 0x40 MLOAD DUP1 SWAP2 SUB SWAP1 RETURN JUMPDEST CALLVALUE DUP1 ISZERO PUSH2 0x160 JUMPI PUSH1 0x0 DUP1 REVERT JUMPDEST POP PUSH2 0x17B PUSH1 0x4 DUP1 CALLDATASIZE SUB DUP2 ADD SWAP1 PUSH2 0x176 SWAP2 SWAP1 PUSH2 0x1F09 JUMP JUMPDEST PUSH2 0x862 JUMP JUMPDEST STOP JUMPDEST CALLVALUE DUP1 ISZERO PUSH2 0x189 JUMPI PUSH1 0x0 DUP1 REVERT JUMPDEST POP PUSH2 0x1A4 PUSH1 0x4 DUP1 CALLDATASIZE SUB DUP2 ADD SWAP1 PUSH2 0x19F SWAP2 SWAP1 PUSH2 0x1EDC JUMP JUMPDEST PUSH2 0xF64 JUMP JUMPDEST STOP JUMPDEST PUSH2 0x1C0 PUSH1 0x4 DUP1 CALLDATASIZE SUB DUP2 ADD SWAP1 PUSH2 0x1BB SWAP2 SWAP1 PUSH2 0x1EDC JUMP JUMPDEST PUSH2 0x11C8 JUMP JUMPDEST STOP JUMPDEST CALLVALUE DUP1 ISZERO PUSH2 0x1CE JUMPI PUSH1 0x0 DUP1 REVERT JUMPDEST POP PUSH2 0x1E9 PUSH1 0x4 DUP1 CALLDATASIZE SUB DUP2 ADD SWAP1 PUSH2 0x1E4 SWAP2 SWAP1 PUSH2 0x1EDC JUMP JUMPDEST PUSH2 0x1571 JUMP JUMPDEST STOP JUMPDEST PUSH1 0x0 DUP2 DUP2 SLOAD DUP2 LT PUSH2 0x1FB JUMPI PUSH1 0x0 DUP1 REVERT JUMPDEST SWAP1 PUSH1 0x0 MSTORE PUSH1 0x20 PUSH1 0x0 KECCAK256 SWAP1 PUSH1 0x5 MUL ADD PUSH1 0x0 SWAP2 POP SWAP1 POP DUP1 PUSH1 0x0 ADD PUSH1 0x0 SWAP1 SLOAD SWAP1 PUSH2 0x100 EXP SWAP1 DIV PUSH20 0xFFFFFFFFFFFFFFFFFFFFFFFFFFFFFFFFFFFFFFFF AND SWAP1 DUP1 PUSH1 0x1 ADD DUP1 SLOAD PUSH2 0x244 SWAP1 PUSH2 0x23BF JUMP JUMPDEST DUP1 PUSH1 0x1F ADD PUSH1 0x20 DUP1 SWAP2 DIV MUL PUSH1 0x20 ADD PUSH1 0x40 MLOAD SWAP1 DUP2 ADD PUSH1 0x40 MSTORE DUP1 SWAP3 SWAP2 SWAP1 DUP2 DUP2 MSTORE PUSH1 0x20 ADD DUP3 DUP1 SLOAD PUSH2 0x270 SWAP1 PUSH2 0x23BF JUMP JUMPDEST DUP1 ISZERO PUSH2 0x2BD JUMPI DUP1 PUSH1 0x1F LT PUSH2 0x292 JUMPI PUSH2 0x100 DUP1 DUP4 SLOAD DIV MUL DUP4 MSTORE SWAP2 PUSH1 0x20 ADD SWAP2 PUSH2 0x2BD JUMP JUMPDEST DUP3 ADD SWAP2 SWAP1 PUSH1 0x0 MSTORE PUSH1 0x20 PUSH1 0x0 KECCAK256 SWAP1 JUMPDEST DUP2 SLOAD DUP2 MSTORE SWAP1 PUSH1 0x1 ADD SWAP1 PUSH1 0x20 ADD DUP1 DUP4 GT PUSH2 0x2A0 JUMPI DUP3 SWAP1 SUB PUSH1 0x1F AND DUP3 ADD SWAP2 JUMPDEST POP POP POP POP POP SWAP1 DUP1 PUSH1 0x2 ADD SLOAD SWAP1 DUP1 PUSH1 0x3 ADD SLOAD SWAP1 DUP1 PUSH1 0x4 ADD PUSH1 0x0 SWAP1 SLOAD SWAP1 PUSH2 0x100 EXP SWAP1 DIV PUSH1 0xFF AND SWAP1 DUP1 PUSH1 0x4 ADD PUSH1 0x1 SWAP1 SLOAD SWAP1 PUSH2 0x100 EXP SWAP1 DIV PUSH1 0xFF AND SWAP1 DUP1 PUSH1 0x4 ADD PUSH1 0x2 SWAP1 SLOAD SWAP1 PUSH2 0x100 EXP SWAP1 DIV PUSH1 0xFF AND SWAP1 DUP1 PUSH1 0x4 ADD PUSH1 0x3 SWAP1 SLOAD SWAP1 PUSH2 0x100 EXP SWAP1 DIV PUSH1 0xFF AND SWAP1 DUP1 PUSH1 0x4 ADD PUSH1 0x4 SWAP1 SLOAD SWAP1 PUSH2 0x100 EXP SWAP1 DIV PUSH20 0xFFFFFFFFFFFFFFFFFFFFFFFFFFFFFFFFFFFFFFFF AND SWAP1 POP DUP10 JUMP JUMPDEST POP JUMP JUMPDEST PUSH2 0x374 PUSH32 0x45F4ECE4F16233EE1E8581C09D75ADD1CDD380C7DF95B3D191BEB9D59E248C85 PUSH1 0x0 SHL PUSH2 0x345 JUMP JUMPDEST PUSH2 0x3A0 PUSH32 0x1AAEDB86478A6DD384F714632C72B16753CE53C2ECD0DBC10029E2A9657A7CC7 PUSH1 0x0 SHL PUSH2 0x345 JUMP JUMPDEST PUSH2 0x3CC PUSH32 0x9A27709B54D1831CD6DEBD602F19A764AA51785D8C7C28C7D71E108F2A206FB6 PUSH1 0x0 SHL PUSH2 0x345 JUMP JUMPDEST PUSH1 0x0 DUP1 DUP3 DUP2 SLOAD DUP2 LT PUSH2 0x3E1 JUMPI PUSH2 0x3E0 PUSH2 0x2451 JUMP JUMPDEST JUMPDEST SWAP1 PUSH1 0x0 MSTORE PUSH1 0x20 PUSH1 0x0 KECCAK256 SWAP1 PUSH1 0x5 MUL ADD SWAP1 POP PUSH2 0x41D PUSH32 0x475CBAFDEA1AA5A4C96B93C5991B20DE2D4BAB0C5918B2C5C18684BD291E4DEC PUSH1 0x0 SHL PUSH2 0x345 JUMP JUMPDEST PUSH2 0x449 PUSH32 0x73B1623F6B199ABCCC9AE6C17A6B510C77245BE3670F997500CDBFEC34D053DE PUSH1 0x0 SHL PUSH2 0x345 JUMP JUMPDEST PUSH2 0x475 PUSH32 0x912397C06A19CED18393742FE89A6245706591509E2C5CA19F0D561AB5E67C75 PUSH1 0x0 SHL PUSH2 0x345 JUMP JUMPDEST DUP1 PUSH1 0x4 ADD PUSH1 0x0 SWAP1 SLOAD SWAP1 PUSH2 0x100 EXP SWAP1 DIV PUSH1 0xFF AND PUSH2 0x490 JUMPI PUSH1 0x0 DUP1 REVERT JUMPDEST PUSH2 0x4BC PUSH32 0xCECEE8B55956CA4281BBACC9D00D9CC1174650C82814D0F4950165D1FBF2F587 PUSH1 0x0 SHL PUSH2 0x345 JUMP JUMPDEST PUSH2 0x4E8 PUSH32 0xB5D091433337ABA745AA03597998015D2A33178CBC6991B7257C2B6C8DA09C1C PUSH1 0x0 SHL PUSH2 0x345 JUMP JUMPDEST PUSH2 0x514 PUSH32 0xB7547C2BB4320143430C55ED4C4A890579DA98A101F3C8B3CC2BFACBF66A4F3E PUSH1 0x0 SHL PUSH2 0x345 JUMP JUMPDEST PUSH1 0x1 DUP2 PUSH1 0x4 ADD PUSH1 0x2 PUSH2 0x100 EXP DUP2 SLOAD DUP2 PUSH1 0xFF MUL NOT AND SWAP1 DUP4 ISZERO ISZERO MUL OR SWAP1 SSTORE POP POP POP JUMP JUMPDEST PUSH1 0x0 PUSH2 0x563 PUSH32 0x9E61FAED1510563037F94A9233116AFCB75181E4BA861A2C08A687B8DB754C24 PUSH1 0x0 SHL PUSH2 0x345 JUMP JUMPDEST PUSH2 0x58F PUSH32 0xAC8AAB52E14494F90FB5AEBAB23AF002B75B7692F5512F89D4903931753991A6 PUSH1 0x0 SHL PUSH2 0x345 JUMP JUMPDEST PUSH2 0x5BB PUSH32 0xFAA91791F1C49D6CE00415E88A8A0213D5F7D2ED52CB5B27921C6E58A19EBB47 PUSH1 0x0 SHL PUSH2 0x345 JUMP JUMPDEST PUSH1 0x0 PUSH1 0x40 MLOAD DUP1 PUSH2 0x120 ADD PUSH1 0x40 MSTORE DUP1 CALLER PUSH20 0xFFFFFFFFFFFFFFFFFFFFFFFFFFFFFFFFFFFFFFFF AND DUP2 MSTORE PUSH1 0x20 ADD DUP6 DUP2 MSTORE PUSH1 0x20 ADD DUP5 DUP2 MSTORE PUSH1 0x20 ADD PUSH1 0x0 DUP2 MSTORE PUSH1 0x20 ADD PUSH1 0x0 ISZERO ISZERO DUP2 MSTORE PUSH1 0x20 ADD PUSH1 0x0 ISZERO ISZERO DUP2 MSTORE PUSH1 0x20 ADD PUSH1 0x0 ISZERO ISZERO DUP2 MSTORE PUSH1 0x20 ADD PUSH1 0x0 ISZERO ISZERO DUP2 MSTORE PUSH1 0x20 ADD PUSH1 0x0 PUSH20 0xFFFFFFFFFFFFFFFFFFFFFFFFFFFFFFFFFFFFFFFF AND DUP2 MSTORE POP SWAP1 POP PUSH2 0x665 PUSH32 0xB02BB8B1846583FE67291000DFB5056C144DF7DBF1D985DBB3A1D3A5F3E9F3D5 PUSH1 0x0 SHL PUSH2 0x345 JUMP JUMPDEST PUSH2 0x691 PUSH32 0x7EF2F241E59B25773296847E85983D7DB55DE877276B1B6BB77E3A1125F08734 PUSH1 0x0 SHL PUSH2 0x345 JUMP JUMPDEST PUSH1 0x0 DUP2 SWAP1 DUP1 PUSH1 0x1 DUP2 SLOAD ADD DUP1 DUP3 SSTORE DUP1 SWAP2 POP POP PUSH1 0x1 SWAP1 SUB SWAP1 PUSH1 0x0 MSTORE PUSH1 0x20 PUSH1 0x0 KECCAK256 SWAP1 PUSH1 0x5 MUL ADD PUSH1 0x0 SWAP1 SWAP2 SWAP1 SWAP2 SWAP1 SWAP2 POP PUSH1 0x0 DUP3 ADD MLOAD DUP2 PUSH1 0x0 ADD PUSH1 0x0 PUSH2 0x100 EXP DUP2 SLOAD DUP2 PUSH20 0xFFFFFFFFFFFFFFFFFFFFFFFFFFFFFFFFFFFFFFFF MUL NOT AND SWAP1 DUP4 PUSH20 0xFFFFFFFFFFFFFFFFFFFFFFFFFFFFFFFFFFFFFFFF AND MUL OR SWAP1 SSTORE POP PUSH1 0x20 DUP3 ADD MLOAD DUP2 PUSH1 0x1 ADD SWAP1 DUP1 MLOAD SWAP1 PUSH1 0x20 ADD SWAP1 PUSH2 0x720 SWAP3 SWAP2 SWAP1 PUSH2 0x1D01 JUMP JUMPDEST POP PUSH1 0x40 DUP3 ADD MLOAD DUP2 PUSH1 0x2 ADD SSTORE PUSH1 0x60 DUP3 ADD MLOAD DUP2 PUSH1 0x3 ADD SSTORE PUSH1 0x80 DUP3 ADD MLOAD DUP2 PUSH1 0x4 ADD PUSH1 0x0 PUSH2 0x100 EXP DUP2 SLOAD DUP2 PUSH1 0xFF MUL NOT AND SWAP1 DUP4 ISZERO ISZERO MUL OR SWAP1 SSTORE POP PUSH1 0xA0 DUP3 ADD MLOAD DUP2 PUSH1 0x4 ADD PUSH1 0x1 PUSH2 0x100 EXP DUP2 SLOAD DUP2 PUSH1 0xFF MUL NOT AND SWAP1 DUP4 ISZERO ISZERO MUL OR SWAP1 SSTORE POP PUSH1 0xC0 DUP3 ADD MLOAD DUP2 PUSH1 0x4 ADD PUSH1 0x2 PUSH2 0x100 EXP DUP2 SLOAD DUP2 PUSH1 0xFF MUL NOT AND SWAP1 DUP4 ISZERO ISZERO MUL OR SWAP1 SSTORE POP PUSH1 0xE0 DUP3 ADD MLOAD DUP2 PUSH1 0x4 ADD PUSH1 0x3 PUSH2 0x100 EXP DUP2 SLOAD DUP2 PUSH1 0xFF MUL NOT AND SWAP1 DUP4 ISZERO ISZERO MUL OR SWAP1 SSTORE POP PUSH2 0x100 DUP3 ADD MLOAD DUP2 PUSH1 0x4 ADD PUSH1 0x4 PUSH2 0x100 EXP DUP2 SLOAD DUP2 PUSH20 0xFFFFFFFFFFFFFFFFFFFFFFFFFFFFFFFFFFFFFFFF MUL NOT AND SWAP1 DUP4 PUSH20 0xFFFFFFFFFFFFFFFFFFFFFFFFFFFFFFFFFFFFFFFF AND MUL OR SWAP1 SSTORE POP POP POP PUSH2 0x82B PUSH32 0x1685DF78E626F4D480E4EDC0081D3C7E15C1735C917F9FA6200850D35138A270 PUSH1 0x0 SHL PUSH2 0x345 JUMP JUMPDEST PUSH2 0x857 PUSH32 0x946A1245899FF1203838F62599AFFFDD8DDF2EA88766B1A10C19BF4C817AAB6D PUSH1 0x0 SHL PUSH2 0x345 JUMP JUMPDEST PUSH1 0x1 SWAP2 POP POP SWAP3 SWAP2 POP POP JUMP JUMPDEST PUSH2 0x88E PUSH32 0x32F28F59C6B9C3737CEEFCCFA02651220BE17F99CB6F7D254B48F7A581F4BD07 PUSH1 0x0 SHL PUSH2 0x345 JUMP JUMPDEST PUSH2 0x8BA PUSH32 0xF0CB6A8C342B5EFCD7BC09F70A5B69F9D0E0BFD763C132B448AD57E4757535FB PUSH1 0x0 SHL PUSH2 0x345 JUMP JUMPDEST PUSH2 0x8E6 PUSH32 0x8842A992307A0418790BE7A681BFD525530C124BB20726A084CCB708C8CC28F2 PUSH1 0x0 SHL PUSH2 0x345 JUMP JUMPDEST PUSH1 0x0 DUP1 DUP4 DUP2 SLOAD DUP2 LT PUSH2 0x8FB JUMPI PUSH2 0x8FA PUSH2 0x2451 JUMP JUMPDEST JUMPDEST SWAP1 PUSH1 0x0 MSTORE PUSH1 0x20 PUSH1 0x0 KECCAK256 SWAP1 PUSH1 0x5 MUL ADD SWAP1 POP PUSH2 0x937 PUSH32 0x9DCF540D490BAACAEF42678B7F084E8D23CC1BD9D3CFE64AC5BE20380E4E0DB PUSH1 0x0 SHL PUSH2 0x345 JUMP JUMPDEST PUSH2 0x963 PUSH32 0xAE6CDC33C5A872A39B6C701A3F15F204034AA5D8F9E6FCB043E07E7211BFCCA8 PUSH1 0x0 SHL PUSH2 0x345 JUMP JUMPDEST PUSH2 0x98F PUSH32 0x2A8DBACE158234F07A4AA069646AE9D3AFEBC155AE8533CEF43D9F657CD05132 PUSH1 0x0 SHL PUSH2 0x345 JUMP JUMPDEST DUP1 PUSH1 0x0 ADD PUSH1 0x0 SWAP1 SLOAD SWAP1 PUSH2 0x100 EXP SWAP1 DIV PUSH20 0xFFFFFFFFFFFFFFFFFFFFFFFFFFFFFFFFFFFFFFFF AND PUSH20 0xFFFFFFFFFFFFFFFFFFFFFFFFFFFFFFFFFFFFFFFF AND CALLER PUSH20 0xFFFFFFFFFFFFFFFFFFFFFFFFFFFFFFFFFFFFFFFF AND EQ ISZERO PUSH2 0xA22 JUMPI PUSH1 0x40 MLOAD PUSH32 0x8C379A000000000000000000000000000000000000000000000000000000000 DUP2 MSTORE PUSH1 0x4 ADD PUSH2 0xA19 SWAP1 PUSH2 0x21CE JUMP JUMPDEST PUSH1 0x40 MLOAD DUP1 SWAP2 SUB SWAP1 REVERT JUMPDEST PUSH2 0xA4E PUSH32 0x572A222959348348E05AA17671CD810AF2BB1295DCC94F5E77A763B330DB41CE PUSH1 0x0 SHL PUSH2 0x345 JUMP JUMPDEST PUSH2 0xA7A PUSH32 0x6F12E013912B935BDB0BB92B972E356E5F7DAAE144D048D09186C43DFB867E93 PUSH1 0x0 SHL PUSH2 0x345 JUMP JUMPDEST PUSH2 0xAA6 PUSH32 0x5AC1E2BE656D313D56CD252C3E35B53395C784D2E1E0296B93E998035F5B5EDD PUSH1 0x0 SHL PUSH2 0x345 JUMP JUMPDEST PUSH2 0xAD2 PUSH32 0xF590B9E627BFC4A40EF990705D50D3A6D06ECC2DD0F2E1F8A7CC67BCC469B3BD PUSH1 0x0 SHL PUSH2 0x345 JUMP JUMPDEST DUP1 PUSH1 0x4 ADD PUSH1 0x4 SWAP1 SLOAD SWAP1 PUSH2 0x100 EXP SWAP1 DIV PUSH20 0xFFFFFFFFFFFFFFFFFFFFFFFFFFFFFFFFFFFFFFFF AND PUSH20 0xFFFFFFFFFFFFFFFFFFFFFFFFFFFFFFFFFFFFFFFF AND CALLER PUSH20 0xFFFFFFFFFFFFFFFFFFFFFFFFFFFFFFFFFFFFFFFF AND EQ ISZERO PUSH2 0xB65 JUMPI PUSH1 0x40 MLOAD PUSH32 0x8C379A000000000000000000000000000000000000000000000000000000000 DUP2 MSTORE PUSH1 0x4 ADD PUSH2 0xB5C SWAP1 PUSH2 0x228E JUMP JUMPDEST PUSH1 0x40 MLOAD DUP1 SWAP2 SUB SWAP1 REVERT JUMPDEST PUSH2 0xB91 PUSH32 0xC7801B1D1FD064921B2E2FC71549A7E7D34028E29738D99AD0B880A809EA68F9 PUSH1 0x0 SHL PUSH2 0x345 JUMP JUMPDEST PUSH2 0xBBD PUSH32 0xB170860D7BB06C12E7FBBDDBF231BD34A6C790471F488587003D4A1F35F04281 PUSH1 0x0 SHL PUSH2 0x345 JUMP JUMPDEST PUSH2 0xBE9 PUSH32 0xEB474FC5D866EE66B90CCE1B11606CF9A95EA09C195D447AF724A32076C91EFE PUSH1 0x0 SHL PUSH2 0x345 JUMP JUMPDEST DUP2 ISZERO PUSH2 0xEBD JUMPI PUSH2 0xC1B PUSH32 0x94698CC9BED7B415A0621B054F248363B8CC91D9A7821D329DB98975E946832C PUSH1 0x0 SHL PUSH2 0x345 JUMP JUMPDEST PUSH2 0xC47 PUSH32 0x3F0BAE53D6195D57164F94FA4CD0C9172AF3FBE6C69AF61C5B22501903F0F54F PUSH1 0x0 SHL PUSH2 0x345 JUMP JUMPDEST PUSH2 0xC73 PUSH32 0x1A1026A7C4691E2ABB2266A41FD4DF760EDEB2ACB296095AC9DAE2E171AB7F4B PUSH1 0x0 SHL PUSH2 0x345 JUMP JUMPDEST PUSH1 0x0 DUP2 PUSH1 0x3 ADD SLOAD SWAP1 POP PUSH2 0xCA8 PUSH32 0x5B2BAB780943DB43158F424C3410DC0E465CDEC5F48F0037EE7400C358A60D43 PUSH1 0x0 SHL PUSH2 0x345 JUMP JUMPDEST PUSH2 0xCD4 PUSH32 0x798304935989FB36CC4A83A8C9D22FF651F76E5FB5D7206615AD6267C7AA1378 PUSH1 0x0 SHL PUSH2 0x345 JUMP JUMPDEST PUSH1 0x0 DUP3 PUSH1 0x3 ADD DUP2 SWAP1 SSTORE POP PUSH2 0xD0A PUSH32 0xDDBEC13F9C544F8C7D9ACDD7FBE150764325797A3F6BB6BE0745BF2A1B260776 PUSH1 0x0 SHL PUSH2 0x345 JUMP JUMPDEST PUSH2 0xD36 PUSH32 0x288E6C6471E5CE6C4389322FBC7703E1837A31B8E36702C7263780D0DE84B3E4 PUSH1 0x0 SHL PUSH2 0x345 JUMP JUMPDEST PUSH1 0x0 DUP3 PUSH1 0x4 ADD PUSH1 0x4 SWAP1 SLOAD SWAP1 PUSH2 0x100 EXP SWAP1 DIV PUSH20 0xFFFFFFFFFFFFFFFFFFFFFFFFFFFFFFFFFFFFFFFF AND PUSH20 0xFFFFFFFFFFFFFFFFFFFFFFFFFFFFFFFFFFFFFFFF AND DUP3 PUSH1 0x40 MLOAD PUSH2 0xD80 SWAP1 PUSH2 0x20EA JUMP JUMPDEST PUSH1 0x0 PUSH1 0x40 MLOAD DUP1 DUP4 SUB DUP2 DUP6 DUP8 GAS CALL SWAP3 POP POP POP RETURNDATASIZE DUP1 PUSH1 0x0 DUP2 EQ PUSH2 0xDBD JUMPI PUSH1 0x40 MLOAD SWAP2 POP PUSH1 0x1F NOT PUSH1 0x3F RETURNDATASIZE ADD AND DUP3 ADD PUSH1 0x40 MSTORE RETURNDATASIZE DUP3 MSTORE RETURNDATASIZE PUSH1 0x0 PUSH1 0x20 DUP5 ADD RETURNDATACOPY PUSH2 0xDC2 JUMP JUMPDEST PUSH1 0x60 SWAP2 POP JUMPDEST POP POP SWAP1 POP PUSH2 0xDF2 PUSH32 0x70F577C47A99B065D5765F69F4C6E59568CA7ADE32B5657E17B9E94BC89949E0 PUSH1 0x0 SHL PUSH2 0x345 JUMP JUMPDEST PUSH2 0xE1E PUSH32 0x86B9398F88D3C77E34BDCE141BECD90310519666A70532A170F9B04162D7C2E4 PUSH1 0x0 SHL PUSH2 0x345 JUMP JUMPDEST PUSH2 0xE4A PUSH32 0x2FF1B2E9546AFF33994B454025CB228D8FD5A1F859737513D4516ED883954F84 PUSH1 0x0 SHL PUSH2 0x345 JUMP JUMPDEST DUP1 PUSH2 0xE8A JUMPI PUSH1 0x40 MLOAD PUSH32 0x8C379A000000000000000000000000000000000000000000000000000000000 DUP2 MSTORE PUSH1 0x4 ADD PUSH2 0xE81 SWAP1 PUSH2 0x224E JUMP JUMPDEST PUSH1 0x40 MLOAD DUP1 SWAP2 SUB SWAP1 REVERT JUMPDEST PUSH2 0xEB6 PUSH32 0x5CF8C47F861D8F70FA75C7ED0CEE18F6B52136F80ABEF105FC154C458675A75C PUSH1 0x0 SHL PUSH2 0x345 JUMP JUMPDEST POP POP PUSH2 0xEEA JUMP JUMPDEST PUSH2 0xEE9 PUSH32 0x7F902313B7594273B4319EBE3AE7683B76C455984F13711206F958E4FB6228AE PUSH1 0x0 SHL PUSH2 0x345 JUMP JUMPDEST JUMPDEST PUSH2 0xF16 PUSH32 0xAA4FC0FA95CD6FFCF700D3E226453A9AE73379C43F64F08CD03A4171A5FA97BF PUSH1 0x0 SHL PUSH2 0x345 JUMP JUMPDEST PUSH2 0xF42 PUSH32 0xFD16FEE8F28B4DFFE3B65EC3C3D4D284DEACBDC9FFFF9A16351E0EC269765C64 PUSH1 0x0 SHL PUSH2 0x345 JUMP JUMPDEST PUSH1 0x0 DUP2 PUSH1 0x4 ADD PUSH1 0x2 PUSH2 0x100 EXP DUP2 SLOAD DUP2 PUSH1 0xFF MUL NOT AND SWAP1 DUP4 ISZERO ISZERO MUL OR SWAP1 SSTORE POP POP POP POP JUMP JUMPDEST PUSH2 0xF90 PUSH32 0xEAB182A68D57B01920F19FD4A1D82896CBCFAFF0832FF16DB88FE3C51A53CAFE PUSH1 0x0 SHL PUSH2 0x345 JUMP JUMPDEST PUSH2 0xFBC PUSH32 0xE5A074A451433A287DB7C63313965D189E3FEEA5FCF8BF18CEAA94BC316FB490 PUSH1 0x0 SHL PUSH2 0x345 JUMP JUMPDEST PUSH2 0xFE8 PUSH32 0x3783B1BC3DDF644BE6DC71CFB9CC1834289641D71C259FDF222409BFD6D862B7 PUSH1 0x0 SHL PUSH2 0x345 JUMP JUMPDEST PUSH1 0x0 DUP1 DUP3 DUP2 SLOAD DUP2 LT PUSH2 0xFFD JUMPI PUSH2 0xFFC PUSH2 0x2451 JUMP JUMPDEST JUMPDEST SWAP1 PUSH1 0x0 MSTORE PUSH1 0x20 PUSH1 0x0 KECCAK256 SWAP1 PUSH1 0x5 MUL ADD SWAP1 POP PUSH2 0x1039 PUSH32 0xEB0D81FFE0D25C1D0E52F3E47F8AA9F8CD51E36B92DD7C63B585E7258CE99489 PUSH1 0x0 SHL PUSH2 0x345 JUMP JUMPDEST PUSH2 0x1065 PUSH32 0x2905E336D213415543A6EA8E269A2339C4069CD22B8156E679FFDCA9F692FC28 PUSH1 0x0 SHL PUSH2 0x345 JUMP JUMPDEST PUSH2 0x1091 PUSH32 0xDA1896118D1A95584400AD5148FAF028E6F2E9E95704487E8CE97EE3C5934905 PUSH1 0x0 SHL PUSH2 0x345 JUMP JUMPDEST CALLER PUSH20 0xFFFFFFFFFFFFFFFFFFFFFFFFFFFFFFFFFFFFFFFF AND DUP2 PUSH1 0x4 ADD PUSH1 0x4 SWAP1 SLOAD SWAP1 PUSH2 0x100 EXP SWAP1 DIV PUSH20 0xFFFFFFFFFFFFFFFFFFFFFFFFFFFFFFFFFFFFFFFF AND PUSH20 0xFFFFFFFFFFFFFFFFFFFFFFFFFFFFFFFFFFFFFFFF AND EQ PUSH2 0x1123 JUMPI PUSH1 0x40 MLOAD PUSH32 0x8C379A000000000000000000000000000000000000000000000000000000000 DUP2 MSTORE PUSH1 0x4 ADD PUSH2 0x111A SWAP1 PUSH2 0x21EE JUMP JUMPDEST PUSH1 0x40 MLOAD DUP1 SWAP2 SUB SWAP1 REVERT JUMPDEST PUSH2 0x114F PUSH32 0xFF7CF4D6453BFD0864DFFE7A6D1C9FA84B3729D0C650384F099254B391F08FAE PUSH1 0x0 SHL PUSH2 0x345 JUMP JUMPDEST PUSH2 0x117B PUSH32 0x5114A44E34A89F94348EDD4236EC2D77B74D9B64E2C35E162B457C24224735E5 PUSH1 0x0 SHL PUSH2 0x345 JUMP JUMPDEST PUSH2 0x11A7 PUSH32 0xE17533CABB69038EA92258473ED44C46AF8F5A31DD1E22EDB4123E676B972C59 PUSH1 0x0 SHL PUSH2 0x345 JUMP JUMPDEST PUSH1 0x1 DUP2 PUSH1 0x4 ADD PUSH1 0x3 PUSH2 0x100 EXP DUP2 SLOAD DUP2 PUSH1 0xFF MUL NOT AND SWAP1 DUP4 ISZERO ISZERO MUL OR SWAP1 SSTORE POP POP POP JUMP JUMPDEST PUSH2 0x11F4 PUSH32 0x892E0A0A61B4A7CB884F496AA2CFE58E9BAA805F7056798CCD3B50D8F9F47B45 PUSH1 0x0 SHL PUSH2 0x345 JUMP JUMPDEST PUSH2 0x1220 PUSH32 0x29EC312E78E39C8B07DA311293791BB0AD1B19FBBA4DE241D7747575B6BB81BA PUSH1 0x0 SHL PUSH2 0x345 JUMP JUMPDEST PUSH2 0x124C PUSH32 0xAE1E74DAA4A3A8BDF3C42C332B0A42CE8B61607E42468A6AD92AFEDFF2EB211 PUSH1 0x0 SHL PUSH2 0x345 JUMP JUMPDEST PUSH1 0x0 DUP1 DUP3 DUP2 SLOAD DUP2 LT PUSH2 0x1261 JUMPI PUSH2 0x1260 PUSH2 0x2451 JUMP JUMPDEST JUMPDEST SWAP1 PUSH1 0x0 MSTORE PUSH1 0x20 PUSH1 0x0 KECCAK256 SWAP1 PUSH1 0x5 MUL ADD SWAP1 POP PUSH2 0x129D PUSH32 0x19B993AA21125A9378DD04A547C69FC5B4715F50938D31F67DBA767F452942ED PUSH1 0x0 SHL PUSH2 0x345 JUMP JUMPDEST PUSH2 0x12C9 PUSH32 0x4D2CD04EF3CB4D4877BE228E9A243747BD783BF61BBCB4B5B5F5922505253452 PUSH1 0x0 SHL PUSH2 0x345 JUMP JUMPDEST PUSH2 0x12F5 PUSH32 0xBA1B45697188A0AA586DAB835DB618482AE8D1F14389BA42574668EB7AD5D6D0 PUSH1 0x0 SHL PUSH2 0x345 JUMP JUMPDEST DUP1 PUSH1 0x4 ADD PUSH1 0x0 SWAP1 SLOAD SWAP1 PUSH2 0x100 EXP SWAP1 DIV PUSH1 0xFF AND ISZERO PUSH2 0x1311 JUMPI PUSH1 0x0 DUP1 REVERT JUMPDEST PUSH2 0x133D PUSH32 0x8C76C5AEAF0002824BE03E096E3AA5616CFFAF34BD82B2E8E2B381167132FEFA PUSH1 0x0 SHL PUSH2 0x345 JUMP JUMPDEST PUSH2 0x1369 PUSH32 0xC4281A831CD1C86D3BB7DF1A21B086640948AA6157A9EF205B2BFD0A42890B58 PUSH1 0x0 SHL PUSH2 0x345 JUMP JUMPDEST PUSH2 0x1395 PUSH32 0x58449205F715BC18CDFB48C83C265DE86AC3887BC29150097CD7F2B282E7C681 PUSH1 0x0 SHL PUSH2 0x345 JUMP JUMPDEST PUSH1 0x1 DUP2 PUSH1 0x4 ADD PUSH1 0x0 PUSH2 0x100 EXP DUP2 SLOAD DUP2 PUSH1 0xFF MUL NOT AND SWAP1 DUP4 ISZERO ISZERO MUL OR SWAP1 SSTORE POP PUSH2 0x13DE PUSH32 0xB4CD791812C2084ECD81BED323A47A199F2F4A59479F4C73DD6F36BC703F7A67 PUSH1 0x0 SHL PUSH2 0x345 JUMP JUMPDEST PUSH2 0x140A PUSH32 0xFE0924F21934D936EA103BFD4A778C1987826F56186D86D4B1280DD9B7D15A99 PUSH1 0x0 SHL PUSH2 0x345 JUMP JUMPDEST PUSH2 0x1436 PUSH32 0x356FFC0CE51D4EE882523C46A2908A9B3C5303BA9B202FA761D764A6FABA58F7 PUSH1 0x0 SHL PUSH2 0x345 JUMP JUMPDEST DUP1 PUSH1 0x2 ADD SLOAD CALLVALUE EQ PUSH2 0x1446 JUMPI PUSH1 0x0 DUP1 REVERT JUMPDEST PUSH2 0x1471 PUSH31 0x53C04A8E92FAAF6AE4D437E06D85B82AEABAF8D48020F27E9A681F356ADDCB PUSH1 0x0 SHL PUSH2 0x345 JUMP JUMPDEST PUSH2 0x149D PUSH32 0x6CFB36909D2C4A7B05A344E7D8CB4F1A13EB4899CE1B7DF3E0FD46817AEB26E7 PUSH1 0x0 SHL PUSH2 0x345 JUMP JUMPDEST PUSH2 0x14C9 PUSH32 0xDCC6C321BF749FAB4724432A42F541A5D35F4C3AB2ABCCD2C5AA1BACA0AFF1C6 PUSH1 0x0 SHL PUSH2 0x345 JUMP JUMPDEST CALLVALUE DUP2 PUSH1 0x3 ADD DUP2 SWAP1 SSTORE POP PUSH2 0x14FE PUSH32 0x3FC499F264AC2517F1BEB390FF30FE742412DE1D77E03323038B838D6E57B1F2 PUSH1 0x0 SHL PUSH2 0x345 JUMP JUMPDEST PUSH2 0x152A PUSH32 0xB748B8E55E26AA7AB9FD1FDFB52FAEB15B3BB7C8E6BC632C6BEF13AB5745B24 PUSH1 0x0 SHL PUSH2 0x345 JUMP JUMPDEST CALLER DUP2 PUSH1 0x4 ADD PUSH1 0x4 PUSH2 0x100 EXP DUP2 SLOAD DUP2 PUSH20 0xFFFFFFFFFFFFFFFFFFFFFFFFFFFFFFFFFFFFFFFF MUL NOT AND SWAP1 DUP4 PUSH20 0xFFFFFFFFFFFFFFFFFFFFFFFFFFFFFFFFFFFFFFFF AND MUL OR SWAP1 SSTORE POP POP POP JUMP JUMPDEST PUSH2 0x159D PUSH32 0x17286B5DCABD3C0EEF884345F549A4E12869BEA8D49940124CE5D13B812CD881 PUSH1 0x0 SHL PUSH2 0x345 JUMP JUMPDEST PUSH2 0x15C9 PUSH32 0xA05CA9851C514E246B4B953D60DCCF894EF185A0A8F75B52733F9ACB2D125346 PUSH1 0x0 SHL PUSH2 0x345 JUMP JUMPDEST PUSH2 0x15F5 PUSH32 0x32FD0560EC9DAFC549BF010E3330DBB877DFE15D43379F74F56827828D6C5675 PUSH1 0x0 SHL PUSH2 0x345 JUMP JUMPDEST PUSH1 0x0 DUP1 DUP3 DUP2 SLOAD DUP2 LT PUSH2 0x160A JUMPI PUSH2 0x1609 PUSH2 0x2451 JUMP JUMPDEST JUMPDEST SWAP1 PUSH1 0x0 MSTORE PUSH1 0x20 PUSH1 0x0 KECCAK256 SWAP1 PUSH1 0x5 MUL ADD SWAP1 POP PUSH2 0x1646 PUSH32 0xC7997B4672816D5AEB38E59967AB1661665D0E72D95F0FA647A5939096918020 PUSH1 0x0 SHL PUSH2 0x345 JUMP JUMPDEST PUSH2 0x1672 PUSH32 0x8278FD28C98D79F0E524C672E936885668FBFCEB58064C2D38E4E51D221DE66 PUSH1 0x0 SHL PUSH2 0x345 JUMP JUMPDEST PUSH2 0x169E PUSH32 0x261AB695F431DDE74948579D07A9B2BFCCB4075672004CB027551E2C180046C1 PUSH1 0x0 SHL PUSH2 0x345 JUMP JUMPDEST DUP1 PUSH1 0x4 ADD PUSH1 0x0 SWAP1 SLOAD SWAP1 PUSH2 0x100 EXP SWAP1 DIV PUSH1 0xFF AND PUSH2 0x16EF JUMPI PUSH1 0x40 MLOAD PUSH32 0x8C379A000000000000000000000000000000000000000000000000000000000 DUP2 MSTORE PUSH1 0x4 ADD PUSH2 0x16E6 SWAP1 PUSH2 0x220E JUMP JUMPDEST PUSH1 0x40 MLOAD DUP1 SWAP2 SUB SWAP1 REVERT JUMPDEST PUSH2 0x171B PUSH32 0xB508ED196F0AECB63136702A618103DEE78B08150AB1D580E789C1A9C4CF6A86 PUSH1 0x0 SHL PUSH2 0x345 JUMP JUMPDEST PUSH2 0x1747 PUSH32 0xC92F6D62CC60BDE47E4085C83DA634D7422AB68E29C2DD2E0ED838C330AA8471 PUSH1 0x0 SHL PUSH2 0x345 JUMP JUMPDEST PUSH2 0x1773 PUSH32 0x2C943BD121AD183D34B21A66C566E1BB97E8EA161254E7DA9A42BB3EF4D45FE3 PUSH1 0x0 SHL PUSH2 0x345 JUMP JUMPDEST PUSH2 0x179F PUSH32 0x3682CD329B318FD84469767947E8333BA655B69F18C505428A1E79BBE5EE5554 PUSH1 0x0 SHL PUSH2 0x345 JUMP JUMPDEST DUP1 PUSH1 0x4 ADD PUSH1 0x3 SWAP1 SLOAD SWAP1 PUSH2 0x100 EXP SWAP1 DIV PUSH1 0xFF AND PUSH2 0x17F0 JUMPI PUSH1 0x40 MLOAD PUSH32 0x8C379A000000000000000000000000000000000000000000000000000000000 DUP2 MSTORE PUSH1 0x4 ADD PUSH2 0x17E7 SWAP1 PUSH2 0x222E JUMP JUMPDEST PUSH1 0x40 MLOAD DUP1 SWAP2 SUB SWAP1 REVERT JUMPDEST PUSH2 0x181C PUSH32 0x6D21A28333007DB64AF6A5B822E6E524F99CAA2D959754F6DDAC65E50864B71D PUSH1 0x0 SHL PUSH2 0x345 JUMP JUMPDEST PUSH2 0x1848 PUSH32 0xB11DD04AFDA0DE54CA6DB6CFE618CECC9284A256B9F576B8D9F98F1A8EC7F7AB PUSH1 0x0 SHL PUSH2 0x345 JUMP JUMPDEST PUSH2 0x1874 PUSH32 0xBFD8F4D529DF64874057BCEFEEC02EA1AC496A7895812067ADBB1C4D33497AE8 PUSH1 0x0 SHL PUSH2 0x345 JUMP JUMPDEST PUSH2 0x18A0 PUSH32 0x4393CFA4FDB1A84758AEC21A96D341836113ABD8A9FE3EC7D3E4B3008AA29284 PUSH1 0x0 SHL PUSH2 0x345 JUMP JUMPDEST DUP1 PUSH1 0x4 ADD PUSH1 0x2 SWAP1 SLOAD SWAP1 PUSH2 0x100 EXP SWAP1 DIV PUSH1 0xFF AND ISZERO PUSH2 0x18F2 JUMPI PUSH1 0x40 MLOAD PUSH32 0x8C379A000000000000000000000000000000000000000000000000000000000 DUP2 MSTORE PUSH1 0x4 ADD PUSH2 0x18E9 SWAP1 PUSH2 0x226E JUMP JUMPDEST PUSH1 0x40 MLOAD DUP1 SWAP2 SUB SWAP1 REVERT JUMPDEST PUSH2 0x191E PUSH32 0x130EDDF696AC80C67E356CC1F3405DD254D88AB89103C04E17C8128AE69651E PUSH1 0x0 SHL PUSH2 0x345 JUMP JUMPDEST PUSH2 0x194A PUSH32 0xADCF34CF6BFEF697DE741E79F46200B7750C2B1A98516C249C7C8200626ED3A3 PUSH1 0x0 SHL PUSH2 0x345 JUMP JUMPDEST PUSH2 0x1976 PUSH32 0x5D09C9739B0EF8025DDD6659A95E4BEFC9A30DFFDF461303C8561B193353061C PUSH1 0x0 SHL PUSH2 0x345 JUMP JUMPDEST PUSH2 0x19A2 PUSH32 0x884442E9E5765F379429ADC53E4CC857D811E649CC966D8603970FEAA8F5B7DC PUSH1 0x0 SHL PUSH2 0x345 JUMP JUMPDEST DUP1 PUSH1 0x0 ADD PUSH1 0x0 SWAP1 SLOAD SWAP1 PUSH2 0x100 EXP SWAP1 DIV PUSH20 0xFFFFFFFFFFFFFFFFFFFFFFFFFFFFFFFFFFFFFFFF AND PUSH20 0xFFFFFFFFFFFFFFFFFFFFFFFFFFFFFFFFFFFFFFFF AND CALLER PUSH20 0xFFFFFFFFFFFFFFFFFFFFFFFFFFFFFFFFFFFFFFFF AND EQ PUSH2 0x1A34 JUMPI PUSH1 0x40 MLOAD PUSH32 0x8C379A000000000000000000000000000000000000000000000000000000000 DUP2 MSTORE PUSH1 0x4 ADD PUSH2 0x1A2B SWAP1 PUSH2 0x21AE JUMP JUMPDEST PUSH1 0x40 MLOAD DUP1 SWAP2 SUB SWAP1 REVERT JUMPDEST PUSH2 0x1A60 PUSH32 0x8FCB539FC247A8A95EB5C7B1296087797B6D049362DA0A6F37C573D289612A8F PUSH1 0x0 SHL PUSH2 0x345 JUMP JUMPDEST PUSH2 0x1A8C PUSH32 0xE3722576E8EF48E15D66DD6DA1949F4939ECE48657D73633325F30BD3BA901F1 PUSH1 0x0 SHL PUSH2 0x345 JUMP JUMPDEST PUSH2 0x1AB8 PUSH32 0xA8A63A98C33EF6BE45BC51BB2B7DA0EE9D53257E5935EFED1C7FC13CC1252BA0 PUSH1 0x0 SHL PUSH2 0x345 JUMP JUMPDEST PUSH1 0x0 DUP2 PUSH1 0x3 ADD SLOAD SWAP1 POP PUSH2 0x1AED PUSH32 0x9C69FF93241226E47020989ECD52CC36776FE184B0C01F002C3D0ADE31C91958 PUSH1 0x0 SHL PUSH2 0x345 JUMP JUMPDEST PUSH2 0x1B19 PUSH32 0x74DE0FE26716E389965A7340F8B15EA52035768955EBE42B398023DEE99BBED7 PUSH1 0x0 SHL PUSH2 0x345 JUMP JUMPDEST PUSH1 0x0 DUP3 PUSH1 0x3 ADD DUP2 SWAP1 SSTORE POP PUSH2 0x1B4F PUSH32 0xF19E7491AFBC20B5D771C32668F2740164ABA8F0F137F851BDD91D358921A07A PUSH1 0x0 SHL PUSH2 0x345 JUMP JUMPDEST PUSH2 0x1B7B PUSH32 0x572713FB95A165FF75268CCB980B707DB6BC26C1B39E3F7D557CE786EC79F76D PUSH1 0x0 SHL PUSH2 0x345 JUMP JUMPDEST PUSH1 0x0 DUP3 PUSH1 0x0 ADD PUSH1 0x0 SWAP1 SLOAD SWAP1 PUSH2 0x100 EXP SWAP1 DIV PUSH20 0xFFFFFFFFFFFFFFFFFFFFFFFFFFFFFFFFFFFFFFFF AND PUSH20 0xFFFFFFFFFFFFFFFFFFFFFFFFFFFFFFFFFFFFFFFF AND DUP3 PUSH1 0x40 MLOAD PUSH2 0x1BC5 SWAP1 PUSH2 0x20EA JUMP JUMPDEST PUSH1 0x0 PUSH1 0x40 MLOAD DUP1 DUP4 SUB DUP2 DUP6 DUP8 GAS CALL SWAP3 POP POP POP RETURNDATASIZE DUP1 PUSH1 0x0 DUP2 EQ PUSH2 0x1C02 JUMPI PUSH1 0x40 MLOAD SWAP2 POP PUSH1 0x1F NOT PUSH1 0x3F RETURNDATASIZE ADD AND DUP3 ADD PUSH1 0x40 MSTORE RETURNDATASIZE DUP3 MSTORE RETURNDATASIZE PUSH1 0x0 PUSH1 0x20 DUP5 ADD RETURNDATACOPY PUSH2 0x1C07 JUMP JUMPDEST PUSH1 0x60 SWAP2 POP JUMPDEST POP POP SWAP1 POP PUSH2 0x1C37 PUSH32 0xBC9A16E783DA76A87A86B6533215210E63D702C1533367985E01708F47D55532 PUSH1 0x0 SHL PUSH2 0x345 JUMP JUMPDEST PUSH2 0x1C63 PUSH32 0x672BEB40AD2BCF1757C8002861DAEFBD9469623E5B0B298DE1B1E5BD21670EA6 PUSH1 0x0 SHL PUSH2 0x345 JUMP JUMPDEST PUSH2 0x1C8F PUSH32 0x938F90A3F2440FE02A3082DD9C7944AD3660B3941B31E3141C8656709C18208C PUSH1 0x0 SHL PUSH2 0x345 JUMP JUMPDEST DUP1 PUSH2 0x1CCF JUMPI PUSH1 0x40 MLOAD PUSH32 0x8C379A000000000000000000000000000000000000000000000000000000000 DUP2 MSTORE PUSH1 0x4 ADD PUSH2 0x1CC6 SWAP1 PUSH2 0x224E JUMP JUMPDEST PUSH1 0x40 MLOAD DUP1 SWAP2 SUB SWAP1 REVERT JUMPDEST PUSH2 0x1CFB PUSH32 0xC94993DF632F04D8BB6066123C0ACCC6B45284F64AC77D72049AFE6E390E756E PUSH1 0x0 SHL PUSH2 0x345 JUMP JUMPDEST POP POP POP POP JUMP JUMPDEST DUP3 DUP1 SLOAD PUSH2 0x1D0D SWAP1 PUSH2 0x23BF JUMP JUMPDEST SWAP1 PUSH1 0x0 MSTORE PUSH1 0x20 PUSH1 0x0 KECCAK256 SWAP1 PUSH1 0x1F ADD PUSH1 0x20 SWAP1 DIV DUP2 ADD SWAP3 DUP3 PUSH2 0x1D2F JUMPI PUSH1 0x0 DUP6 SSTORE PUSH2 0x1D76 JUMP JUMPDEST DUP3 PUSH1 0x1F LT PUSH2 0x1D48 JUMPI DUP1 MLOAD PUSH1 0xFF NOT AND DUP4 DUP1 ADD OR DUP6 SSTORE PUSH2 0x1D76 JUMP JUMPDEST DUP3 DUP1 ADD PUSH1 0x1 ADD DUP6 SSTORE DUP3 ISZERO PUSH2 0x1D76 JUMPI SWAP2 DUP3 ADD JUMPDEST DUP3 DUP2 GT ISZERO PUSH2 0x1D75 JUMPI DUP3 MLOAD DUP3 SSTORE SWAP2 PUSH1 0x20 ADD SWAP2 SWAP1 PUSH1 0x1 ADD SWAP1 PUSH2 0x1D5A JUMP JUMPDEST JUMPDEST POP SWAP1 POP PUSH2 0x1D83 SWAP2 SWAP1 PUSH2 0x1D87 JUMP JUMPDEST POP SWAP1 JUMP JUMPDEST JUMPDEST DUP1 DUP3 GT ISZERO PUSH2 0x1DA0 JUMPI PUSH1 0x0 DUP2 PUSH1 0x0 SWAP1 SSTORE POP PUSH1 0x1 ADD PUSH2 0x1D88 JUMP JUMPDEST POP SWAP1 JUMP JUMPDEST PUSH1 0x0 PUSH2 0x1DB7 PUSH2 0x1DB2 DUP5 PUSH2 0x22D3 JUMP JUMPDEST PUSH2 0x22AE JUMP JUMPDEST SWAP1 POP DUP3 DUP2 MSTORE PUSH1 0x20 DUP2 ADD DUP5 DUP5 DUP5 ADD GT ISZERO PUSH2 0x1DD3 JUMPI PUSH2 0x1DD2 PUSH2 0x24B4 JUMP JUMPDEST JUMPDEST PUSH2 0x1DDE DUP5 DUP3 DUP6 PUSH2 0x237D JUMP JUMPDEST POP SWAP4 SWAP3 POP POP POP JUMP JUMPDEST PUSH1 0x0 DUP2 CALLDATALOAD SWAP1 POP PUSH2 0x1DF5 DUP2 PUSH2 0x266B JUMP JUMPDEST SWAP3 SWAP2 POP POP JUMP JUMPDEST PUSH1 0x0 DUP2 CALLDATALOAD SWAP1 POP PUSH2 0x1E0A DUP2 PUSH2 0x2682 JUMP JUMPDEST SWAP3 SWAP2 POP POP JUMP JUMPDEST PUSH1 0x0 DUP3 PUSH1 0x1F DUP4 ADD SLT PUSH2 0x1E25 JUMPI PUSH2 0x1E24 PUSH2 0x24AF JUMP JUMPDEST JUMPDEST DUP2 CALLDATALOAD PUSH2 0x1E35 DUP5 DUP3 PUSH1 0x20 DUP7 ADD PUSH2 0x1DA4 JUMP JUMPDEST SWAP2 POP POP SWAP3 SWAP2 POP POP JUMP JUMPDEST PUSH1 0x0 DUP2 CALLDATALOAD SWAP1 POP PUSH2 0x1E4D DUP2 PUSH2 0x2699 JUMP JUMPDEST SWAP3 SWAP2 POP POP JUMP JUMPDEST PUSH1 0x0 PUSH1 0x20 DUP3 DUP5 SUB SLT ISZERO PUSH2 0x1E69 JUMPI PUSH2 0x1E68 PUSH2 0x24BE JUMP JUMPDEST JUMPDEST PUSH1 0x0 PUSH2 0x1E77 DUP5 DUP3 DUP6 ADD PUSH2 0x1DFB JUMP JUMPDEST SWAP2 POP POP SWAP3 SWAP2 POP POP JUMP JUMPDEST PUSH1 0x0 DUP1 PUSH1 0x40 DUP4 DUP6 SUB SLT ISZERO PUSH2 0x1E97 JUMPI PUSH2 0x1E96 PUSH2 0x24BE JUMP JUMPDEST JUMPDEST PUSH1 0x0 DUP4 ADD CALLDATALOAD PUSH8 0xFFFFFFFFFFFFFFFF DUP2 GT ISZERO PUSH2 0x1EB5 JUMPI PUSH2 0x1EB4 PUSH2 0x24B9 JUMP JUMPDEST JUMPDEST PUSH2 0x1EC1 DUP6 DUP3 DUP7 ADD PUSH2 0x1E10 JUMP JUMPDEST SWAP3 POP POP PUSH1 0x20 PUSH2 0x1ED2 DUP6 DUP3 DUP7 ADD PUSH2 0x1E3E JUMP JUMPDEST SWAP2 POP POP SWAP3 POP SWAP3 SWAP1 POP JUMP JUMPDEST PUSH1 0x0 PUSH1 0x20 DUP3 DUP5 SUB SLT ISZERO PUSH2 0x1EF2 JUMPI PUSH2 0x1EF1 PUSH2 0x24BE JUMP JUMPDEST JUMPDEST PUSH1 0x0 PUSH2 0x1F00 DUP5 DUP3 DUP6 ADD PUSH2 0x1E3E JUMP JUMPDEST SWAP2 POP POP SWAP3 SWAP2 POP POP JUMP JUMPDEST PUSH1 0x0 DUP1 PUSH1 0x40 DUP4 DUP6 SUB SLT ISZERO PUSH2 0x1F20 JUMPI PUSH2 0x1F1F PUSH2 0x24BE JUMP JUMPDEST JUMPDEST PUSH1 0x0 PUSH2 0x1F2E DUP6 DUP3 DUP7 ADD PUSH2 0x1E3E JUMP JUMPDEST SWAP3 POP POP PUSH1 0x20 PUSH2 0x1F3F DUP6 DUP3 DUP7 ADD PUSH2 0x1DE6 JUMP JUMPDEST SWAP2 POP POP SWAP3 POP SWAP3 SWAP1 POP JUMP JUMPDEST PUSH2 0x1F52 DUP2 PUSH2 0x232B JUMP JUMPDEST DUP3 MSTORE POP POP JUMP JUMPDEST PUSH2 0x1F61 DUP2 PUSH2 0x233D JUMP JUMPDEST DUP3 MSTORE POP POP JUMP JUMPDEST PUSH1 0x0 PUSH2 0x1F72 DUP3 PUSH2 0x2304 JUMP JUMPDEST PUSH2 0x1F7C DUP2 DUP6 PUSH2 0x231A JUMP JUMPDEST SWAP4 POP PUSH2 0x1F8C DUP2 DUP6 PUSH1 0x20 DUP7 ADD PUSH2 0x238C JUMP JUMPDEST PUSH2 0x1F95 DUP2 PUSH2 0x24C3 JUMP JUMPDEST DUP5 ADD SWAP2 POP POP SWAP3 SWAP2 POP POP JUMP JUMPDEST PUSH1 0x0 PUSH2 0x1FAD PUSH1 0x1F DUP4 PUSH2 0x231A JUMP JUMPDEST SWAP2 POP PUSH2 0x1FB8 DUP3 PUSH2 0x24D4 JUMP JUMPDEST PUSH1 0x20 DUP3 ADD SWAP1 POP SWAP2 SWAP1 POP JUMP JUMPDEST PUSH1 0x0 PUSH2 0x1FD0 PUSH1 0x1E DUP4 PUSH2 0x231A JUMP JUMPDEST SWAP2 POP PUSH2 0x1FDB DUP3 PUSH2 0x24FD JUMP JUMPDEST PUSH1 0x20 DUP3 ADD SWAP1 POP SWAP2 SWAP1 POP JUMP JUMPDEST PUSH1 0x0 PUSH2 0x1FF3 PUSH1 0x18 DUP4 PUSH2 0x231A JUMP JUMPDEST SWAP2 POP PUSH2 0x1FFE DUP3 PUSH2 0x2526 JUMP JUMPDEST PUSH1 0x20 DUP3 ADD SWAP1 POP SWAP2 SWAP1 POP JUMP JUMPDEST PUSH1 0x0 PUSH2 0x2016 PUSH1 0x1D DUP4 PUSH2 0x231A JUMP JUMPDEST SWAP2 POP PUSH2 0x2021 DUP3 PUSH2 0x254F JUMP JUMPDEST PUSH1 0x20 DUP3 ADD SWAP1 POP SWAP2 SWAP1 POP JUMP JUMPDEST PUSH1 0x0 PUSH2 0x2039 PUSH1 0x29 DUP4 PUSH2 0x231A JUMP JUMPDEST SWAP2 POP PUSH2 0x2044 DUP3 PUSH2 0x2578 JUMP JUMPDEST PUSH1 0x40 DUP3 ADD SWAP1 POP SWAP2 SWAP1 POP JUMP JUMPDEST PUSH1 0x0 PUSH2 0x205C PUSH1 0x0 DUP4 PUSH2 0x230F JUMP JUMPDEST SWAP2 POP PUSH2 0x2067 DUP3 PUSH2 0x25C7 JUMP JUMPDEST PUSH1 0x0 DUP3 ADD SWAP1 POP SWAP2 SWAP1 POP JUMP JUMPDEST PUSH1 0x0 PUSH2 0x207F PUSH1 0x10 DUP4 PUSH2 0x231A JUMP JUMPDEST SWAP2 POP PUSH2 0x208A DUP3 PUSH2 0x25CA JUMP JUMPDEST PUSH1 0x20 DUP3 ADD SWAP1 POP SWAP2 SWAP1 POP JUMP JUMPDEST PUSH1 0x0 PUSH2 0x20A2 PUSH1 0x3D DUP4 PUSH2 0x231A JUMP JUMPDEST SWAP2 POP PUSH2 0x20AD DUP3 PUSH2 0x25F3 JUMP JUMPDEST PUSH1 0x40 DUP3 ADD SWAP1 POP SWAP2 SWAP1 POP JUMP JUMPDEST PUSH1 0x0 PUSH2 0x20C5 PUSH1 0x1E DUP4 PUSH2 0x231A JUMP JUMPDEST SWAP2 POP PUSH2 0x20D0 DUP3 PUSH2 0x2642 JUMP JUMPDEST PUSH1 0x20 DUP3 ADD SWAP1 POP SWAP2 SWAP1 POP JUMP JUMPDEST PUSH2 0x20E4 DUP2 PUSH2 0x2373 JUMP JUMPDEST DUP3 MSTORE POP POP JUMP JUMPDEST PUSH1 0x0 PUSH2 0x20F5 DUP3 PUSH2 0x204F JUMP JUMPDEST SWAP2 POP DUP2 SWAP1 POP SWAP2 SWAP1 POP JUMP JUMPDEST PUSH1 0x0 PUSH2 0x120 DUP3 ADD SWAP1 POP PUSH2 0x2115 PUSH1 0x0 DUP4 ADD DUP13 PUSH2 0x1F49 JUMP JUMPDEST DUP2 DUP2 SUB PUSH1 0x20 DUP4 ADD MSTORE PUSH2 0x2127 DUP2 DUP12 PUSH2 0x1F67 JUMP JUMPDEST SWAP1 POP PUSH2 0x2136 PUSH1 0x40 DUP4 ADD DUP11 PUSH2 0x20DB JUMP JUMPDEST PUSH2 0x2143 PUSH1 0x60 DUP4 ADD DUP10 PUSH2 0x20DB JUMP JUMPDEST PUSH2 0x2150 PUSH1 0x80 DUP4 ADD DUP9 PUSH2 0x1F58 JUMP JUMPDEST PUSH2 0x215D PUSH1 0xA0 DUP4 ADD DUP8 PUSH2 0x1F58 JUMP JUMPDEST PUSH2 0x216A PUSH1 0xC0 DUP4 ADD DUP7 PUSH2 0x1F58 JUMP JUMPDEST PUSH2 0x2177 PUSH1 0xE0 DUP4 ADD DUP6 PUSH2 0x1F58 JUMP JUMPDEST PUSH2 0x2185 PUSH2 0x100 DUP4 ADD DUP5 PUSH2 0x1F49 JUMP JUMPDEST SWAP11 SWAP10 POP POP POP POP POP POP POP POP POP POP JUMP JUMPDEST PUSH1 0x0 PUSH1 0x20 DUP3 ADD SWAP1 POP PUSH2 0x21A8 PUSH1 0x0 DUP4 ADD DUP5 PUSH2 0x1F58 JUMP JUMPDEST SWAP3 SWAP2 POP POP JUMP JUMPDEST PUSH1 0x0 PUSH1 0x20 DUP3 ADD SWAP1 POP DUP2 DUP2 SUB PUSH1 0x0 DUP4 ADD MSTORE PUSH2 0x21C7 DUP2 PUSH2 0x1FA0 JUMP JUMPDEST SWAP1 POP SWAP2 SWAP1 POP JUMP JUMPDEST PUSH1 0x0 PUSH1 0x20 DUP3 ADD SWAP1 POP DUP2 DUP2 SUB PUSH1 0x0 DUP4 ADD MSTORE PUSH2 0x21E7 DUP2 PUSH2 0x1FC3 JUMP JUMPDEST SWAP1 POP SWAP2 SWAP1 POP JUMP JUMPDEST PUSH1 0x0 PUSH1 0x20 DUP3 ADD SWAP1 POP DUP2 DUP2 SUB PUSH1 0x0 DUP4 ADD MSTORE PUSH2 0x2207 DUP2 PUSH2 0x1FE6 JUMP JUMPDEST SWAP1 POP SWAP2 SWAP1 POP JUMP JUMPDEST PUSH1 0x0 PUSH1 0x20 DUP3 ADD SWAP1 POP DUP2 DUP2 SUB PUSH1 0x0 DUP4 ADD MSTORE PUSH2 0x2227 DUP2 PUSH2 0x2009 JUMP JUMPDEST SWAP1 POP SWAP2 SWAP1 POP JUMP JUMPDEST PUSH1 0x0 PUSH1 0x20 DUP3 ADD SWAP1 POP DUP2 DUP2 SUB PUSH1 0x0 DUP4 ADD MSTORE PUSH2 0x2247 DUP2 PUSH2 0x202C JUMP JUMPDEST SWAP1 POP SWAP2 SWAP1 POP JUMP JUMPDEST PUSH1 0x0 PUSH1 0x20 DUP3 ADD SWAP1 POP DUP2 DUP2 SUB PUSH1 0x0 DUP4 ADD MSTORE PUSH2 0x2267 DUP2 PUSH2 0x2072 JUMP JUMPDEST SWAP1 POP SWAP2 SWAP1 POP JUMP JUMPDEST PUSH1 0x0 PUSH1 0x20 DUP3 ADD SWAP1 POP DUP2 DUP2 SUB PUSH1 0x0 DUP4 ADD MSTORE PUSH2 0x2287 DUP2 PUSH2 0x2095 JUMP JUMPDEST SWAP1 POP SWAP2 SWAP1 POP JUMP JUMPDEST PUSH1 0x0 PUSH1 0x20 DUP3 ADD SWAP1 POP DUP2 DUP2 SUB PUSH1 0x0 DUP4 ADD MSTORE PUSH2 0x22A7 DUP2 PUSH2 0x20B8 JUMP JUMPDEST SWAP1 POP SWAP2 SWAP1 POP JUMP JUMPDEST PUSH1 0x0 PUSH2 0x22B8 PUSH2 0x22C9 JUMP JUMPDEST SWAP1 POP PUSH2 0x22C4 DUP3 DUP3 PUSH2 0x23F1 JUMP JUMPDEST SWAP2 SWAP1 POP JUMP JUMPDEST PUSH1 0x0 PUSH1 0x40 MLOAD SWAP1 POP SWAP1 JUMP JUMPDEST PUSH1 0x0 PUSH8 0xFFFFFFFFFFFFFFFF DUP3 GT ISZERO PUSH2 0x22EE JUMPI PUSH2 0x22ED PUSH2 0x2480 JUMP JUMPDEST JUMPDEST PUSH2 0x22F7 DUP3 PUSH2 0x24C3 JUMP JUMPDEST SWAP1 POP PUSH1 0x20 DUP2 ADD SWAP1 POP SWAP2 SWAP1 POP JUMP JUMPDEST PUSH1 0x0 DUP2 MLOAD SWAP1 POP SWAP2 SWAP1 POP JUMP JUMPDEST PUSH1 0x0 DUP2 SWAP1 POP SWAP3 SWAP2 POP POP JUMP JUMPDEST PUSH1 0x0 DUP3 DUP3 MSTORE PUSH1 0x20 DUP3 ADD SWAP1 POP SWAP3 SWAP2 POP POP JUMP JUMPDEST PUSH1 0x0 PUSH2 0x2336 DUP3 PUSH2 0x2353 JUMP JUMPDEST SWAP1 POP SWAP2 SWAP1 POP JUMP JUMPDEST PUSH1 0x0 DUP2 ISZERO ISZERO SWAP1 POP SWAP2 SWAP1 POP JUMP JUMPDEST PUSH1 0x0 DUP2 SWAP1 POP SWAP2 SWAP1 POP JUMP JUMPDEST PUSH1 0x0 PUSH20 0xFFFFFFFFFFFFFFFFFFFFFFFFFFFFFFFFFFFFFFFF DUP3 AND SWAP1 POP SWAP2 SWAP1 POP JUMP JUMPDEST PUSH1 0x0 DUP2 SWAP1 POP SWAP2 SWAP1 POP JUMP JUMPDEST DUP3 DUP2 DUP4 CALLDATACOPY PUSH1 0x0 DUP4 DUP4 ADD MSTORE POP POP POP JUMP JUMPDEST PUSH1 0x0 JUMPDEST DUP4 DUP2 LT ISZERO PUSH2 0x23AA JUMPI DUP1 DUP3 ADD MLOAD DUP2 DUP5 ADD MSTORE PUSH1 0x20 DUP2 ADD SWAP1 POP PUSH2 0x238F JUMP JUMPDEST DUP4 DUP2 GT ISZERO PUSH2 0x23B9 JUMPI PUSH1 0x0 DUP5 DUP5 ADD MSTORE JUMPDEST POP POP POP POP JUMP JUMPDEST PUSH1 0x0 PUSH1 0x2 DUP3 DIV SWAP1 POP PUSH1 0x1 DUP3 AND DUP1 PUSH2 0x23D7 JUMPI PUSH1 0x7F DUP3 AND SWAP2 POP JUMPDEST PUSH1 0x20 DUP3 LT DUP2 EQ ISZERO PUSH2 0x23EB JUMPI PUSH2 0x23EA PUSH2 0x2422 JUMP JUMPDEST JUMPDEST POP SWAP2 SWAP1 POP JUMP JUMPDEST PUSH2 0x23FA DUP3 PUSH2 0x24C3 JUMP JUMPDEST DUP2 ADD DUP2 DUP2 LT PUSH8 0xFFFFFFFFFFFFFFFF DUP3 GT OR ISZERO PUSH2 0x2419 JUMPI PUSH2 0x2418 PUSH2 0x2480 JUMP JUMPDEST JUMPDEST DUP1 PUSH1 0x40 MSTORE POP POP POP JUMP JUMPDEST PUSH32 0x4E487B7100000000000000000000000000000000000000000000000000000000 PUSH1 0x0 MSTORE PUSH1 0x22 PUSH1 0x4 MSTORE PUSH1 0x24 PUSH1 0x0 REVERT JUMPDEST PUSH32 0x4E487B7100000000000000000000000000000000000000000000000000000000 PUSH1 0x0 MSTORE PUSH1 0x32 PUSH1 0x4 MSTORE PUSH1 0x24 PUSH1 0x0 REVERT JUMPDEST PUSH32 0x4E487B7100000000000000000000000000000000000000000000000000000000 PUSH1 0x0 MSTORE PUSH1 0x41 PUSH1 0x4 MSTORE PUSH1 0x24 PUSH1 0x0 REVERT JUMPDEST PUSH1 0x0 DUP1 REVERT JUMPDEST PUSH1 0x0 DUP1 REVERT JUMPDEST PUSH1 0x0 DUP1 REVERT JUMPDEST PUSH1 0x0 DUP1 REVERT JUMPDEST PUSH1 0x0 PUSH1 0x1F NOT PUSH1 0x1F DUP4 ADD AND SWAP1 POP SWAP2 SWAP1 POP JUMP JUMPDEST PUSH32 0x4F6E6C79206F776E6572732063616E2077697468647261772066756E64732E00 PUSH1 0x0 DUP3 ADD MSTORE POP JUMP JUMPDEST PUSH32 0x4F776E6572732063616E6E6F7420736574746C652064697370757465732E0000 PUSH1 0x0 DUP3 ADD MSTORE POP JUMP JUMPDEST PUSH32 0x4F6E6C79206275796572732063616E20617070726F76652E0000000000000000 PUSH1 0x0 DUP3 ADD MSTORE POP JUMP JUMPDEST PUSH32 0x4E6F626F64792070757263686173656420746865206974656D20796574000000 PUSH1 0x0 DUP3 ADD MSTORE POP JUMP JUMPDEST PUSH32 0x54686520627579657220646964206E6F7420617070726F766520746865207472 PUSH1 0x0 DUP3 ADD MSTORE PUSH32 0x616E73616374696F6E0000000000000000000000000000000000000000000000 PUSH1 0x20 DUP3 ADD MSTORE POP JUMP JUMPDEST POP JUMP JUMPDEST PUSH32 0x5472616E73666572206661696C65642E00000000000000000000000000000000 PUSH1 0x0 DUP3 ADD MSTORE POP JUMP JUMPDEST PUSH32 0x546865207472616E73616374696F6E206973206265696E672064697370757465 PUSH1 0x0 DUP3 ADD MSTORE PUSH32 0x642C20706C65617365207761697420666F72207265736F6C7574696F6E000000 PUSH1 0x20 DUP3 ADD MSTORE POP JUMP JUMPDEST PUSH32 0x4275796572732063616E6E6F7420736574746C652064697370757465732E0000 PUSH1 0x0 DUP3 ADD MSTORE POP JUMP JUMPDEST PUSH2 0x2674 DUP2 PUSH2 0x233D JUMP JUMPDEST DUP2 EQ PUSH2 0x267F JUMPI PUSH1 0x0 DUP1 REVERT JUMPDEST POP JUMP JUMPDEST PUSH2 0x268B DUP2 PUSH2 0x2349 JUMP JUMPDEST DUP2 EQ PUSH2 0x2696 JUMPI PUSH1 0x0 DUP1 REVERT JUMPDEST POP JUMP JUMPDEST PUSH2 0x26A2 DUP2 PUSH2 0x2373 JUMP JUMPDEST DUP2 EQ PUSH2 0x26AD JUMPI PUSH1 0x0 DUP1 REVERT JUMPDEST POP JUMP INVALID LOG2 PUSH5 0x6970667358 0x22 SLT KECCAK256 STOP EXTCODEHASH 0xC2 0x22 0xC4 RETURNDATACOPY MUL SWAP14 0xA8 ADDRESS SWAP3 PUSH15 0xE58E18CF5148553B3509D4656BCB4B GT LOG3 STOP BASEFEE 0xBE PUSH5 0x736F6C6343 STOP ADDMOD SMOD STOP CALLER "
        },
        "methodIdentifiers": {
          "approvePurchase(uint256)": "b37b53f7",
          "c_0x74c48283(bytes32)": "1e48fd80",
          "disputePurchase(uint256)": "67356a06",
          "openItems(uint256)": "18c0184f",
          "purchaseItem(uint256)": "d38ea5bf",
          "sellItem(string,uint256)": "8bd099b8",
          "settleDispute(uint256,bool)": "92305435",
          "withdrawMoneyFromContract(uint256)": "fdff051d"
        }
      }
    }
  }
}