{
  "_format": "hh-sol-artifact-1",
  "contractName": "GoodsExchangeErc20",
  "sourceName": "contracts/SellGoodsErc20.sol",
  "abi": [
    {
      "inputs": [
        {
          "internalType": "uint256",
          "name": "itemIndex",
          "type": "uint256"
        }
      ],
      "name": "approvePurchase",
      "outputs": [],
      "stateMutability": "nonpayable",
      "type": "function"
    },
    {
      "inputs": [
        {
          "internalType": "address",
          "name": "",
          "type": "address"
        }
      ],
      "name": "balances",
      "outputs": [
        {
          "internalType": "uint256",
          "name": "",
          "type": "uint256"
        }
      ],
      "stateMutability": "view",
      "type": "function"
    },
    {
      "inputs": [
        {
          "internalType": "bytes32",
          "name": "c__0xbef6b2c4",
          "type": "bytes32"
        }
      ],
      "name": "c_0xbef6b2c4",
      "outputs": [],
      "stateMutability": "pure",
      "type": "function"
    },
    {
      "inputs": [
        {
          "internalType": "uint256",
          "name": "itemIndex",
          "type": "uint256"
        }
      ],
      "name": "disputePurchase",
      "outputs": [],
      "stateMutability": "nonpayable",
      "type": "function"
    },
    {
      "inputs": [
        {
          "internalType": "address",
          "name": "_token",
          "type": "address"
        }
      ],
      "name": "getBalanceOf",
      "outputs": [
        {
          "internalType": "uint256",
          "name": "",
          "type": "uint256"
        }
      ],
      "stateMutability": "view",
      "type": "function"
    },
    {
      "inputs": [
        {
          "internalType": "address",
          "name": "_token",
          "type": "address"
        }
      ],
      "name": "getContractBalanceOf",
      "outputs": [
        {
          "internalType": "uint256",
          "name": "",
          "type": "uint256"
        }
      ],
      "stateMutability": "view",
      "type": "function"
    },
    {
      "inputs": [
        {
          "internalType": "uint256",
          "name": "",
          "type": "uint256"
        }
      ],
      "name": "openItems",
      "outputs": [
        {
          "internalType": "address",
          "name": "owner",
          "type": "address"
        },
        {
          "internalType": "string",
          "name": "description",
          "type": "string"
        },
        {
          "internalType": "uint256",
          "name": "value",
          "type": "uint256"
        },
        {
          "internalType": "uint256",
          "name": "balance",
          "type": "uint256"
        },
        {
          "internalType": "bool",
          "name": "purchased",
          "type": "bool"
        },
        {
          "internalType": "address",
          "name": "currency",
          "type": "address"
        },
        {
          "internalType": "bool",
          "name": "completed",
          "type": "bool"
        },
        {
          "internalType": "bool",
          "name": "disputed",
          "type": "bool"
        },
        {
          "internalType": "bool",
          "name": "approved",
          "type": "bool"
        },
        {
          "internalType": "address",
          "name": "buyer",
          "type": "address"
        }
      ],
      "stateMutability": "view",
      "type": "function"
    },
    {
      "inputs": [
        {
          "internalType": "uint256",
          "name": "amount",
          "type": "uint256"
        },
        {
          "internalType": "uint256",
          "name": "itemIndex",
          "type": "uint256"
        }
      ],
      "name": "purchaseItem",
      "outputs": [
        {
          "internalType": "bool",
          "name": "",
          "type": "bool"
        }
      ],
      "stateMutability": "nonpayable",
      "type": "function"
    },
    {
      "inputs": [
        {
          "internalType": "string",
          "name": "description",
          "type": "string"
        },
        {
          "internalType": "uint256",
          "name": "value",
          "type": "uint256"
        },
        {
          "internalType": "address",
          "name": "token",
          "type": "address"
        }
      ],
      "name": "sellItem",
      "outputs": [
        {
          "internalType": "bool",
          "name": "",
          "type": "bool"
        }
      ],
      "stateMutability": "nonpayable",
      "type": "function"
    },
    {
      "inputs": [
        {
          "internalType": "uint256",
          "name": "itemIndex",
          "type": "uint256"
        },
        {
          "internalType": "bool",
          "name": "purchaseReverted",
          "type": "bool"
        }
      ],
      "name": "settleDispute",
      "outputs": [],
      "stateMutability": "nonpayable",
      "type": "function"
    },
    {
      "inputs": [
        {
          "internalType": "uint256",
          "name": "itemIndex",
          "type": "uint256"
        }
      ],
      "name": "withdrawMoneyFromContract",
      "outputs": [],
      "stateMutability": "nonpayable",
      "type": "function"
    }
  ],
  "bytecode": "0x608060405234801561001057600080fd5b50612d12806100206000396000f3fe608060405234801561001057600080fd5b50600436106100a95760003560e01c80639230543511610071578063923054351461017f5780639b96eece1461019b578063ae8ef20a146101cb578063b37b53f7146101fb578063e067569814610217578063fdff051d14610247576100a9565b806318c0184f146100ae57806326a03d84146100e757806327e235e31461011757806357ca958c1461014757806367356a0614610163575b600080fd5b6100c860048036038101906100c3919061240c565b610263565b6040516100de9a99989796959493929190612693565b60405180910390f35b61010160048036038101906100fc9190612316565b6103e3565b60405161010e919061285a565b60405180910390f35b610131600480360381019061012c9190612316565b6104f9565b60405161013e919061285a565b60405180910390f35b610161600480360381019061015c9190612370565b610511565b005b61017d6004803603810190610178919061240c565b610514565b005b61019960048036038101906101949190612466565b610702565b005b6101b560048036038101906101b09190612316565b610d5a565b6040516101c2919061285a565b60405180910390f35b6101e560048036038101906101e0919061239d565b610e70565b6040516101f2919061275f565b60405180910390f35b6102156004803603810190610210919061240c565b611202565b005b610231600480360381019061022c91906124a6565b611467565b60405161023e919061275f565b60405180910390f35b610261600480360381019061025c919061240c565b611991565b005b6001818154811061027357600080fd5b90600052602060002090600602016000915090508060000160009054906101000a900473ffffffffffffffffffffffffffffffffffffffff16908060010180546102bc906129d1565b80601f01602080910402602001604051908101604052809291908181526020018280546102e8906129d1565b80156103355780601f1061030a57610100808354040283529160200191610335565b820191906000526020600020905b81548152906001019060200180831161031857829003601f168201915b5050505050908060020154908060030154908060040160009054906101000a900460ff16908060040160019054906101000a900473ffffffffffffffffffffffffffffffffffffffff16908060040160159054906101000a900460ff16908060040160169054906101000a900460ff16908060040160179054906101000a900460ff16908060050160009054906101000a900473ffffffffffffffffffffffffffffffffffffffff1690508a565b60006104117f4f56136af47d17604fa474591c34b819cd9cef3529522714838b3d328d28d1ae60001b610511565b61043d7fc6e372085f3b1601c930f55ce22a0ef9e7594f967fbdbc1a439d9af6db9abefd60001b610511565b6104697ffd4dd23ce34fe1d2f55afbdef7243eb0222b38a1f15061026bf2528c251dd1ea60001b610511565b8173ffffffffffffffffffffffffffffffffffffffff166370a08231306040518263ffffffff1660e01b81526004016104a29190612641565b60206040518083038186803b1580156104ba57600080fd5b505afa1580156104ce573d6000803e3d6000fd5b505050506040513d601f19601f820116820180604052508101906104f29190612439565b9050919050565b60006020528060005260406000206000915090505481565b50565b6105407fa390ab68df949c65a97d18ee2c35c237ab4b9919a5b07ec0ded156443b7ed19760001b610511565b61056c7f88e6919979b9928aec84b74cd739d499a0c15143256124812323d35a033385f960001b610511565b6105987f5ac4307e0a43e609cd5db0940c63cbfaff0d6c70e60d4bcef6cfe9b4943a52d560001b610511565b6000600182815481106105ae576105ad612a92565b5b906000526020600020906006020190506105ea7f873177596c2947f1a990eac5f8a0be58d22f2b88910bcf0b82f9b7f5fdf13a3f60001b610511565b6106167f1beff1562dfb74f8f0e1589f45075ed864d2c8729174f7ac2207029f4d17dfd960001b610511565b6106427f9d16f22e757ffd319964794cca4a919029d15aa33704222170ac5fc3e0bba40860001b610511565b8060040160009054906101000a900460ff1661065d57600080fd5b6106897ff8ab0420d082d7b3769c82a13f1152082683a64d5082feb3bf3121c27e71232e60001b610511565b6106b57f12e36912ab63e58776f853eb43962c447077a564174e352f8593686bd7deb90760001b610511565b6106e17f5a4bfb493452fc19e27442c54a4b0839d45fee046b573d446aae45aafc8707d260001b610511565b60018160040160166101000a81548160ff0219169083151502179055505050565b61072e7fb77171172505f86723ea61527e366bf6bfcb068ff1f21236ebf7826797ea260a60001b610511565b61075a7f0a032c73a9b0123c476a1581e597de8839bd26a45e093aa82c80b2d4c9e15f1160001b610511565b6107867ffc67aa4375fef7c2a6f6c99df87f211ac46368bd79aad0af73ec9a00c3d8375260001b610511565b60006001838154811061079c5761079b612a92565b5b906000526020600020906006020190506107d87f66eb2610e0862a478cde2065f3eeeeb43e2b007bac2c6cd629271d5e4185615e60001b610511565b6108047f3b1ff3bb6b80f4b7c1278b8c0c4411eb0ce8bc2352639ccb013fa4fdf85b19c860001b610511565b6108307fdd62af0fa0ec38f0f8bc51c3cbe1a14e4c435251718413f4717b6e4fd88e38d560001b610511565b8060000160009054906101000a900473ffffffffffffffffffffffffffffffffffffffff1673ffffffffffffffffffffffffffffffffffffffff163373ffffffffffffffffffffffffffffffffffffffff1614156108c3576040517f08c379a00000000000000000000000000000000000000000000000000000000081526004016108ba9061279a565b60405180910390fd5b6108ef7f75a7c475e3bf793a507005dfba0787b3ed8c7524bdaf32f59fd48f64e64a589360001b610511565b61091b7fd1e564e503be0d3784adf89d25ee125e70ccd82a33d574d4f30363b241bd7ab460001b610511565b6109477f93330b3d1f28fb93ccfb1fabb8fb8bddc2656f98cb2cd83b2588aada40fe5ccb60001b610511565b6109737f5bb2c998db5548e84762595281930182775d253bbc9d74b13d17160ec653436a60001b610511565b8060050160009054906101000a900473ffffffffffffffffffffffffffffffffffffffff1673ffffffffffffffffffffffffffffffffffffffff163373ffffffffffffffffffffffffffffffffffffffff161415610a06576040517f08c379a00000000000000000000000000000000000000000000000000000000081526004016109fd9061283a565b60405180910390fd5b610a327f49d766550e9234439f89a663e91d2278e24f9737e2742d65155149bb08d4984260001b610511565b610a5e7f44cdb4f38fd2414d69b1d5a32edbc1b6c52be4a8e7d59f92e9b9aad38f695d5c60001b610511565b610a8a7f5b74786a7552fb8ee18d90f3747ea246b8c04060f561fb5fc2195681dff4767f60001b610511565b8115610cb357610abc7fec09fae4661fdcc273bc4f653809f3d282fd833db15dd52691c886ba1756ab0b60001b610511565b610ae87f0eb8d005cc4424739e89f453a5817d6d843fb4a15563cfa457aaa6abb50793b960001b610511565b610b147f569fbaefa5b3088197c438d194f53cd6cb0b4f6eed6626f26ca6276cd53ac22060001b610511565b600081600301549050610b497f0ecb44c7b58f983c656c72eb892556ee4e2e7af0a9392743c44a63b17383b7bd60001b610511565b610b757f839c8e9b557e2aa75f94a13f01cc1b101c55b1f1b4c0ac75a2a4bac44206823c60001b610511565b60008260030181905550610bab7f264a5b937bcbbfba0804a9f5518cec9aa91f6e3527ac4f4d0b5de366a3ef260c60001b610511565b610bd77fcde2c7e2a085dd623273861c444e698ff9e2db7ec480e5680c2e11207be3d4a660001b610511565b8160040160019054906101000a900473ffffffffffffffffffffffffffffffffffffffff1673ffffffffffffffffffffffffffffffffffffffff1663a9059cbb8360050160009054906101000a900473ffffffffffffffffffffffffffffffffffffffff16836040518363ffffffff1660e01b8152600401610c5a929190612736565b602060405180830381600087803b158015610c7457600080fd5b505af1158015610c88573d6000803e3d6000fd5b505050506040513d601f19601f82011682018060405250810190610cac9190612343565b5050610ce0565b610cdf7ffb37ae5f0dc3cc0fdd5d4f04ea98f35d98827099d000cd68b9d4196356d44c0760001b610511565b5b610d0c7f11fb55838d806143c6fec0cb16fcab5692779826133a8befa0fa6f0e3855c43460001b610511565b610d387f3eb1a5482fdb6533343b68698915d69e9cba55fc9230f0e0a2a26ac2a201541960001b610511565b60008160040160166101000a81548160ff021916908315150217905550505050565b6000610d887f014d757851d5ccc1ddc3a89e090e75bdf2191662c2b67de5283085fdc19aac3f60001b610511565b610db47f5e6aa10c76e8b915117db46d661cf0293a90d0ecd292a96507f5fedaab7a0cbf60001b610511565b610de07fc9c02bc68fbfd7f6222926321034c67f027c20fb1ea5d1e501bb48e1ddf68e4360001b610511565b8173ffffffffffffffffffffffffffffffffffffffff166370a08231336040518263ffffffff1660e01b8152600401610e199190612641565b60206040518083038186803b158015610e3157600080fd5b505afa158015610e45573d6000803e3d6000fd5b505050506040513d601f19601f82011682018060405250810190610e699190612439565b9050919050565b6000610e9e7fc5c17474dd6559fc067fbb97d2717b0ce23374bd4f680f5e0c5bb4442a1baa1e60001b610511565b610eca7f3ddbc2da04541ff839f08e2a7797bb22cb7eb6d068b31f5831b9ff67d1b68f6a60001b610511565b610ef67f5b2d941b9425d47c85289c254edf2d52fcf6eeeab3d119ad938371d4cf4f2ed660001b610511565b60006040518061014001604052803373ffffffffffffffffffffffffffffffffffffffff168152602001868152602001858152602001600081526020016000151581526020018473ffffffffffffffffffffffffffffffffffffffff168152602001600015158152602001600015158152602001600015158152602001600073ffffffffffffffffffffffffffffffffffffffff168152509050610fbc7f213932f611b9f714715ffe7effba463d9d283c2e7568d4baa2febb9ce0efef0160001b610511565b610fe87fe54df0f03c256031031b57cc8db91275ddedd2fa50ebfa81d98384f770d9e4c460001b610511565b600181908060018154018082558091505060019003906000526020600020906006020160009091909190915060008201518160000160006101000a81548173ffffffffffffffffffffffffffffffffffffffff021916908373ffffffffffffffffffffffffffffffffffffffff1602179055506020820151816001019080519060200190611077929190612185565b50604082015181600201556060820151816003015560808201518160040160006101000a81548160ff02191690831515021790555060a08201518160040160016101000a81548173ffffffffffffffffffffffffffffffffffffffff021916908373ffffffffffffffffffffffffffffffffffffffff16021790555060c08201518160040160156101000a81548160ff02191690831515021790555060e08201518160040160166101000a81548160ff0219169083151502179055506101008201518160040160176101000a81548160ff0219169083151502179055506101208201518160050160006101000a81548173ffffffffffffffffffffffffffffffffffffffff021916908373ffffffffffffffffffffffffffffffffffffffff16021790555050506111ca7f7a4cff855a4e8da11a7ef23574d7418cde7fc621fcc5571051876c473240628260001b610511565b6111f67f2670466ad2274f1e083ce928e38f32f3d7b6ecd61dda87a97b862680d95cda0360001b610511565b60019150509392505050565b61122e7f6154e127b3eae23259c5890ffea0c27474ca1dfcf62936e8efed551f97f4e6eb60001b610511565b61125a7f715518f79482c0d06de69f56d03dd3660a5bf67f70a1da1663b777100745445660001b610511565b6112867fceac1e6715c89a04993479c14a8079a172fdfd7abd4743124bae6432ce765d2c60001b610511565b60006001828154811061129c5761129b612a92565b5b906000526020600020906006020190506112d87f8db8beb488b4199503619a6af8448c07744a034e20c447bcdc92f527da4e262d60001b610511565b6113047f32e184c4fe5a98c8c6104179ce7c08d8e7d5b864d22d44c1181158813e37313c60001b610511565b6113307f5eb9b8b27a4940b98c9837c8b6e880accd4047f5e8e21d5033406fbe2774af2460001b610511565b3373ffffffffffffffffffffffffffffffffffffffff168160050160009054906101000a900473ffffffffffffffffffffffffffffffffffffffff1673ffffffffffffffffffffffffffffffffffffffff16146113c2576040517f08c379a00000000000000000000000000000000000000000000000000000000081526004016113b9906127ba565b60405180910390fd5b6113ee7f7bba7c0b546fe8e1da91dd50f6c811a7b3eb506bd027086eec7658365892570360001b610511565b61141a7fc0b2d87fc91b7ab7e38e9d9ef5cf8c3abfc9174acbcd6c655c0546d6cb11e51060001b610511565b6114467f2283929235389a2b6a9950ee255f5572522deaaa50ec460122c2546cb8bbded160001b610511565b60018160040160176101000a81548160ff0219169083151502179055505050565b60006114957fc2a386ff54b375a7ee9c972a7fed8251f5bae31988977c1154053a062af13c4360001b610511565b6114c17fb9702f0b1cc565a9efe4f488e15d6624aa3517e8516c818235f66098883b8e6f60001b610511565b6114ed7f08b826299240e30cf63d2018c638437d5ad6fd62fb4103e6003109361a99d83360001b610511565b60006001838154811061150357611502612a92565b5b9060005260206000209060060201905061153f7feb1945cecc131fd98385d84fdfafab50a82d8a251808ec6795e991357ca3e90060001b610511565b61156b7f8030d6f3bbf459c4f6de8a876443298819087320ffaf715cf08b127531c2239e60001b610511565b6115977f09d3dc094cea68b09cb3943c507e0aa3bc836e5714cec21ba6c7353f92c6804e60001b610511565b8060040160009054906101000a900460ff16156115b357600080fd5b6115df7fac27daa4328d8a086c991f6da5061caef64f74676c19be96c8fd38537f3959a360001b610511565b61160b7f354b17104f3169636c693d575914291821d3ad11b8dc73f32f264816181f588c60001b610511565b6116377fd4ab2ce5dc37aed4e19423c6413169568bc7b0bf91312aa43c2384f843b3688b60001b610511565b60018160040160006101000a81548160ff0219169083151502179055506116807f5983e7dc452615f33f03d9c80a04a7c313b2f5c0bce5ef7daf16afb71dd0ddca60001b610511565b6116ac7fcafb10fcc4b943096abceca3e162cb3e0e81a94e0aa2eba6bbfaaa840eee92b960001b610511565b6116d87f719e0430a7434129ccbdcce074c6be9d512a6c3c084f35a054bc9ddd61c0700860001b610511565b806002015484146116e857600080fd5b6117147f928f3af1d2d49e1a9f04fb2ccaae2f5f7f0acbaaa9062beba6425a21de82dfe660001b610511565b6117407f44ffa3f073e2f0a4820385da12a92d40e181e264d88146543b1bc4fe610a072e60001b610511565b61176c7fc918602a03e330be121ddab759a456b6fc1fe45066df44b8daecee636f416ae960001b610511565b8381600301600082825461178091906128e7565b925050819055506117b37fee555c50e50bb1726b8758396f91862e40b4cf3d1ca14b41bc5b81cb9eae598a60001b610511565b6117df7f2c1cc4763d4d6728a126e84c8a3100487a77c87ac5ddf5ff9f086596bedb711860001b610511565b8060040160019054906101000a900473ffffffffffffffffffffffffffffffffffffffff1673ffffffffffffffffffffffffffffffffffffffff166323b872dd3330876040518463ffffffff1660e01b81526004016118409392919061265c565b602060405180830381600087803b15801561185a57600080fd5b505af115801561186e573d6000803e3d6000fd5b505050506040513d601f19601f820116820180604052508101906118929190612343565b506118bf7fa2cee40ca1197e1ed91efa10df0ff4c2d6562d75b8123c54207191141832efa360001b610511565b6118eb7f52b6ee9c142330238ed2b93d43c4a4f5beed22d950f632fe2fa5f350e20e8a0c60001b610511565b338160050160006101000a81548173ffffffffffffffffffffffffffffffffffffffff021916908373ffffffffffffffffffffffffffffffffffffffff16021790555061195a7ff3b560432e3e12b446fc964d814385f7ef445ad819f7fec6dfdee8155f633e6e60001b610511565b6119867f5442bea07c7a594137330816384d837cac64e7fe4253eeb9e5c549e51c2234c760001b610511565b600191505092915050565b6119bd7f48d459d0ebf8e97c8c9d8317a626bed6747939569f6883416aae8e24223e838f60001b610511565b6119e97f197c6a9f8ad6cb3a03622fb79f3243927a525becc177e54f1bc1f70d7d240f5d60001b610511565b611a157fb0dc7490c6da735de3c58ec62129adb29def29120c645588afad9aef49ff385f60001b610511565b600060018281548110611a2b57611a2a612a92565b5b90600052602060002090600602019050611a677f6ebf210503de4097daabaec9bbfa61abd5e8dc79b669c2425bbea00446c5a8e160001b610511565b611a937f2c4418161f45b0e5c7fa2923eea1c03fc42b2b32059b010157afbc49d3f4dea560001b610511565b611abf7f92d4efee5b439f6a72d4b1b26c921a2447a0566ca2a5076e1e2c24d49d14bf7160001b610511565b8060040160009054906101000a900460ff16611b10576040517f08c379a0000000000000000000000000000000000000000000000000000000008152600401611b07906127da565b60405180910390fd5b611b3c7f911962539017cf5d712f9da1e1d0e6b66a3da605c0438929b0978cfb6190906260001b610511565b611b687fd5b45ef8558007c9c0f7652e6a756dad025f6fe86adef6c7117af943d5363d3360001b610511565b611b947f49b4adc99a55f410ed10446b5ee986a07ed074e467d4ee73cf6c6e5616e065e960001b610511565b611bc07ffaf9233f2896f999b0965e2ab48d2887c72014895121315c6bf3dd07eb63dcbb60001b610511565b8060040160179054906101000a900460ff16611c11576040517f08c379a0000000000000000000000000000000000000000000000000000000008152600401611c08906127fa565b60405180910390fd5b611c3d7f551a32a844a25b46052d423074548af0eec3aabd5249f1fe442123f281ab6e5860001b610511565b611c697fb2517af62bb5202602e2756678b45a98a7551de2a96c79a432229024b43c9a3b60001b610511565b611c957f2ea33648dcfa0e550a9d125fa69fad796a8ac6b00d319d8dda90deabf68f3c5660001b610511565b611cc17ff84b7e38c7c479ac65d3b0154fc1e50ed0b58cf035c7a97c5b6259e7e5aa214660001b610511565b8060040160169054906101000a900460ff1615611d13576040517f08c379a0000000000000000000000000000000000000000000000000000000008152600401611d0a9061281a565b60405180910390fd5b611d3f7fae9426a095d25bbb45db00cf07339c91b6675c12c21d564424c8e20e427a523060001b610511565b611d6b7f03c22218222c56f719a019fb449e46595b8ebc67f7fe590d0db0ff3f91de986e60001b610511565b611d977f9fca54982efa1a6e66fcf61f4c2c57da0f7e6044700a6c7c8d94883a56aadd9a60001b610511565b611dc37f7bf0d5aa51dc9b62dc9faa01008c07a8b35430f654fdcc7dbf5222c52fdf436d60001b610511565b8060000160009054906101000a900473ffffffffffffffffffffffffffffffffffffffff1673ffffffffffffffffffffffffffffffffffffffff163373ffffffffffffffffffffffffffffffffffffffff1614611e55576040517f08c379a0000000000000000000000000000000000000000000000000000000008152600401611e4c9061277a565b60405180910390fd5b611e817fb74f3f8ef39df21ed1d1796d8af816745023e54c45d1941a05ad69c38c88923460001b610511565b611ead7f6d96b70b5bfaa49669e928afbb5cd3da390d223d512def8410b729e7dc2526d260001b610511565b611ed97f33cf7ce42871ca27daf0412073588a85fbd33d9d1c393a17d36aca9c8a174d8960001b610511565b600081600301549050611f0e7f7c8063bf9dd5f5de208338726c9518a1896b4c9c524f6a93155076fedefe1a9660001b610511565b611f3a7f813a7a77866068536a7713778af912e31de0c371ce51c4db7202dd04be86cff360001b610511565b60008260030181905550611f707fcfbd7946fb763a73fc9e2a29b594587497b44eccc0b7489cbce94e08472706e460001b610511565b611f9c7f04a89c1cfc8051f014544096da49c89ef173dfee54dae38f9217b3c3ab792f3d60001b610511565b8160040160019054906101000a900473ffffffffffffffffffffffffffffffffffffffff1673ffffffffffffffffffffffffffffffffffffffff1663095ea7b33084600301546040518363ffffffff1660e01b8152600401611fff929190612736565b602060405180830381600087803b15801561201957600080fd5b505af115801561202d573d6000803e3d6000fd5b505050506040513d601f19601f820116820180604052508101906120519190612343565b5061207e7f34c24423421719de6d6278a3592f33a06675b13c97899a666bf5a7d2a5fa402860001b610511565b6120aa7f85265fb4419dc441e59f485553d3fb3144352601387a13941d409c02e7d343ab60001b610511565b8160040160019054906101000a900473ffffffffffffffffffffffffffffffffffffffff1673ffffffffffffffffffffffffffffffffffffffff1663a9059cbb8360000160009054906101000a900473ffffffffffffffffffffffffffffffffffffffff16836040518363ffffffff1660e01b815260040161212d929190612736565b602060405180830381600087803b15801561214757600080fd5b505af115801561215b573d6000803e3d6000fd5b505050506040513d601f19601f8201168201806040525081019061217f9190612343565b50505050565b828054612191906129d1565b90600052602060002090601f0160209004810192826121b357600085556121fa565b82601f106121cc57805160ff19168380011785556121fa565b828001600101855582156121fa579182015b828111156121f95782518255916020019190600101906121de565b5b509050612207919061220b565b5090565b5b8082111561222457600081600090555060010161220c565b5090565b600061223b6122368461289a565b612875565b90508281526020810184848401111561225757612256612af5565b5b61226284828561298f565b509392505050565b60008135905061227981612c80565b92915050565b60008135905061228e81612c97565b92915050565b6000815190506122a381612c97565b92915050565b6000813590506122b881612cae565b92915050565b600082601f8301126122d3576122d2612af0565b5b81356122e3848260208601612228565b91505092915050565b6000813590506122fb81612cc5565b92915050565b60008151905061231081612cc5565b92915050565b60006020828403121561232c5761232b612aff565b5b600061233a8482850161226a565b91505092915050565b60006020828403121561235957612358612aff565b5b600061236784828501612294565b91505092915050565b60006020828403121561238657612385612aff565b5b6000612394848285016122a9565b91505092915050565b6000806000606084860312156123b6576123b5612aff565b5b600084013567ffffffffffffffff8111156123d4576123d3612afa565b5b6123e0868287016122be565b93505060206123f1868287016122ec565b92505060406124028682870161226a565b9150509250925092565b60006020828403121561242257612421612aff565b5b6000612430848285016122ec565b91505092915050565b60006020828403121561244f5761244e612aff565b5b600061245d84828501612301565b91505092915050565b6000806040838503121561247d5761247c612aff565b5b600061248b858286016122ec565b925050602061249c8582860161227f565b9150509250929050565b600080604083850312156124bd576124bc612aff565b5b60006124cb858286016122ec565b92505060206124dc858286016122ec565b9150509250929050565b6124ef8161293d565b82525050565b6124fe8161294f565b82525050565b600061250f826128cb565b61251981856128d6565b935061252981856020860161299e565b61253281612b04565b840191505092915050565b600061254a601f836128d6565b915061255582612b15565b602082019050919050565b600061256d601e836128d6565b915061257882612b3e565b602082019050919050565b60006125906018836128d6565b915061259b82612b67565b602082019050919050565b60006125b3601d836128d6565b91506125be82612b90565b602082019050919050565b60006125d66029836128d6565b91506125e182612bb9565b604082019050919050565b60006125f9603d836128d6565b915061260482612c08565b604082019050919050565b600061261c601e836128d6565b915061262782612c57565b602082019050919050565b61263b81612985565b82525050565b600060208201905061265660008301846124e6565b92915050565b600060608201905061267160008301866124e6565b61267e60208301856124e6565b61268b6040830184612632565b949350505050565b6000610140820190506126a9600083018d6124e6565b81810360208301526126bb818c612504565b90506126ca604083018b612632565b6126d7606083018a612632565b6126e460808301896124f5565b6126f160a08301886124e6565b6126fe60c08301876124f5565b61270b60e08301866124f5565b6127196101008301856124f5565b6127276101208301846124e6565b9b9a5050505050505050505050565b600060408201905061274b60008301856124e6565b6127586020830184612632565b9392505050565b600060208201905061277460008301846124f5565b92915050565b600060208201905081810360008301526127938161253d565b9050919050565b600060208201905081810360008301526127b381612560565b9050919050565b600060208201905081810360008301526127d381612583565b9050919050565b600060208201905081810360008301526127f3816125a6565b9050919050565b60006020820190508181036000830152612813816125c9565b9050919050565b60006020820190508181036000830152612833816125ec565b9050919050565b600060208201905081810360008301526128538161260f565b9050919050565b600060208201905061286f6000830184612632565b92915050565b600061287f612890565b905061288b8282612a03565b919050565b6000604051905090565b600067ffffffffffffffff8211156128b5576128b4612ac1565b5b6128be82612b04565b9050602081019050919050565b600081519050919050565b600082825260208201905092915050565b60006128f282612985565b91506128fd83612985565b9250827fffffffffffffffffffffffffffffffffffffffffffffffffffffffffffffffff0382111561293257612931612a34565b5b828201905092915050565b600061294882612965565b9050919050565b60008115159050919050565b6000819050919050565b600073ffffffffffffffffffffffffffffffffffffffff82169050919050565b6000819050919050565b82818337600083830152505050565b60005b838110156129bc5780820151818401526020810190506129a1565b838111156129cb576000848401525b50505050565b600060028204905060018216806129e957607f821691505b602082108114156129fd576129fc612a63565b5b50919050565b612a0c82612b04565b810181811067ffffffffffffffff82111715612a2b57612a2a612ac1565b5b80604052505050565b7f4e487b7100000000000000000000000000000000000000000000000000000000600052601160045260246000fd5b7f4e487b7100000000000000000000000000000000000000000000000000000000600052602260045260246000fd5b7f4e487b7100000000000000000000000000000000000000000000000000000000600052603260045260246000fd5b7f4e487b7100000000000000000000000000000000000000000000000000000000600052604160045260246000fd5b600080fd5b600080fd5b600080fd5b600080fd5b6000601f19601f8301169050919050565b7f4f6e6c79206f776e6572732063616e2077697468647261772066756e64732e00600082015250565b7f4f776e6572732063616e6e6f7420736574746c652064697370757465732e0000600082015250565b7f4f6e6c79206275796572732063616e20617070726f76652e0000000000000000600082015250565b7f4e6f626f64792070757263686173656420746865206974656d20796574000000600082015250565b7f54686520627579657220646964206e6f7420617070726f76652074686520747260008201527f616e73616374696f6e0000000000000000000000000000000000000000000000602082015250565b7f546865207472616e73616374696f6e206973206265696e67206469737075746560008201527f642c20706c65617365207761697420666f72207265736f6c7574696f6e000000602082015250565b7f4275796572732063616e6e6f7420736574746c652064697370757465732e0000600082015250565b612c898161293d565b8114612c9457600080fd5b50565b612ca08161294f565b8114612cab57600080fd5b50565b612cb78161295b565b8114612cc257600080fd5b50565b612cce81612985565b8114612cd957600080fd5b5056fea264697066735822122011716f199e48a9db7036dc62c1f840a23573985bbc697a43ca48032ef44decc464736f6c63430008070033",
  "linkReferences": {},
  "deployedLinkReferences": {}
}